{
  "_format": "hh-sol-artifact-1",
  "contractName": "MintTreeToken",
  "sourceName": "contracts/MintTreeToken.sol",
  "abi": [
    {
      "inputs": [
        {
          "internalType": "string",
          "name": "_contractURI",
          "type": "string"
        },
        {
          "internalType": "address",
          "name": "_owner",
          "type": "address"
        },
        {
          "internalType": "address",
          "name": "_dao",
          "type": "address"
        }
      ],
      "stateMutability": "nonpayable",
      "type": "constructor"
    },
    {
      "anonymous": false,
      "inputs": [
        {
          "indexed": true,
          "internalType": "address",
          "name": "owner",
          "type": "address"
        },
        {
          "indexed": true,
          "internalType": "address",
          "name": "approved",
          "type": "address"
        },
        {
          "indexed": true,
          "internalType": "uint256",
          "name": "tokenId",
          "type": "uint256"
        }
      ],
      "name": "Approval",
      "type": "event"
    },
    {
      "anonymous": false,
      "inputs": [
        {
          "indexed": true,
          "internalType": "address",
          "name": "owner",
          "type": "address"
        },
        {
          "indexed": true,
          "internalType": "address",
          "name": "operator",
          "type": "address"
        },
        {
          "indexed": false,
          "internalType": "bool",
          "name": "approved",
          "type": "bool"
        }
      ],
      "name": "ApprovalForAll",
      "type": "event"
    },
    {
      "anonymous": false,
      "inputs": [
        {
          "indexed": true,
          "internalType": "address",
          "name": "delegator",
          "type": "address"
        },
        {
          "indexed": true,
          "internalType": "address",
          "name": "fromDelegate",
          "type": "address"
        },
        {
          "indexed": true,
          "internalType": "address",
          "name": "toDelegate",
          "type": "address"
        }
      ],
      "name": "DelegateChanged",
      "type": "event"
    },
    {
      "anonymous": false,
      "inputs": [
        {
          "indexed": true,
          "internalType": "address",
          "name": "delegate",
          "type": "address"
        },
        {
          "indexed": false,
          "internalType": "uint256",
          "name": "previousBalance",
          "type": "uint256"
        },
        {
          "indexed": false,
          "internalType": "uint256",
          "name": "newBalance",
          "type": "uint256"
        }
      ],
      "name": "DelegateVotesChanged",
      "type": "event"
    },
    {
      "anonymous": false,
      "inputs": [
        {
          "indexed": true,
          "internalType": "address",
          "name": "previousOwner",
          "type": "address"
        },
        {
          "indexed": true,
          "internalType": "address",
          "name": "newOwner",
          "type": "address"
        }
      ],
      "name": "OwnershipTransferred",
      "type": "event"
    },
    {
      "anonymous": false,
      "inputs": [
        {
          "indexed": false,
          "internalType": "address",
          "name": "project",
          "type": "address"
        }
      ],
      "name": "ProjectAdded",
      "type": "event"
    },
    {
      "anonymous": false,
      "inputs": [
        {
          "indexed": false,
          "internalType": "address",
          "name": "project",
          "type": "address"
        }
      ],
      "name": "ProjectRemoved",
      "type": "event"
    },
    {
      "anonymous": false,
      "inputs": [
        {
          "indexed": true,
          "internalType": "address",
          "name": "from",
          "type": "address"
        },
        {
          "indexed": true,
          "internalType": "address",
          "name": "to",
          "type": "address"
        },
        {
          "indexed": true,
          "internalType": "uint256",
          "name": "tokenId",
          "type": "uint256"
        }
      ],
      "name": "Transfer",
      "type": "event"
    },
    {
      "inputs": [],
      "name": "DOMAIN_SEPARATOR",
      "outputs": [
        {
          "internalType": "bytes32",
          "name": "",
          "type": "bytes32"
        }
      ],
      "stateMutability": "view",
      "type": "function"
    },
    {
      "inputs": [
        {
          "internalType": "address",
          "name": "project",
          "type": "address"
        }
      ],
      "name": "addProject",
      "outputs": [],
      "stateMutability": "nonpayable",
      "type": "function"
    },
    {
      "inputs": [
        {
          "internalType": "address",
          "name": "to",
          "type": "address"
        },
        {
          "internalType": "uint256",
          "name": "tokenId",
          "type": "uint256"
        }
      ],
      "name": "approve",
      "outputs": [],
      "stateMutability": "nonpayable",
      "type": "function"
    },
    {
      "inputs": [
        {
          "internalType": "address",
          "name": "",
          "type": "address"
        }
      ],
      "name": "availableProjects",
      "outputs": [
        {
          "internalType": "bool",
          "name": "",
          "type": "bool"
        }
      ],
      "stateMutability": "view",
      "type": "function"
    },
    {
      "inputs": [
        {
          "internalType": "address",
          "name": "owner",
          "type": "address"
        }
      ],
      "name": "balanceOf",
      "outputs": [
        {
          "internalType": "uint256",
          "name": "",
          "type": "uint256"
        }
      ],
      "stateMutability": "view",
      "type": "function"
    },
    {
      "inputs": [],
      "name": "contractURI",
      "outputs": [
        {
          "internalType": "string",
          "name": "",
          "type": "string"
        }
      ],
      "stateMutability": "view",
      "type": "function"
    },
    {
      "inputs": [],
      "name": "dao",
      "outputs": [
        {
          "internalType": "address",
          "name": "",
          "type": "address"
        }
      ],
      "stateMutability": "view",
      "type": "function"
    },
    {
      "inputs": [
        {
          "internalType": "address",
          "name": "delegatee",
          "type": "address"
        }
      ],
      "name": "delegate",
      "outputs": [],
      "stateMutability": "nonpayable",
      "type": "function"
    },
    {
      "inputs": [
        {
          "internalType": "address",
          "name": "delegatee",
          "type": "address"
        },
        {
          "internalType": "uint256",
          "name": "nonce",
          "type": "uint256"
        },
        {
          "internalType": "uint256",
          "name": "expiry",
          "type": "uint256"
        },
        {
          "internalType": "uint8",
          "name": "v",
          "type": "uint8"
        },
        {
          "internalType": "bytes32",
          "name": "r",
          "type": "bytes32"
        },
        {
          "internalType": "bytes32",
          "name": "s",
          "type": "bytes32"
        }
      ],
      "name": "delegateBySig",
      "outputs": [],
      "stateMutability": "nonpayable",
      "type": "function"
    },
    {
      "inputs": [
        {
          "internalType": "address",
          "name": "account",
          "type": "address"
        }
      ],
      "name": "delegates",
      "outputs": [
        {
          "internalType": "address",
          "name": "",
          "type": "address"
        }
      ],
      "stateMutability": "view",
      "type": "function"
    },
    {
      "inputs": [
        {
          "internalType": "uint256",
          "name": "tokenId",
          "type": "uint256"
        }
      ],
      "name": "getApproved",
      "outputs": [
        {
          "internalType": "address",
          "name": "",
          "type": "address"
        }
      ],
      "stateMutability": "view",
      "type": "function"
    },
    {
      "inputs": [
        {
          "internalType": "uint256",
          "name": "blockNumber",
          "type": "uint256"
        }
      ],
      "name": "getPastTotalSupply",
      "outputs": [
        {
          "internalType": "uint256",
          "name": "",
          "type": "uint256"
        }
      ],
      "stateMutability": "view",
      "type": "function"
    },
    {
      "inputs": [
        {
          "internalType": "address",
          "name": "account",
          "type": "address"
        },
        {
          "internalType": "uint256",
          "name": "blockNumber",
          "type": "uint256"
        }
      ],
      "name": "getPastVotes",
      "outputs": [
        {
          "internalType": "uint256",
          "name": "",
          "type": "uint256"
        }
      ],
      "stateMutability": "view",
      "type": "function"
    },
    {
      "inputs": [
        {
          "internalType": "address",
          "name": "account",
          "type": "address"
        }
      ],
      "name": "getVotes",
      "outputs": [
        {
          "internalType": "uint256",
          "name": "",
          "type": "uint256"
        }
      ],
      "stateMutability": "view",
      "type": "function"
    },
    {
      "inputs": [
        {
          "internalType": "address",
          "name": "_owner",
          "type": "address"
        },
        {
          "internalType": "address",
          "name": "_operator",
          "type": "address"
        }
      ],
      "name": "isApprovedForAll",
      "outputs": [
        {
          "internalType": "bool",
          "name": "isOperator",
          "type": "bool"
        }
      ],
      "stateMutability": "view",
      "type": "function"
    },
    {
      "inputs": [
        {
          "internalType": "uint256",
          "name": "trees",
          "type": "uint256"
        }
      ],
      "name": "mint",
      "outputs": [],
      "stateMutability": "payable",
      "type": "function"
    },
    {
      "inputs": [],
      "name": "name",
      "outputs": [
        {
          "internalType": "string",
          "name": "",
          "type": "string"
        }
      ],
      "stateMutability": "view",
      "type": "function"
    },
    {
      "inputs": [
        {
          "internalType": "address",
          "name": "owner",
          "type": "address"
        }
      ],
      "name": "nonces",
      "outputs": [
        {
          "internalType": "uint256",
          "name": "",
          "type": "uint256"
        }
      ],
      "stateMutability": "view",
      "type": "function"
    },
    {
      "inputs": [],
      "name": "owner",
      "outputs": [
        {
          "internalType": "address",
          "name": "",
          "type": "address"
        }
      ],
      "stateMutability": "view",
      "type": "function"
    },
    {
      "inputs": [
        {
          "internalType": "uint256",
          "name": "tokenId",
          "type": "uint256"
        }
      ],
      "name": "ownerOf",
      "outputs": [
        {
          "internalType": "address",
          "name": "",
          "type": "address"
        }
      ],
      "stateMutability": "view",
      "type": "function"
    },
    {
      "inputs": [
        {
          "internalType": "address",
          "name": "project",
          "type": "address"
        }
      ],
      "name": "removeProject",
      "outputs": [],
      "stateMutability": "nonpayable",
      "type": "function"
    },
    {
      "inputs": [],
      "name": "renounceOwnership",
      "outputs": [],
      "stateMutability": "nonpayable",
      "type": "function"
    },
    {
      "inputs": [
        {
          "internalType": "uint256",
          "name": "",
          "type": "uint256"
        },
        {
          "internalType": "uint256",
          "name": "amount",
          "type": "uint256"
        }
      ],
      "name": "royaltyInfo",
      "outputs": [
        {
          "internalType": "address",
          "name": "",
          "type": "address"
        },
        {
          "internalType": "uint256",
          "name": "",
          "type": "uint256"
        }
      ],
      "stateMutability": "view",
      "type": "function"
    },
    {
      "inputs": [
        {
          "internalType": "address",
          "name": "from",
          "type": "address"
        },
        {
          "internalType": "address",
          "name": "to",
          "type": "address"
        },
        {
          "internalType": "uint256",
          "name": "tokenId",
          "type": "uint256"
        }
      ],
      "name": "safeTransferFrom",
      "outputs": [],
      "stateMutability": "nonpayable",
      "type": "function"
    },
    {
      "inputs": [
        {
          "internalType": "address",
          "name": "from",
          "type": "address"
        },
        {
          "internalType": "address",
          "name": "to",
          "type": "address"
        },
        {
          "internalType": "uint256",
          "name": "tokenId",
          "type": "uint256"
        },
        {
          "internalType": "bytes",
          "name": "_data",
          "type": "bytes"
        }
      ],
      "name": "safeTransferFrom",
      "outputs": [],
      "stateMutability": "nonpayable",
      "type": "function"
    },
    {
      "inputs": [
        {
          "internalType": "address",
          "name": "operator",
          "type": "address"
        },
        {
          "internalType": "bool",
          "name": "approved",
          "type": "bool"
        }
      ],
      "name": "setApprovalForAll",
      "outputs": [],
      "stateMutability": "nonpayable",
      "type": "function"
    },
    {
      "inputs": [
        {
          "internalType": "string",
          "name": "newContractURI",
          "type": "string"
        }
      ],
      "name": "setContractURI",
      "outputs": [],
      "stateMutability": "nonpayable",
      "type": "function"
    },
    {
      "inputs": [
        {
          "internalType": "address",
          "name": "newDaoAddress",
          "type": "address"
        }
      ],
      "name": "setDao",
      "outputs": [],
      "stateMutability": "nonpayable",
      "type": "function"
    },
    {
      "inputs": [
        {
          "internalType": "uint256",
          "name": "newUnitPrice",
          "type": "uint256"
        }
      ],
      "name": "setTreeEquivalentUnitPrice",
      "outputs": [],
      "stateMutability": "nonpayable",
      "type": "function"
    },
    {
      "inputs": [
        {
          "internalType": "bytes4",
          "name": "interfaceId",
          "type": "bytes4"
        }
      ],
      "name": "supportsInterface",
      "outputs": [
        {
          "internalType": "bool",
          "name": "",
          "type": "bool"
        }
      ],
      "stateMutability": "view",
      "type": "function"
    },
    {
      "inputs": [],
      "name": "symbol",
      "outputs": [
        {
          "internalType": "string",
          "name": "",
          "type": "string"
        }
      ],
      "stateMutability": "view",
      "type": "function"
    },
    {
      "inputs": [
        {
          "internalType": "uint256",
          "name": "index",
          "type": "uint256"
        }
      ],
      "name": "tokenByIndex",
      "outputs": [
        {
          "internalType": "uint256",
          "name": "",
          "type": "uint256"
        }
      ],
      "stateMutability": "view",
      "type": "function"
    },
    {
      "inputs": [
        {
          "internalType": "address",
          "name": "owner",
          "type": "address"
        },
        {
          "internalType": "uint256",
          "name": "index",
          "type": "uint256"
        }
      ],
      "name": "tokenOfOwnerByIndex",
      "outputs": [
        {
          "internalType": "uint256",
          "name": "",
          "type": "uint256"
        }
      ],
      "stateMutability": "view",
      "type": "function"
    },
    {
      "inputs": [
        {
          "internalType": "uint256",
          "name": "tokenId",
          "type": "uint256"
        }
      ],
      "name": "tokenURI",
      "outputs": [
        {
          "internalType": "string",
          "name": "",
          "type": "string"
        }
      ],
      "stateMutability": "view",
      "type": "function"
    },
    {
      "inputs": [],
      "name": "totalSupply",
      "outputs": [
        {
          "internalType": "uint256",
          "name": "",
          "type": "uint256"
        }
      ],
      "stateMutability": "view",
      "type": "function"
    },
    {
      "inputs": [
        {
          "internalType": "address",
          "name": "from",
          "type": "address"
        },
        {
          "internalType": "address",
          "name": "to",
          "type": "address"
        },
        {
          "internalType": "uint256",
          "name": "tokenId",
          "type": "uint256"
        }
      ],
      "name": "transferFrom",
      "outputs": [],
      "stateMutability": "nonpayable",
      "type": "function"
    },
    {
      "inputs": [
        {
          "internalType": "address",
          "name": "newOwner",
          "type": "address"
        }
      ],
      "name": "transferOwnership",
      "outputs": [],
      "stateMutability": "nonpayable",
      "type": "function"
    },
    {
      "inputs": [],
      "name": "unitPrice",
      "outputs": [
        {
          "internalType": "uint256",
          "name": "",
          "type": "uint256"
        }
      ],
      "stateMutability": "view",
      "type": "function"
    },
    {
      "inputs": [],
      "name": "withdraw",
      "outputs": [],
      "stateMutability": "nonpayable",
      "type": "function"
    },
    {
      "inputs": [
        {
          "internalType": "contract IERC20",
          "name": "_erc20Token",
          "type": "address"
        }
      ],
      "name": "withdrawERC20",
      "outputs": [],
      "stateMutability": "nonpayable",
      "type": "function"
    }
  ],
  "bytecode": "0x610140604052662386f26fc100006011553480156200001d57600080fd5b5060405162003b7b38038062003b7b833981016040819052620000409162000333565b6040518060400160405280600d81526020016c26b4b73a2a3932b2aa37b5b2b760991b815250604051806040016040528060018152602001603160f81b8152506040518060400160405280600d81526020016c26b4b73a2a3932b2aa37b5b2b760991b81525060405180604001604052806003815260200162134cd560ea1b8152508160009080519060200190620000da9291906200025a565b508051620000f09060019060208401906200025a565b5050506200010d620001076200020460201b60201c565b62000208565b815160208084019190912082518383012060e08290526101008190524660a0818152604080517f8b73c3c69bb8fe3d512ecc4cf759cc79239f7b179b0ffacaa9a75d522b39400f81880181905281830187905260608201869052608082019490945230818401528151808203909301835260c00190528051940193909320919290916080523060c0526101205250508451620001b392506013915060208601906200025a565b506001600160a01b03821615620001cf57620001cf8262000208565b6001600160a01b03811615620001fb57601280546001600160a01b0319166001600160a01b0383161790555b50505062000472565b3390565b600a80546001600160a01b038381166001600160a01b0319831681179093556040519116919082907f8be0079c531659141344cd1fd0a4f28419497f9722a3daafe3b4186f6b6457e090600090a35050565b828054620002689062000436565b90600052602060002090601f0160209004810192826200028c5760008555620002d7565b82601f10620002a757805160ff1916838001178555620002d7565b82800160010185558215620002d7579182015b82811115620002d7578251825591602001919060010190620002ba565b50620002e5929150620002e9565b5090565b5b80821115620002e55760008155600101620002ea565b634e487b7160e01b600052604160045260246000fd5b80516001600160a01b03811681146200032e57600080fd5b919050565b6000806000606084860312156200034957600080fd5b83516001600160401b03808211156200036157600080fd5b818601915086601f8301126200037657600080fd5b8151818111156200038b576200038b62000300565b604051601f8201601f19908116603f01168101908382118183101715620003b657620003b662000300565b81604052828152602093508984848701011115620003d357600080fd5b600091505b82821015620003f75784820184015181830185015290830190620003d8565b82821115620004095760008484830101525b96506200041b91505086820162000316565b935050506200042d6040850162000316565b90509250925092565b600181811c908216806200044b57607f821691505b6020821081036200046c57634e487b7160e01b600052602260045260246000fd5b50919050565b60805160a05160c05160e05161010051610120516136b9620004c26000396000611cb901526000611d0801526000611ce301526000611c3c01526000611c6601526000611c9001526136b96000f3fe6080604052600436106102bb5760003560e01c8063715018a61161016e578063b88d4fde116100cb578063e8a3d4851161007f578063f2fde38b11610064578063f2fde38b14610788578063f4f3b200146107a8578063fb8edc4f146107c857600080fd5b8063e8a3d48514610753578063e985e9c51461076857600080fd5b8063c87b56dd116100b0578063c87b56dd146106ed578063ceded8d21461070d578063e73faa2d1461073d57600080fd5b8063b88d4fde146106ad578063c3cda520146106cd57600080fd5b8063938e3d7b116101225780639ab24eb0116101075780639ab24eb01461065a578063a0712d681461067a578063a22cb4651461068d57600080fd5b8063938e3d7b1461062557806395d89b411461064557600080fd5b80637ecebe00116101535780637ecebe00146105c75780638da5cb5b146105e75780638e539e8c1461060557600080fd5b8063715018a6146105925780637c56b798146105a757600080fd5b80633a46b1a81161021c578063587cde1e116101d05780636352211e116101b55780636352211e146105325780636637b8821461055257806370a082311461057257600080fd5b8063587cde1e146104d95780635c19a95c1461051257600080fd5b80634162169f116102015780634162169f1461047957806342842e0e146104995780634f6ccce7146104b957600080fd5b80633a46b1a8146104445780633ccfd60b1461046457600080fd5b806318160ddd116102735780632a55205a116102585780632a55205a146103d05780632f745c591461040f5780633644e5151461042f57600080fd5b806318160ddd1461039157806323b872dd146103b057600080fd5b8063081812fc116102a4578063081812fc14610317578063095ea7b31461034f5780630c0ad2991461037157600080fd5b806301ffc9a7146102c057806306fdde03146102f5575b600080fd5b3480156102cc57600080fd5b506102e06102db3660046130af565b6107e8565b60405190151581526020015b60405180910390f35b34801561030157600080fd5b5061030a61082c565b6040516102ec9190613124565b34801561032357600080fd5b50610337610332366004613137565b6108be565b6040516001600160a01b0390911681526020016102ec565b34801561035b57600080fd5b5061036f61036a366004613165565b610969565b005b34801561037d57600080fd5b5061036f61038c366004613191565b610a9a565b34801561039d57600080fd5b506008545b6040519081526020016102ec565b3480156103bc57600080fd5b5061036f6103cb3660046131ae565b610b85565b3480156103dc57600080fd5b506103f06103eb3660046131ef565b610c0c565b604080516001600160a01b0390931683526020830191909152016102ec565b34801561041b57600080fd5b506103a261042a366004613165565b610c56565b34801561043b57600080fd5b506103a2610cfe565b34801561045057600080fd5b506103a261045f366004613165565b610d0d565b34801561047057600080fd5b5061036f610d36565b34801561048557600080fd5b50601254610337906001600160a01b031681565b3480156104a557600080fd5b5061036f6104b43660046131ae565b610d72565b3480156104c557600080fd5b506103a26104d4366004613137565b610d8d565b3480156104e557600080fd5b506103376104f4366004613191565b6001600160a01b039081166000908152600b60205260409020541690565b34801561051e57600080fd5b5061036f61052d366004613191565b610e31565b34801561053e57600080fd5b5061033761054d366004613137565b610e40565b34801561055e57600080fd5b5061036f61056d366004613191565b610ecb565b34801561057e57600080fd5b506103a261058d366004613191565b610f54565b34801561059e57600080fd5b5061036f610fee565b3480156105b357600080fd5b5061036f6105c2366004613191565b611054565b3480156105d357600080fd5b506103a26105e2366004613191565b61113e565b3480156105f357600080fd5b50600a546001600160a01b0316610337565b34801561061157600080fd5b506103a2610620366004613137565b61115c565b34801561063157600080fd5b5061036f610640366004613211565b6111b8565b34801561065157600080fd5b5061030a61121e565b34801561066657600080fd5b506103a2610675366004613191565b61122d565b61036f610688366004613137565b61124e565b34801561069957600080fd5b5061036f6106a8366004613291565b6112d1565b3480156106b957600080fd5b5061036f6106c83660046132e0565b6112dc565b3480156106d957600080fd5b5061036f6106e83660046133c0565b61136a565b3480156106f957600080fd5b5061030a610708366004613137565b6114a0565b34801561071957600080fd5b506102e0610728366004613191565b60106020526000908152604090205460ff1681565b34801561074957600080fd5b506103a260115481565b34801561075f57600080fd5b5061030a611588565b34801561077457600080fd5b506102e0610783366004613422565b611616565b34801561079457600080fd5b5061036f6107a3366004613191565b611666565b3480156107b457600080fd5b5061036f6107c3366004613191565b611745565b3480156107d457600080fd5b5061036f6107e3366004613137565b611844565b60006001600160e01b031982167f2a55205a0000000000000000000000000000000000000000000000000000000014806108265750610826826118a3565b92915050565b60606000805461083b90613450565b80601f016020809104026020016040519081016040528092919081815260200182805461086790613450565b80156108b45780601f10610889576101008083540402835291602001916108b4565b820191906000526020600020905b81548152906001019060200180831161089757829003601f168201915b5050505050905090565b6000818152600260205260408120546001600160a01b031661094d5760405162461bcd60e51b815260206004820152602c60248201527f4552433732313a20617070726f76656420717565727920666f72206e6f6e657860448201527f697374656e7420746f6b656e000000000000000000000000000000000000000060648201526084015b60405180910390fd5b506000908152600460205260409020546001600160a01b031690565b600061097482610e40565b9050806001600160a01b0316836001600160a01b0316036109fd5760405162461bcd60e51b815260206004820152602160248201527f4552433732313a20617070726f76616c20746f2063757272656e74206f776e6560448201527f72000000000000000000000000000000000000000000000000000000000000006064820152608401610944565b336001600160a01b0382161480610a195750610a198133611616565b610a8b5760405162461bcd60e51b815260206004820152603860248201527f4552433732313a20617070726f76652063616c6c6572206973206e6f74206f7760448201527f6e6572206e6f7220617070726f76656420666f7220616c6c00000000000000006064820152608401610944565b610a9583836118e1565b505050565b6012546001600160a01b03163314610b1a5760405162461bcd60e51b815260206004820152602160248201527f4d696e742074726565733a2063616c6c6572206973206e6f742074686520444160448201527f4f000000000000000000000000000000000000000000000000000000000000006064820152608401610944565b6001600160a01b0381166000908152601060205260408120805460ff19169055610b459082906112d1565b6040516001600160a01b03821681527f6c2a7bedc1e997c07f41aff265f8b77df645943615e2b039fb2b1f2be37b67da906020015b60405180910390a150565b610b8f338261195c565b610c015760405162461bcd60e51b815260206004820152603160248201527f4552433732313a207472616e736665722063616c6c6572206973206e6f74206f60448201527f776e6572206e6f7220617070726f7665640000000000000000000000000000006064820152608401610944565b610a95838383611a44565b60125460009081906001600160a01b031680610c305750600a546001600160a01b03165b80612710610c40866101f461349a565b610c4a91906134cf565b92509250509250929050565b6000610c6183610f54565b8210610cd55760405162461bcd60e51b815260206004820152602b60248201527f455243373231456e756d657261626c653a206f776e657220696e646578206f7560448201527f74206f6620626f756e64730000000000000000000000000000000000000000006064820152608401610944565b506001600160a01b03919091166000908152600660209081526040808320938352929052205490565b6000610d08611c2f565b905090565b6001600160a01b0382166000908152600c60205260408120610d2f9083611d56565b9392505050565b6012546040516001600160a01b03909116904780156108fc02916000818181858888f19350505050158015610d6f573d6000803e3d6000fd5b50565b610a95838383604051806020016040528060008152506112dc565b6000610d9860085490565b8210610e0c5760405162461bcd60e51b815260206004820152602c60248201527f455243373231456e756d657261626c653a20676c6f62616c20696e646578206f60448201527f7574206f6620626f756e647300000000000000000000000000000000000000006064820152608401610944565b60088281548110610e1f57610e1f6134e3565b90600052602060002001549050919050565b33610e3c8183611e65565b5050565b6000818152600260205260408120546001600160a01b0316806108265760405162461bcd60e51b815260206004820152602960248201527f4552433732313a206f776e657220717565727920666f72206e6f6e657869737460448201527f656e7420746f6b656e00000000000000000000000000000000000000000000006064820152608401610944565b600a546001600160a01b03163314610f255760405162461bcd60e51b815260206004820181905260248201527f4f776e61626c653a2063616c6c6572206973206e6f7420746865206f776e65726044820152606401610944565b6012805473ffffffffffffffffffffffffffffffffffffffff19166001600160a01b0392909216919091179055565b60006001600160a01b038216610fd25760405162461bcd60e51b815260206004820152602a60248201527f4552433732313a2062616c616e636520717565727920666f7220746865207a6560448201527f726f2061646472657373000000000000000000000000000000000000000000006064820152608401610944565b506001600160a01b031660009081526003602052604090205490565b600a546001600160a01b031633146110485760405162461bcd60e51b815260206004820181905260248201527f4f776e61626c653a2063616c6c6572206973206e6f7420746865206f776e65726044820152606401610944565b6110526000611ee4565b565b6012546001600160a01b031633146110d45760405162461bcd60e51b815260206004820152602160248201527f4d696e742074726565733a2063616c6c6572206973206e6f742074686520444160448201527f4f000000000000000000000000000000000000000000000000000000000000006064820152608401610944565b6001600160a01b0381166000908152601060205260409020805460ff191660019081179091556111059082906112d1565b6040516001600160a01b03821681527ff4ddd4a01f076935f5636676ad00367a07143bf5c2d36bdb7522b7c37a0e01e690602001610b7a565b6001600160a01b0381166000908152600e6020526040812054610826565b60004382106111ad5760405162461bcd60e51b815260206004820152601a60248201527f566f7465733a20626c6f636b206e6f7420796574206d696e65640000000000006044820152606401610944565b610826600d83611d56565b600a546001600160a01b031633146112125760405162461bcd60e51b815260206004820181905260248201527f4f776e61626c653a2063616c6c6572206973206e6f7420746865206f776e65726044820152606401610944565b610a9560138383613009565b60606001805461083b90613450565b6001600160a01b0381166000908152600c6020526040812061082690611f43565b808060115461125d919061349a565b3410156112ac5760405162461bcd60e51b815260206004820152601760248201527f4d696e742074726565733a2062656c6f772070726963650000000000000000006044820152606401610944565b60006112b7600f5490565b90506112c7600f80546001019055565b610a953382611f9f565b610e3c338383612102565b6112e6338361195c565b6113585760405162461bcd60e51b815260206004820152603160248201527f4552433732313a207472616e736665722063616c6c6572206973206e6f74206f60448201527f776e6572206e6f7220617070726f7665640000000000000000000000000000006064820152608401610944565b611364848484846121d0565b50505050565b834211156113ba5760405162461bcd60e51b815260206004820152601860248201527f566f7465733a207369676e6174757265206578706972656400000000000000006044820152606401610944565b604080517fe48329057bfd03d55e49b547132e39cffd9c1820ad7b9d4c5307691425d15adf60208201526001600160a01b0388169181019190915260608101869052608081018590526000906114349061142c9060a00160405160208183030381529060405280519060200120612259565b8585856122c2565b905061143f816122ea565b861461148d5760405162461bcd60e51b815260206004820152601460248201527f566f7465733a20696e76616c6964206e6f6e63650000000000000000000000006044820152606401610944565b6114978188611e65565b50505050505050565b6000818152600260205260409020546060906001600160a01b031661152d5760405162461bcd60e51b815260206004820152602f60248201527f4552433732314d657461646174613a2055524920717565727920666f72206e6f60448201527f6e6578697374656e7420746f6b656e00000000000000000000000000000000006064820152608401610944565b6000611537612312565b905060008151116115575760405180602001604052806000815250610d2f565b8061156184612332565b6040516020016115729291906134f9565b6040516020818303038152906040529392505050565b6013805461159590613450565b80601f01602080910402602001604051908101604052809291908181526020018280546115c190613450565b801561160e5780601f106115e35761010080835404028352916020019161160e565b820191906000526020600020905b8154815290600101906020018083116115f157829003601f168201915b505050505081565b6001600160a01b03811660009081526010602052604081205460ff1680610d2f57506001600160a01b0380841660009081526005602090815260408083209386168352929052205460ff16610d2f565b600a546001600160a01b031633146116c05760405162461bcd60e51b815260206004820181905260248201527f4f776e61626c653a2063616c6c6572206973206e6f7420746865206f776e65726044820152606401610944565b6001600160a01b03811661173c5760405162461bcd60e51b815260206004820152602660248201527f4f776e61626c653a206e6577206f776e657220697320746865207a65726f206160448201527f64647265737300000000000000000000000000000000000000000000000000006064820152608401610944565b610d6f81611ee4565b6012546040517f70a082310000000000000000000000000000000000000000000000000000000081523060048201526001600160a01b038381169263a9059cbb9291169083906370a0823190602401602060405180830381865afa1580156117b1573d6000803e3d6000fd5b505050506040513d601f19601f820116820180604052508101906117d59190613528565b6040516001600160e01b031960e085901b1681526001600160a01b03909216600483015260248201526044016020604051808303816000875af1158015611820573d6000803e3d6000fd5b505050506040513d601f19601f82011682018060405250810190610e3c9190613541565b600a546001600160a01b0316331461189e5760405162461bcd60e51b815260206004820181905260248201527f4f776e61626c653a2063616c6c6572206973206e6f7420746865206f776e65726044820152606401610944565b601155565b60006001600160e01b031982167f780e9d63000000000000000000000000000000000000000000000000000000001480610826575061082682612467565b6000818152600460205260409020805473ffffffffffffffffffffffffffffffffffffffff19166001600160a01b038416908117909155819061192382610e40565b6001600160a01b03167f8c5be1e5ebec7d5bd14f71427d1e84f3dd0314c0f7b2291e5b200ac8c7c3b92560405160405180910390a45050565b6000818152600260205260408120546001600160a01b03166119e65760405162461bcd60e51b815260206004820152602c60248201527f4552433732313a206f70657261746f7220717565727920666f72206e6f6e657860448201527f697374656e7420746f6b656e00000000000000000000000000000000000000006064820152608401610944565b60006119f183610e40565b9050806001600160a01b0316846001600160a01b03161480611a185750611a188185611616565b80611a3c5750836001600160a01b0316611a31846108be565b6001600160a01b0316145b949350505050565b826001600160a01b0316611a5782610e40565b6001600160a01b031614611ad35760405162461bcd60e51b815260206004820152602560248201527f4552433732313a207472616e736665722066726f6d20696e636f72726563742060448201527f6f776e65720000000000000000000000000000000000000000000000000000006064820152608401610944565b6001600160a01b038216611b4e5760405162461bcd60e51b8152602060048201526024808201527f4552433732313a207472616e7366657220746f20746865207a65726f2061646460448201527f72657373000000000000000000000000000000000000000000000000000000006064820152608401610944565b611b59838383612502565b611b646000826118e1565b6001600160a01b0383166000908152600360205260408120805460019290611b8d90849061355e565b90915550506001600160a01b0382166000908152600360205260408120805460019290611bbb908490613575565b9091555050600081815260026020526040808220805473ffffffffffffffffffffffffffffffffffffffff19166001600160a01b0386811691821790925591518493918716917fddf252ad1be2c89b69c2b068fc378daa952ba7f163c4a11628f55a4df523b3ef91a4610a9583838361250d565b6000306001600160a01b037f000000000000000000000000000000000000000000000000000000000000000016148015611c8857507f000000000000000000000000000000000000000000000000000000000000000046145b15611cb257507f000000000000000000000000000000000000000000000000000000000000000090565b50604080517f00000000000000000000000000000000000000000000000000000000000000006020808301919091527f0000000000000000000000000000000000000000000000000000000000000000828401527f000000000000000000000000000000000000000000000000000000000000000060608301524660808301523060a0808401919091528351808403909101815260c0909201909252805191012090565b6000438210611da75760405162461bcd60e51b815260206004820181905260248201527f436865636b706f696e74733a20626c6f636b206e6f7420796574206d696e65646044820152606401610944565b825460005b81811015611e0c576000611dc08284612518565b905084866000018281548110611dd857611dd86134e3565b60009182526020909120015463ffffffff161115611df857809250611e06565b611e03816001613575565b91505b50611dac565b8115611e505784611e1e60018461355e565b81548110611e2e57611e2e6134e3565b60009182526020909120015464010000000090046001600160e01b0316611e53565b60005b6001600160e01b031695945050505050565b6001600160a01b038281166000818152600b6020526040808220805486861673ffffffffffffffffffffffffffffffffffffffff19821681179092559151919094169392849290917f3134e8a2e6d97e929a7e54011ea5485d7d196dd5f0ba4d4ef95803e8e3fc257f9190a4610a958183611edf86612533565b61253e565b600a80546001600160a01b0383811673ffffffffffffffffffffffffffffffffffffffff19831681179093556040519116919082907f8be0079c531659141344cd1fd0a4f28419497f9722a3daafe3b4186f6b6457e090600090a35050565b80546000908015611f8c5782611f5a60018361355e565b81548110611f6a57611f6a6134e3565b60009182526020909120015464010000000090046001600160e01b0316611f8f565b60005b6001600160e01b03169392505050565b6001600160a01b038216611ff55760405162461bcd60e51b815260206004820181905260248201527f4552433732313a206d696e7420746f20746865207a65726f20616464726573736044820152606401610944565b6000818152600260205260409020546001600160a01b03161561205a5760405162461bcd60e51b815260206004820152601c60248201527f4552433732313a20746f6b656e20616c7265616479206d696e746564000000006044820152606401610944565b61206660008383612502565b6001600160a01b038216600090815260036020526040812080546001929061208f908490613575565b9091555050600081815260026020526040808220805473ffffffffffffffffffffffffffffffffffffffff19166001600160a01b03861690811790915590518392907fddf252ad1be2c89b69c2b068fc378daa952ba7f163c4a11628f55a4df523b3ef908290a4610e3c6000838361250d565b816001600160a01b0316836001600160a01b0316036121635760405162461bcd60e51b815260206004820152601960248201527f4552433732313a20617070726f766520746f2063616c6c6572000000000000006044820152606401610944565b6001600160a01b03838116600081815260056020908152604080832094871680845294825291829020805460ff191686151590811790915591519182527f17307eab39ab6107e8899845ad3d59bd9653f200f220920489ca2b5937696c31910160405180910390a3505050565b6121db848484611a44565b6121e78484848461267b565b6113645760405162461bcd60e51b815260206004820152603260248201527f4552433732313a207472616e7366657220746f206e6f6e20455243373231526560448201527f63656976657220696d706c656d656e74657200000000000000000000000000006064820152608401610944565b6000610826612266611c2f565b836040517f19010000000000000000000000000000000000000000000000000000000000006020820152602281018390526042810182905260009060620160405160208183030381529060405280519060200120905092915050565b60008060006122d387878787612801565b915091506122e0816128ee565b5095945050505050565b6001600160a01b0381166000908152600e602052604090208054600181018255905b50919050565b606060405180608001604052806043815260200161364160439139905090565b60608160000361237557505060408051808201909152600181527f3000000000000000000000000000000000000000000000000000000000000000602082015290565b8160005b811561239f57806123898161358d565b91506123989050600a836134cf565b9150612379565b60008167ffffffffffffffff8111156123ba576123ba6132ca565b6040519080825280601f01601f1916602001820160405280156123e4576020820181803683370190505b5090505b8415611a3c576123f960018361355e565b9150612406600a866135a7565b612411906030613575565b60f81b818381518110612426576124266134e3565b60200101907effffffffffffffffffffffffffffffffffffffffffffffffffffffffffffff1916908160001a905350612460600a866134cf565b94506123e8565b60006001600160e01b031982167f80ac58cd0000000000000000000000000000000000000000000000000000000014806124ca57506001600160e01b031982167f5b5e139f00000000000000000000000000000000000000000000000000000000145b8061082657507f01ffc9a7000000000000000000000000000000000000000000000000000000006001600160e01b0319831614610826565b610a95838383612ada565b610a95838383612b92565b600061252760028484186134cf565b610d2f90848416613575565b600061082682610f54565b816001600160a01b0316836001600160a01b0316141580156125605750600081115b15610a95576001600160a01b038316156125ee576001600160a01b0383166000908152600c60205260408120819061259b90612b9e85612baa565b91509150846001600160a01b03167fdec2bacdd2f05b59de34da9b523dff8be42e5e38e818c82fdb0bae774387a72483836040516125e3929190918252602082015260400190565b60405180910390a250505b6001600160a01b03821615610a95576001600160a01b0382166000908152600c60205260408120819061262490612bd885612baa565b91509150836001600160a01b03167fdec2bacdd2f05b59de34da9b523dff8be42e5e38e818c82fdb0bae774387a724838360405161266c929190918252602082015260400190565b60405180910390a25050505050565b60006001600160a01b0384163b156127f9576040517f150b7a020000000000000000000000000000000000000000000000000000000081526001600160a01b0385169063150b7a02906126d89033908990889088906004016135bb565b6020604051808303816000875af1925050508015612713575060408051601f3d908101601f19168201909252612710918101906135f7565b60015b6127c6573d808015612741576040519150601f19603f3d011682016040523d82523d6000602084013e612746565b606091505b5080516000036127be5760405162461bcd60e51b815260206004820152603260248201527f4552433732313a207472616e7366657220746f206e6f6e20455243373231526560448201527f63656976657220696d706c656d656e74657200000000000000000000000000006064820152608401610944565b805181602001fd5b6001600160e01b0319167f150b7a0200000000000000000000000000000000000000000000000000000000149050611a3c565b506001611a3c565b6000807f7fffffffffffffffffffffffffffffff5d576e7357a4501ddfe92f46681b20a083111561283857506000905060036128e5565b8460ff16601b1415801561285057508460ff16601c14155b1561286157506000905060046128e5565b6040805160008082526020820180845289905260ff881692820192909252606081018690526080810185905260019060a0016020604051602081039080840390855afa1580156128b5573d6000803e3d6000fd5b5050604051601f1901519150506001600160a01b0381166128de576000600192509250506128e5565b9150600090505b94509492505050565b600081600481111561290257612902613614565b0361290a5750565b600181600481111561291e5761291e613614565b0361296b5760405162461bcd60e51b815260206004820152601860248201527f45434453413a20696e76616c6964207369676e617475726500000000000000006044820152606401610944565b600281600481111561297f5761297f613614565b036129cc5760405162461bcd60e51b815260206004820152601f60248201527f45434453413a20696e76616c6964207369676e6174757265206c656e677468006044820152606401610944565b60038160048111156129e0576129e0613614565b03612a535760405162461bcd60e51b815260206004820152602260248201527f45434453413a20696e76616c6964207369676e6174757265202773272076616c60448201527f75650000000000000000000000000000000000000000000000000000000000006064820152608401610944565b6004816004811115612a6757612a67613614565b03610d6f5760405162461bcd60e51b815260206004820152602260248201527f45434453413a20696e76616c6964207369676e6174757265202776272076616c60448201527f75650000000000000000000000000000000000000000000000000000000000006064820152608401610944565b6001600160a01b038316612b3557612b3081600880546000838152600960205260408120829055600182018355919091527ff3f7a9fe364faab93b216da50a3214154f22a0a2b415b23a84c8169e8b636ee30155565b612b58565b816001600160a01b0316836001600160a01b031614612b5857612b588382612be4565b6001600160a01b038216612b6f57610a9581612c81565b826001600160a01b0316826001600160a01b031614610a9557610a958282612d30565b610a9583836001612d74565b6000610d2f828461355e565b600080612bcc85612bc7612bbd88611f43565b868863ffffffff16565b612de4565b91509150935093915050565b6000610d2f8284613575565b60006001612bf184610f54565b612bfb919061355e565b600083815260076020526040902054909150808214612c4e576001600160a01b03841660009081526006602090815260408083208584528252808320548484528184208190558352600790915290208190555b5060009182526007602090815260408084208490556001600160a01b039094168352600681528383209183525290812055565b600854600090612c939060019061355e565b60008381526009602052604081205460088054939450909284908110612cbb57612cbb6134e3565b906000526020600020015490508060088381548110612cdc57612cdc6134e3565b6000918252602080832090910192909255828152600990915260408082208490558582528120556008805480612d1457612d1461362a565b6001900381819060005260206000200160009055905550505050565b6000612d3b83610f54565b6001600160a01b039093166000908152600660209081526040808320868452825280832085905593825260079052919091209190915550565b6001600160a01b038316612d9357612d90600d612bd883612baa565b50505b6001600160a01b038216612db257612daf600d612b9e83612baa565b50505b6001600160a01b038381166000908152600b6020526040808220548584168352912054610a959291821691168361253e565b8154600090819081612df586611f43565b9050600082118015612e3357504386612e0f60018561355e565b81548110612e1f57612e1f6134e3565b60009182526020909120015463ffffffff16145b15612e9357612e4185612f0a565b86612e4d60018561355e565b81548110612e5d57612e5d6134e3565b9060005260206000200160000160046101000a8154816001600160e01b0302191690836001600160e01b03160217905550612f01565b856000016040518060400160405280612eab43612f8d565b63ffffffff168152602001612ebf88612f0a565b6001600160e01b0390811690915282546001810184556000938452602093849020835194909301519091166401000000000263ffffffff909316929092179101555b95939450505050565b60006001600160e01b03821115612f895760405162461bcd60e51b815260206004820152602760248201527f53616665436173743a2076616c756520646f65736e27742066697420696e203260448201527f32342062697473000000000000000000000000000000000000000000000000006064820152608401610944565b5090565b600063ffffffff821115612f895760405162461bcd60e51b815260206004820152602660248201527f53616665436173743a2076616c756520646f65736e27742066697420696e203360448201527f32206269747300000000000000000000000000000000000000000000000000006064820152608401610944565b82805461301590613450565b90600052602060002090601f016020900481019282613037576000855561307d565b82601f106130505782800160ff1982351617855561307d565b8280016001018555821561307d579182015b8281111561307d578235825591602001919060010190613062565b50612f899291505b80821115612f895760008155600101613085565b6001600160e01b031981168114610d6f57600080fd5b6000602082840312156130c157600080fd5b8135610d2f81613099565b60005b838110156130e75781810151838201526020016130cf565b838111156113645750506000910152565b600081518084526131108160208601602086016130cc565b601f01601f19169290920160200192915050565b602081526000610d2f60208301846130f8565b60006020828403121561314957600080fd5b5035919050565b6001600160a01b0381168114610d6f57600080fd5b6000806040838503121561317857600080fd5b823561318381613150565b946020939093013593505050565b6000602082840312156131a357600080fd5b8135610d2f81613150565b6000806000606084860312156131c357600080fd5b83356131ce81613150565b925060208401356131de81613150565b929592945050506040919091013590565b6000806040838503121561320257600080fd5b50508035926020909101359150565b6000806020838503121561322457600080fd5b823567ffffffffffffffff8082111561323c57600080fd5b818501915085601f83011261325057600080fd5b81358181111561325f57600080fd5b86602082850101111561327157600080fd5b60209290920196919550909350505050565b8015158114610d6f57600080fd5b600080604083850312156132a457600080fd5b82356132af81613150565b915060208301356132bf81613283565b809150509250929050565b634e487b7160e01b600052604160045260246000fd5b600080600080608085870312156132f657600080fd5b843561330181613150565b9350602085013561331181613150565b925060408501359150606085013567ffffffffffffffff8082111561333557600080fd5b818701915087601f83011261334957600080fd5b81358181111561335b5761335b6132ca565b604051601f8201601f19908116603f01168101908382118183101715613383576133836132ca565b816040528281528a602084870101111561339c57600080fd5b82602086016020830137600060208483010152809550505050505092959194509250565b60008060008060008060c087890312156133d957600080fd5b86356133e481613150565b95506020870135945060408701359350606087013560ff8116811461340857600080fd5b9598949750929560808101359460a0909101359350915050565b6000806040838503121561343557600080fd5b823561344081613150565b915060208301356132bf81613150565b600181811c9082168061346457607f821691505b60208210810361230c57634e487b7160e01b600052602260045260246000fd5b634e487b7160e01b600052601160045260246000fd5b60008160001904831182151516156134b4576134b4613484565b500290565b634e487b7160e01b600052601260045260246000fd5b6000826134de576134de6134b9565b500490565b634e487b7160e01b600052603260045260246000fd5b6000835161350b8184602088016130cc565b83519083019061351f8183602088016130cc565b01949350505050565b60006020828403121561353a57600080fd5b5051919050565b60006020828403121561355357600080fd5b8151610d2f81613283565b60008282101561357057613570613484565b500390565b6000821982111561358857613588613484565b500190565b600060001982036135a0576135a0613484565b5060010190565b6000826135b6576135b66134b9565b500690565b60006001600160a01b038087168352808616602084015250836040830152608060608301526135ed60808301846130f8565b9695505050505050565b60006020828403121561360957600080fd5b8151610d2f81613099565b634e487b7160e01b600052602160045260246000fd5b634e487b7160e01b600052603160045260246000fdfe697066733a2f2f6261667962656962756d746b6335646e326775626f6e33717933627932326b68357a73697461336f35787a6777776b3733696d6b733336376376612fa2646970667358221220bb0c0c404eb8f7f402fb3ce41b698487a5903981944460c32918b3462a31019064736f6c634300080e0033",
  "linkReferences": {},
  "deployedLinkReferences": {}
}