{
  "_format": "hh-sol-artifact-1",
  "contractName": "MintTreeToken",
  "sourceName": "contracts/MintTreeToken.sol",
  "abi": [
    {
      "inputs": [
        {
          "internalType": "string",
          "name": "_contractURI",
          "type": "string"
        },
        {
          "internalType": "address",
          "name": "_owner",
          "type": "address"
        },
        {
          "internalType": "address",
          "name": "_dao",
          "type": "address"
        }
      ],
      "stateMutability": "nonpayable",
      "type": "constructor"
    },
    {
      "anonymous": false,
      "inputs": [
        {
          "indexed": true,
          "internalType": "address",
          "name": "owner",
          "type": "address"
        },
        {
          "indexed": true,
          "internalType": "address",
          "name": "approved",
          "type": "address"
        },
        {
          "indexed": true,
          "internalType": "uint256",
          "name": "tokenId",
          "type": "uint256"
        }
      ],
      "name": "Approval",
      "type": "event"
    },
    {
      "anonymous": false,
      "inputs": [
        {
          "indexed": true,
          "internalType": "address",
          "name": "owner",
          "type": "address"
        },
        {
          "indexed": true,
          "internalType": "address",
          "name": "operator",
          "type": "address"
        },
        {
          "indexed": false,
          "internalType": "bool",
          "name": "approved",
          "type": "bool"
        }
      ],
      "name": "ApprovalForAll",
      "type": "event"
    },
    {
      "anonymous": false,
      "inputs": [
        {
          "indexed": true,
          "internalType": "address",
          "name": "delegator",
          "type": "address"
        },
        {
          "indexed": true,
          "internalType": "address",
          "name": "fromDelegate",
          "type": "address"
        },
        {
          "indexed": true,
          "internalType": "address",
          "name": "toDelegate",
          "type": "address"
        }
      ],
      "name": "DelegateChanged",
      "type": "event"
    },
    {
      "anonymous": false,
      "inputs": [
        {
          "indexed": true,
          "internalType": "address",
          "name": "delegate",
          "type": "address"
        },
        {
          "indexed": false,
          "internalType": "uint256",
          "name": "previousBalance",
          "type": "uint256"
        },
        {
          "indexed": false,
          "internalType": "uint256",
          "name": "newBalance",
          "type": "uint256"
        }
      ],
      "name": "DelegateVotesChanged",
      "type": "event"
    },
    {
      "anonymous": false,
      "inputs": [
        {
          "indexed": true,
          "internalType": "address",
          "name": "previousOwner",
          "type": "address"
        },
        {
          "indexed": true,
          "internalType": "address",
          "name": "newOwner",
          "type": "address"
        }
      ],
      "name": "OwnershipTransferred",
      "type": "event"
    },
    {
      "anonymous": false,
      "inputs": [
        {
          "indexed": true,
          "internalType": "address",
          "name": "from",
          "type": "address"
        },
        {
          "indexed": true,
          "internalType": "address",
          "name": "to",
          "type": "address"
        },
        {
          "indexed": true,
          "internalType": "uint256",
          "name": "tokenId",
          "type": "uint256"
        }
      ],
      "name": "Transfer",
      "type": "event"
    },
    {
      "inputs": [],
      "name": "DOMAIN_SEPARATOR",
      "outputs": [
        {
          "internalType": "bytes32",
          "name": "",
          "type": "bytes32"
        }
      ],
      "stateMutability": "view",
      "type": "function"
    },
    {
      "inputs": [
        {
          "internalType": "address",
          "name": "to",
          "type": "address"
        },
        {
          "internalType": "uint256",
          "name": "tokenId",
          "type": "uint256"
        }
      ],
      "name": "approve",
      "outputs": [],
      "stateMutability": "nonpayable",
      "type": "function"
    },
    {
      "inputs": [
        {
          "internalType": "address",
          "name": "owner",
          "type": "address"
        }
      ],
      "name": "balanceOf",
      "outputs": [
        {
          "internalType": "uint256",
          "name": "",
          "type": "uint256"
        }
      ],
      "stateMutability": "view",
      "type": "function"
    },
    {
      "inputs": [],
      "name": "contractURI",
      "outputs": [
        {
          "internalType": "string",
          "name": "",
          "type": "string"
        }
      ],
      "stateMutability": "view",
      "type": "function"
    },
    {
      "inputs": [],
      "name": "dao",
      "outputs": [
        {
          "internalType": "address",
          "name": "",
          "type": "address"
        }
      ],
      "stateMutability": "view",
      "type": "function"
    },
    {
      "inputs": [
        {
          "internalType": "address",
          "name": "delegatee",
          "type": "address"
        }
      ],
      "name": "delegate",
      "outputs": [],
      "stateMutability": "nonpayable",
      "type": "function"
    },
    {
      "inputs": [
        {
          "internalType": "address",
          "name": "delegatee",
          "type": "address"
        },
        {
          "internalType": "uint256",
          "name": "nonce",
          "type": "uint256"
        },
        {
          "internalType": "uint256",
          "name": "expiry",
          "type": "uint256"
        },
        {
          "internalType": "uint8",
          "name": "v",
          "type": "uint8"
        },
        {
          "internalType": "bytes32",
          "name": "r",
          "type": "bytes32"
        },
        {
          "internalType": "bytes32",
          "name": "s",
          "type": "bytes32"
        }
      ],
      "name": "delegateBySig",
      "outputs": [],
      "stateMutability": "nonpayable",
      "type": "function"
    },
    {
      "inputs": [
        {
          "internalType": "address",
          "name": "account",
          "type": "address"
        }
      ],
      "name": "delegates",
      "outputs": [
        {
          "internalType": "address",
          "name": "",
          "type": "address"
        }
      ],
      "stateMutability": "view",
      "type": "function"
    },
    {
      "inputs": [
        {
          "internalType": "uint256",
          "name": "tokenId",
          "type": "uint256"
        }
      ],
      "name": "getApproved",
      "outputs": [
        {
          "internalType": "address",
          "name": "",
          "type": "address"
        }
      ],
      "stateMutability": "view",
      "type": "function"
    },
    {
      "inputs": [
        {
          "internalType": "uint256",
          "name": "blockNumber",
          "type": "uint256"
        }
      ],
      "name": "getPastTotalSupply",
      "outputs": [
        {
          "internalType": "uint256",
          "name": "",
          "type": "uint256"
        }
      ],
      "stateMutability": "view",
      "type": "function"
    },
    {
      "inputs": [
        {
          "internalType": "address",
          "name": "account",
          "type": "address"
        },
        {
          "internalType": "uint256",
          "name": "blockNumber",
          "type": "uint256"
        }
      ],
      "name": "getPastVotes",
      "outputs": [
        {
          "internalType": "uint256",
          "name": "",
          "type": "uint256"
        }
      ],
      "stateMutability": "view",
      "type": "function"
    },
    {
      "inputs": [
        {
          "internalType": "address",
          "name": "account",
          "type": "address"
        }
      ],
      "name": "getVotes",
      "outputs": [
        {
          "internalType": "uint256",
          "name": "",
          "type": "uint256"
        }
      ],
      "stateMutability": "view",
      "type": "function"
    },
    {
      "inputs": [
        {
          "internalType": "address",
          "name": "owner",
          "type": "address"
        },
        {
          "internalType": "address",
          "name": "operator",
          "type": "address"
        }
      ],
      "name": "isApprovedForAll",
      "outputs": [
        {
          "internalType": "bool",
          "name": "",
          "type": "bool"
        }
      ],
      "stateMutability": "view",
      "type": "function"
    },
    {
      "inputs": [
        {
          "internalType": "uint256",
          "name": "trees",
          "type": "uint256"
        }
      ],
      "name": "mint",
      "outputs": [],
      "stateMutability": "payable",
      "type": "function"
    },
    {
      "inputs": [],
      "name": "name",
      "outputs": [
        {
          "internalType": "string",
          "name": "",
          "type": "string"
        }
      ],
      "stateMutability": "view",
      "type": "function"
    },
    {
      "inputs": [
        {
          "internalType": "address",
          "name": "owner",
          "type": "address"
        }
      ],
      "name": "nonces",
      "outputs": [
        {
          "internalType": "uint256",
          "name": "",
          "type": "uint256"
        }
      ],
      "stateMutability": "view",
      "type": "function"
    },
    {
      "inputs": [],
      "name": "owner",
      "outputs": [
        {
          "internalType": "address",
          "name": "",
          "type": "address"
        }
      ],
      "stateMutability": "view",
      "type": "function"
    },
    {
      "inputs": [
        {
          "internalType": "uint256",
          "name": "tokenId",
          "type": "uint256"
        }
      ],
      "name": "ownerOf",
      "outputs": [
        {
          "internalType": "address",
          "name": "",
          "type": "address"
        }
      ],
      "stateMutability": "view",
      "type": "function"
    },
    {
      "inputs": [],
      "name": "renounceOwnership",
      "outputs": [],
      "stateMutability": "nonpayable",
      "type": "function"
    },
    {
      "inputs": [
        {
          "internalType": "uint256",
          "name": "",
          "type": "uint256"
        },
        {
          "internalType": "uint256",
          "name": "amount",
          "type": "uint256"
        }
      ],
      "name": "royaltyInfo",
      "outputs": [
        {
          "internalType": "address",
          "name": "",
          "type": "address"
        },
        {
          "internalType": "uint256",
          "name": "",
          "type": "uint256"
        }
      ],
      "stateMutability": "view",
      "type": "function"
    },
    {
      "inputs": [
        {
          "internalType": "address",
          "name": "from",
          "type": "address"
        },
        {
          "internalType": "address",
          "name": "to",
          "type": "address"
        },
        {
          "internalType": "uint256",
          "name": "tokenId",
          "type": "uint256"
        }
      ],
      "name": "safeTransferFrom",
      "outputs": [],
      "stateMutability": "nonpayable",
      "type": "function"
    },
    {
      "inputs": [
        {
          "internalType": "address",
          "name": "from",
          "type": "address"
        },
        {
          "internalType": "address",
          "name": "to",
          "type": "address"
        },
        {
          "internalType": "uint256",
          "name": "tokenId",
          "type": "uint256"
        },
        {
          "internalType": "bytes",
          "name": "_data",
          "type": "bytes"
        }
      ],
      "name": "safeTransferFrom",
      "outputs": [],
      "stateMutability": "nonpayable",
      "type": "function"
    },
    {
      "inputs": [
        {
          "internalType": "address",
          "name": "operator",
          "type": "address"
        },
        {
          "internalType": "bool",
          "name": "approved",
          "type": "bool"
        }
      ],
      "name": "setApprovalForAll",
      "outputs": [],
      "stateMutability": "nonpayable",
      "type": "function"
    },
    {
      "inputs": [
        {
          "internalType": "string",
          "name": "newContractURI",
          "type": "string"
        }
      ],
      "name": "setContractURI",
      "outputs": [],
      "stateMutability": "nonpayable",
      "type": "function"
    },
    {
      "inputs": [
        {
          "internalType": "address",
          "name": "newDaoAddress",
          "type": "address"
        }
      ],
      "name": "setDao",
      "outputs": [],
      "stateMutability": "nonpayable",
      "type": "function"
    },
    {
      "inputs": [
        {
          "internalType": "uint256",
          "name": "newUnitPrice",
          "type": "uint256"
        }
      ],
      "name": "setTreeEquivalentUnitPrice",
      "outputs": [],
      "stateMutability": "nonpayable",
      "type": "function"
    },
    {
      "inputs": [
        {
          "internalType": "bytes4",
          "name": "interfaceId",
          "type": "bytes4"
        }
      ],
      "name": "supportsInterface",
      "outputs": [
        {
          "internalType": "bool",
          "name": "",
          "type": "bool"
        }
      ],
      "stateMutability": "view",
      "type": "function"
    },
    {
      "inputs": [],
      "name": "symbol",
      "outputs": [
        {
          "internalType": "string",
          "name": "",
          "type": "string"
        }
      ],
      "stateMutability": "view",
      "type": "function"
    },
    {
      "inputs": [
        {
          "internalType": "uint256",
          "name": "index",
          "type": "uint256"
        }
      ],
      "name": "tokenByIndex",
      "outputs": [
        {
          "internalType": "uint256",
          "name": "",
          "type": "uint256"
        }
      ],
      "stateMutability": "view",
      "type": "function"
    },
    {
      "inputs": [
        {
          "internalType": "address",
          "name": "owner",
          "type": "address"
        },
        {
          "internalType": "uint256",
          "name": "index",
          "type": "uint256"
        }
      ],
      "name": "tokenOfOwnerByIndex",
      "outputs": [
        {
          "internalType": "uint256",
          "name": "",
          "type": "uint256"
        }
      ],
      "stateMutability": "view",
      "type": "function"
    },
    {
      "inputs": [
        {
          "internalType": "uint256",
          "name": "tokenId",
          "type": "uint256"
        }
      ],
      "name": "tokenURI",
      "outputs": [
        {
          "internalType": "string",
          "name": "",
          "type": "string"
        }
      ],
      "stateMutability": "view",
      "type": "function"
    },
    {
      "inputs": [],
      "name": "totalSupply",
      "outputs": [
        {
          "internalType": "uint256",
          "name": "",
          "type": "uint256"
        }
      ],
      "stateMutability": "view",
      "type": "function"
    },
    {
      "inputs": [
        {
          "internalType": "address",
          "name": "from",
          "type": "address"
        },
        {
          "internalType": "address",
          "name": "to",
          "type": "address"
        },
        {
          "internalType": "uint256",
          "name": "tokenId",
          "type": "uint256"
        }
      ],
      "name": "transferFrom",
      "outputs": [],
      "stateMutability": "nonpayable",
      "type": "function"
    },
    {
      "inputs": [
        {
          "internalType": "address",
          "name": "newOwner",
          "type": "address"
        }
      ],
      "name": "transferOwnership",
      "outputs": [],
      "stateMutability": "nonpayable",
      "type": "function"
    },
    {
      "inputs": [],
      "name": "unitPrice",
      "outputs": [
        {
          "internalType": "uint256",
          "name": "",
          "type": "uint256"
        }
      ],
      "stateMutability": "view",
      "type": "function"
    },
    {
      "inputs": [],
      "name": "withdraw",
      "outputs": [],
      "stateMutability": "nonpayable",
      "type": "function"
    },
    {
      "inputs": [
        {
          "internalType": "contract IERC20",
          "name": "_erc20Token",
          "type": "address"
        }
      ],
      "name": "withdrawERC20",
      "outputs": [],
      "stateMutability": "nonpayable",
      "type": "function"
    }
  ],
  "bytecode": "0x610140604052662386f26fc100006010553480156200001d57600080fd5b5060405162006266380380620062668339818101604052810190620000439190620006bd565b6040518060400160405280600d81526020017f4d696e7454726565546f6b656e000000000000000000000000000000000000008152506040518060400160405280600181526020017f31000000000000000000000000000000000000000000000000000000000000008152506040518060400160405280600d81526020017f4d696e7454726565546f6b656e000000000000000000000000000000000000008152506040518060400160405280600381526020017f4d335400000000000000000000000000000000000000000000000000000000008152508160009080519060200190620001339291906200040b565b5080600190805190602001906200014c9291906200040b565b5050506200016f620001636200030160201b60201c565b6200030960201b60201c565b60008280519060200120905060008280519060200120905060007f8b73c3c69bb8fe3d512ecc4cf759cc79239f7b179b0ffacaa9a75d522b39400f90508260e081815250508161010081815250504660a08181525050620001d8818484620003cf60201b60201c565b608081815250503073ffffffffffffffffffffffffffffffffffffffff1660c08173ffffffffffffffffffffffffffffffffffffffff168152505080610120818152505050505050508260129080519060200190620002399291906200040b565b50600073ffffffffffffffffffffffffffffffffffffffff168273ffffffffffffffffffffffffffffffffffffffff1614620002815762000280826200030960201b60201c565b5b600073ffffffffffffffffffffffffffffffffffffffff168173ffffffffffffffffffffffffffffffffffffffff1614620002f85780601160006101000a81548173ffffffffffffffffffffffffffffffffffffffff021916908373ffffffffffffffffffffffffffffffffffffffff1602179055505b50505062000840565b600033905090565b6000600a60009054906101000a900473ffffffffffffffffffffffffffffffffffffffff16905081600a60006101000a81548173ffffffffffffffffffffffffffffffffffffffff021916908373ffffffffffffffffffffffffffffffffffffffff1602179055508173ffffffffffffffffffffffffffffffffffffffff168173ffffffffffffffffffffffffffffffffffffffff167f8be0079c531659141344cd1fd0a4f28419497f9722a3daafe3b4186f6b6457e060405160405180910390a35050565b60008383834630604051602001620003ec9594939291906200077f565b6040516020818303038152906040528051906020012090509392505050565b82805462000419906200080b565b90600052602060002090601f0160209004810192826200043d576000855562000489565b82601f106200045857805160ff191683800117855562000489565b8280016001018555821562000489579182015b82811115620004885782518255916020019190600101906200046b565b5b5090506200049891906200049c565b5090565b5b80821115620004b75760008160009055506001016200049d565b5090565b6000604051905090565b600080fd5b600080fd5b600080fd5b600080fd5b6000601f19601f8301169050919050565b7f4e487b7100000000000000000000000000000000000000000000000000000000600052604160045260246000fd5b6200052482620004d9565b810181811067ffffffffffffffff82111715620005465762000545620004ea565b5b80604052505050565b60006200055b620004bb565b905062000569828262000519565b919050565b600067ffffffffffffffff8211156200058c576200058b620004ea565b5b6200059782620004d9565b9050602081019050919050565b60005b83811015620005c4578082015181840152602081019050620005a7565b83811115620005d4576000848401525b50505050565b6000620005f1620005eb846200056e565b6200054f565b90508281526020810184848401111562000610576200060f620004d4565b5b6200061d848285620005a4565b509392505050565b600082601f8301126200063d576200063c620004cf565b5b81516200064f848260208601620005da565b91505092915050565b600073ffffffffffffffffffffffffffffffffffffffff82169050919050565b6000620006858262000658565b9050919050565b620006978162000678565b8114620006a357600080fd5b50565b600081519050620006b7816200068c565b92915050565b600080600060608486031215620006d957620006d8620004c5565b5b600084015167ffffffffffffffff811115620006fa57620006f9620004ca565b5b620007088682870162000625565b93505060206200071b86828701620006a6565b92505060406200072e86828701620006a6565b9150509250925092565b6000819050919050565b6200074d8162000738565b82525050565b6000819050919050565b620007688162000753565b82525050565b620007798162000678565b82525050565b600060a08201905062000796600083018862000742565b620007a5602083018762000742565b620007b4604083018662000742565b620007c360608301856200075d565b620007d260808301846200076e565b9695505050505050565b7f4e487b7100000000000000000000000000000000000000000000000000000000600052602260045260246000fd5b600060028204905060018216806200082457607f821691505b6020821081036200083a5762000839620007dc565b5b50919050565b60805160a05160c05160e05161010051610120516159d66200089060003960006120380152600061207a0152600061205901526000611f8e01526000611fe40152600061200d01526159d66000f3fe60806040526004361061021a5760003560e01c806370a0823111610123578063a22cb465116100ab578063e8a3d4851161006f578063e8a3d48514610821578063e985e9c51461084c578063f2fde38b14610889578063f4f3b200146108b2578063fb8edc4f146108db5761021a565b8063a22cb4651461073e578063b88d4fde14610767578063c3cda52014610790578063c87b56dd146107b9578063e73faa2d146107f65761021a565b80638e539e8c116100f25780638e539e8c14610654578063938e3d7b1461069157806395d89b41146106ba5780639ab24eb0146106e5578063a0712d68146107225761021a565b806370a0823114610598578063715018a6146105d55780637ecebe00146105ec5780638da5cb5b146106295761021a565b80633a46b1a8116101a65780634f6ccce7116101755780634f6ccce71461048f578063587cde1e146104cc5780635c19a95c146105095780636352211e146105325780636637b8821461056f5761021a565b80633a46b1a8146103e75780633ccfd60b146104245780634162169f1461043b57806342842e0e146104665761021a565b806318160ddd116101ed57806318160ddd146102ed57806323b872dd146103185780632a55205a146103415780632f745c591461037f5780633644e515146103bc5761021a565b806301ffc9a71461021f57806306fdde031461025c578063081812fc14610287578063095ea7b3146102c4575b600080fd5b34801561022b57600080fd5b5061024660048036038101906102419190613c1e565b610904565b6040516102539190613c66565b60405180910390f35b34801561026857600080fd5b50610271610965565b60405161027e9190613d1a565b60405180910390f35b34801561029357600080fd5b506102ae60048036038101906102a99190613d72565b6109f7565b6040516102bb9190613de0565b60405180910390f35b3480156102d057600080fd5b506102eb60048036038101906102e69190613e27565b610a7c565b005b3480156102f957600080fd5b50610302610b93565b60405161030f9190613e76565b60405180910390f35b34801561032457600080fd5b5061033f600480360381019061033a9190613e91565b610ba0565b005b34801561034d57600080fd5b5061036860048036038101906103639190613ee4565b610c00565b604051610376929190613f24565b60405180910390f35b34801561038b57600080fd5b506103a660048036038101906103a19190613e27565b610c91565b6040516103b39190613e76565b60405180910390f35b3480156103c857600080fd5b506103d1610d36565b6040516103de9190613f66565b60405180910390f35b3480156103f357600080fd5b5061040e60048036038101906104099190613e27565b610d45565b60405161041b9190613e76565b60405180910390f35b34801561043057600080fd5b50610439610da0565b005b34801561044757600080fd5b50610450610e0b565b60405161045d9190613de0565b60405180910390f35b34801561047257600080fd5b5061048d60048036038101906104889190613e91565b610e31565b005b34801561049b57600080fd5b506104b660048036038101906104b19190613d72565b610e51565b6040516104c39190613e76565b60405180910390f35b3480156104d857600080fd5b506104f360048036038101906104ee9190613f81565b610ec2565b6040516105009190613de0565b60405180910390f35b34801561051557600080fd5b50610530600480360381019061052b9190613f81565b610f2b565b005b34801561053e57600080fd5b5061055960048036038101906105549190613d72565b610f45565b6040516105669190613de0565b60405180910390f35b34801561057b57600080fd5b5061059660048036038101906105919190613f81565b610ff6565b005b3480156105a457600080fd5b506105bf60048036038101906105ba9190613f81565b6110b6565b6040516105cc9190613e76565b60405180910390f35b3480156105e157600080fd5b506105ea61116d565b005b3480156105f857600080fd5b50610613600480360381019061060e9190613f81565b6111f5565b6040516106209190613e76565b60405180910390f35b34801561063557600080fd5b5061063e611245565b60405161064b9190613de0565b60405180910390f35b34801561066057600080fd5b5061067b60048036038101906106769190613d72565b61126f565b6040516106889190613e76565b60405180910390f35b34801561069d57600080fd5b506106b860048036038101906106b39190614013565b6112ce565b005b3480156106c657600080fd5b506106cf611360565b6040516106dc9190613d1a565b60405180910390f35b3480156106f157600080fd5b5061070c60048036038101906107079190613f81565b6113f2565b6040516107199190613e76565b60405180910390f35b61073c60048036038101906107379190613d72565b611442565b005b34801561074a57600080fd5b506107656004803603810190610760919061408c565b6114ba565b005b34801561077357600080fd5b5061078e600480360381019061078991906141fc565b6114d0565b005b34801561079c57600080fd5b506107b760048036038101906107b291906142e4565b611532565b005b3480156107c557600080fd5b506107e060048036038101906107db9190613d72565b611636565b6040516107ed9190613d1a565b60405180910390f35b34801561080257600080fd5b5061080b6116dd565b6040516108189190613e76565b60405180910390f35b34801561082d57600080fd5b506108366116e3565b6040516108439190613d1a565b60405180910390f35b34801561085857600080fd5b50610873600480360381019061086e9190614371565b611771565b6040516108809190613c66565b60405180910390f35b34801561089557600080fd5b506108b060048036038101906108ab9190613f81565b611805565b005b3480156108be57600080fd5b506108d960048036038101906108d491906143ef565b6118fc565b005b3480156108e757600080fd5b5061090260048036038101906108fd9190613d72565b611a19565b005b6000632a55205a60e01b7bffffffffffffffffffffffffffffffffffffffffffffffffffffffff1916827bffffffffffffffffffffffffffffffffffffffffffffffffffffffff1916148061095e575061095d82611a9f565b5b9050919050565b6060600080546109749061444b565b80601f01602080910402602001604051908101604052809291908181526020018280546109a09061444b565b80156109ed5780601f106109c2576101008083540402835291602001916109ed565b820191906000526020600020905b8154815290600101906020018083116109d057829003601f168201915b5050505050905090565b6000610a0282611b19565b610a41576040517f08c379a0000000000000000000000000000000000000000000000000000000008152600401610a38906144ee565b60405180910390fd5b6004600083815260200190815260200160002060009054906101000a900473ffffffffffffffffffffffffffffffffffffffff169050919050565b6000610a8782610f45565b90508073ffffffffffffffffffffffffffffffffffffffff168373ffffffffffffffffffffffffffffffffffffffff1603610af7576040517f08c379a0000000000000000000000000000000000000000000000000000000008152600401610aee90614580565b60405180910390fd5b8073ffffffffffffffffffffffffffffffffffffffff16610b16611b85565b73ffffffffffffffffffffffffffffffffffffffff161480610b455750610b4481610b3f611b85565b611771565b5b610b84576040517f08c379a0000000000000000000000000000000000000000000000000000000008152600401610b7b90614612565b60405180910390fd5b610b8e8383611b8d565b505050565b6000600880549050905090565b610bb1610bab611b85565b82611c46565b610bf0576040517f08c379a0000000000000000000000000000000000000000000000000000000008152600401610be7906146a4565b60405180910390fd5b610bfb838383611d24565b505050565b6000806000601160009054906101000a900473ffffffffffffffffffffffffffffffffffffffff169050600073ffffffffffffffffffffffffffffffffffffffff168173ffffffffffffffffffffffffffffffffffffffff1603610c6957610c66611245565b90505b806127106101f486610c7b91906146f3565b610c85919061477c565b92509250509250929050565b6000610c9c836110b6565b8210610cdd576040517f08c379a0000000000000000000000000000000000000000000000000000000008152600401610cd49061481f565b60405180910390fd5b600660008473ffffffffffffffffffffffffffffffffffffffff1673ffffffffffffffffffffffffffffffffffffffff168152602001908152602001600020600083815260200190815260200160002054905092915050565b6000610d40611f8a565b905090565b6000610d9882600c60008673ffffffffffffffffffffffffffffffffffffffff1673ffffffffffffffffffffffffffffffffffffffff1681526020019081526020016000206120a490919063ffffffff16565b905092915050565b601160009054906101000a900473ffffffffffffffffffffffffffffffffffffffff1673ffffffffffffffffffffffffffffffffffffffff166108fc479081150290604051600060405180830381858888f19350505050158015610e08573d6000803e3d6000fd5b50565b601160009054906101000a900473ffffffffffffffffffffffffffffffffffffffff1681565b610e4c838383604051806020016040528060008152506114d0565b505050565b6000610e5b610b93565b8210610e9c576040517f08c379a0000000000000000000000000000000000000000000000000000000008152600401610e93906148b1565b60405180910390fd5b60088281548110610eb057610eaf6148d1565b5b90600052602060002001549050919050565b6000600b60008373ffffffffffffffffffffffffffffffffffffffff1673ffffffffffffffffffffffffffffffffffffffff16815260200190815260200160002060009054906101000a900473ffffffffffffffffffffffffffffffffffffffff169050919050565b6000610f35611b85565b9050610f4181836121fc565b5050565b6000806002600084815260200190815260200160002060009054906101000a900473ffffffffffffffffffffffffffffffffffffffff169050600073ffffffffffffffffffffffffffffffffffffffff168173ffffffffffffffffffffffffffffffffffffffff1603610fed576040517f08c379a0000000000000000000000000000000000000000000000000000000008152600401610fe490614972565b60405180910390fd5b80915050919050565b610ffe611b85565b73ffffffffffffffffffffffffffffffffffffffff1661101c611245565b73ffffffffffffffffffffffffffffffffffffffff1614611072576040517f08c379a0000000000000000000000000000000000000000000000000000000008152600401611069906149de565b60405180910390fd5b80601160006101000a81548173ffffffffffffffffffffffffffffffffffffffff021916908373ffffffffffffffffffffffffffffffffffffffff16021790555050565b60008073ffffffffffffffffffffffffffffffffffffffff168273ffffffffffffffffffffffffffffffffffffffff1603611126576040517f08c379a000000000000000000000000000000000000000000000000000000000815260040161111d90614a70565b60405180910390fd5b600360008373ffffffffffffffffffffffffffffffffffffffff1673ffffffffffffffffffffffffffffffffffffffff168152602001908152602001600020549050919050565b611175611b85565b73ffffffffffffffffffffffffffffffffffffffff16611193611245565b73ffffffffffffffffffffffffffffffffffffffff16146111e9576040517f08c379a00000000000000000000000000000000000000000000000000000000081526004016111e0906149de565b60405180910390fd5b6111f36000612310565b565b600061123e600e60008473ffffffffffffffffffffffffffffffffffffffff1673ffffffffffffffffffffffffffffffffffffffff1681526020019081526020016000206123d6565b9050919050565b6000600a60009054906101000a900473ffffffffffffffffffffffffffffffffffffffff16905090565b60004382106112b3576040517f08c379a00000000000000000000000000000000000000000000000000000000081526004016112aa90614adc565b60405180910390fd5b6112c782600d6120a490919063ffffffff16565b9050919050565b6112d6611b85565b73ffffffffffffffffffffffffffffffffffffffff166112f4611245565b73ffffffffffffffffffffffffffffffffffffffff161461134a576040517f08c379a0000000000000000000000000000000000000000000000000000000008152600401611341906149de565b60405180910390fd5b81816012919061135b929190613b0f565b505050565b60606001805461136f9061444b565b80601f016020809104026020016040519081016040528092919081815260200182805461139b9061444b565b80156113e85780601f106113bd576101008083540402835291602001916113e8565b820191906000526020600020905b8154815290600101906020018083116113cb57829003601f168201915b5050505050905090565b600061143b600c60008473ffffffffffffffffffffffffffffffffffffffff1673ffffffffffffffffffffffffffffffffffffffff1681526020019081526020016000206123e4565b9050919050565b808060105461145191906146f3565b341015611493576040517f08c379a000000000000000000000000000000000000000000000000000000000815260040161148a90614b48565b60405180910390fd5b600061149f600f6123d6565b90506114ab600f61247f565b6114b53382612495565b505050565b6114cc6114c5611b85565b838361266e565b5050565b6114e16114db611b85565b83611c46565b611520576040517f08c379a0000000000000000000000000000000000000000000000000000000008152600401611517906146a4565b60405180910390fd5b61152c848484846127da565b50505050565b83421115611575576040517f08c379a000000000000000000000000000000000000000000000000000000000815260040161156c90614bb4565b60405180910390fd5b60006115d76115cf7fe48329057bfd03d55e49b547132e39cffd9c1820ad7b9d4c5307691425d15adf8989896040516020016115b49493929190614bd4565b60405160208183030381529060405280519060200120612836565b858585612850565b90506115e28161287b565b8614611623576040517f08c379a000000000000000000000000000000000000000000000000000000000815260040161161a90614c65565b60405180910390fd5b61162d81886121fc565b50505050505050565b606061164182611b19565b611680576040517f08c379a000000000000000000000000000000000000000000000000000000000815260040161167790614cf7565b60405180910390fd5b600061168a6128d9565b905060008151116116aa57604051806020016040528060008152506116d5565b806116b4846128f9565b6040516020016116c5929190614d53565b6040516020818303038152906040525b915050919050565b60105481565b601280546116f09061444b565b80601f016020809104026020016040519081016040528092919081815260200182805461171c9061444b565b80156117695780601f1061173e57610100808354040283529160200191611769565b820191906000526020600020905b81548152906001019060200180831161174c57829003601f168201915b505050505081565b6000600560008473ffffffffffffffffffffffffffffffffffffffff1673ffffffffffffffffffffffffffffffffffffffff16815260200190815260200160002060008373ffffffffffffffffffffffffffffffffffffffff1673ffffffffffffffffffffffffffffffffffffffff16815260200190815260200160002060009054906101000a900460ff16905092915050565b61180d611b85565b73ffffffffffffffffffffffffffffffffffffffff1661182b611245565b73ffffffffffffffffffffffffffffffffffffffff1614611881576040517f08c379a0000000000000000000000000000000000000000000000000000000008152600401611878906149de565b60405180910390fd5b600073ffffffffffffffffffffffffffffffffffffffff168173ffffffffffffffffffffffffffffffffffffffff16036118f0576040517f08c379a00000000000000000000000000000000000000000000000000000000081526004016118e790614de9565b60405180910390fd5b6118f981612310565b50565b8073ffffffffffffffffffffffffffffffffffffffff1663a9059cbb601160009054906101000a900473ffffffffffffffffffffffffffffffffffffffff168373ffffffffffffffffffffffffffffffffffffffff166370a08231306040518263ffffffff1660e01b81526004016119749190613de0565b602060405180830381865afa158015611991573d6000803e3d6000fd5b505050506040513d601f19601f820116820180604052508101906119b59190614e1e565b6040518363ffffffff1660e01b81526004016119d2929190613f24565b6020604051808303816000875af11580156119f1573d6000803e3d6000fd5b505050506040513d601f19601f82011682018060405250810190611a159190614e60565b5050565b611a21611b85565b73ffffffffffffffffffffffffffffffffffffffff16611a3f611245565b73ffffffffffffffffffffffffffffffffffffffff1614611a95576040517f08c379a0000000000000000000000000000000000000000000000000000000008152600401611a8c906149de565b60405180910390fd5b8060108190555050565b60007f780e9d63000000000000000000000000000000000000000000000000000000007bffffffffffffffffffffffffffffffffffffffffffffffffffffffff1916827bffffffffffffffffffffffffffffffffffffffffffffffffffffffff19161480611b125750611b1182612a59565b5b9050919050565b60008073ffffffffffffffffffffffffffffffffffffffff166002600084815260200190815260200160002060009054906101000a900473ffffffffffffffffffffffffffffffffffffffff1673ffffffffffffffffffffffffffffffffffffffff1614159050919050565b600033905090565b816004600083815260200190815260200160002060006101000a81548173ffffffffffffffffffffffffffffffffffffffff021916908373ffffffffffffffffffffffffffffffffffffffff160217905550808273ffffffffffffffffffffffffffffffffffffffff16611c0083610f45565b73ffffffffffffffffffffffffffffffffffffffff167f8c5be1e5ebec7d5bd14f71427d1e84f3dd0314c0f7b2291e5b200ac8c7c3b92560405160405180910390a45050565b6000611c5182611b19565b611c90576040517f08c379a0000000000000000000000000000000000000000000000000000000008152600401611c8790614eff565b60405180910390fd5b6000611c9b83610f45565b90508073ffffffffffffffffffffffffffffffffffffffff168473ffffffffffffffffffffffffffffffffffffffff161480611cdd5750611cdc8185611771565b5b80611d1b57508373ffffffffffffffffffffffffffffffffffffffff16611d03846109f7565b73ffffffffffffffffffffffffffffffffffffffff16145b91505092915050565b8273ffffffffffffffffffffffffffffffffffffffff16611d4482610f45565b73ffffffffffffffffffffffffffffffffffffffff1614611d9a576040517f08c379a0000000000000000000000000000000000000000000000000000000008152600401611d9190614f91565b60405180910390fd5b600073ffffffffffffffffffffffffffffffffffffffff168273ffffffffffffffffffffffffffffffffffffffff1603611e09576040517f08c379a0000000000000000000000000000000000000000000000000000000008152600401611e0090615023565b60405180910390fd5b611e14838383612b3b565b611e1f600082611b8d565b6001600360008573ffffffffffffffffffffffffffffffffffffffff1673ffffffffffffffffffffffffffffffffffffffff1681526020019081526020016000206000828254611e6f9190615043565b925050819055506001600360008473ffffffffffffffffffffffffffffffffffffffff1673ffffffffffffffffffffffffffffffffffffffff1681526020019081526020016000206000828254611ec69190615077565b92505081905550816002600083815260200190815260200160002060006101000a81548173ffffffffffffffffffffffffffffffffffffffff021916908373ffffffffffffffffffffffffffffffffffffffff160217905550808273ffffffffffffffffffffffffffffffffffffffff168473ffffffffffffffffffffffffffffffffffffffff167fddf252ad1be2c89b69c2b068fc378daa952ba7f163c4a11628f55a4df523b3ef60405160405180910390a4611f85838383612b4b565b505050565b60007f000000000000000000000000000000000000000000000000000000000000000073ffffffffffffffffffffffffffffffffffffffff163073ffffffffffffffffffffffffffffffffffffffff1614801561200657507f000000000000000000000000000000000000000000000000000000000000000046145b15612033577f000000000000000000000000000000000000000000000000000000000000000090506120a1565b61209e7f00000000000000000000000000000000000000000000000000000000000000007f00000000000000000000000000000000000000000000000000000000000000007f0000000000000000000000000000000000000000000000000000000000000000612b5b565b90505b90565b60004382106120e8576040517f08c379a00000000000000000000000000000000000000000000000000000000081526004016120df90615119565b60405180910390fd5b60008360000180549050905060005b8181101561216c57600061210b8284612b95565b905084866000018281548110612124576121236148d1565b5b9060005260206000200160000160009054906101000a900463ffffffff1663ffffffff16111561215657809250612166565b6001816121639190615077565b91505b506120f7565b600082146121d157846000016001836121859190615043565b81548110612196576121956148d1565b5b9060005260206000200160000160049054906101000a90047bffffffffffffffffffffffffffffffffffffffffffffffffffffffff166121d4565b60005b7bffffffffffffffffffffffffffffffffffffffffffffffffffffffff169250505092915050565b600061220783610ec2565b905081600b60008573ffffffffffffffffffffffffffffffffffffffff1673ffffffffffffffffffffffffffffffffffffffff16815260200190815260200160002060006101000a81548173ffffffffffffffffffffffffffffffffffffffff021916908373ffffffffffffffffffffffffffffffffffffffff1602179055508173ffffffffffffffffffffffffffffffffffffffff168173ffffffffffffffffffffffffffffffffffffffff168473ffffffffffffffffffffffffffffffffffffffff167f3134e8a2e6d97e929a7e54011ea5485d7d196dd5f0ba4d4ef95803e8e3fc257f60405160405180910390a461230b818361230686612bbb565b612bcd565b505050565b6000600a60009054906101000a900473ffffffffffffffffffffffffffffffffffffffff16905081600a60006101000a81548173ffffffffffffffffffffffffffffffffffffffff021916908373ffffffffffffffffffffffffffffffffffffffff1602179055508173ffffffffffffffffffffffffffffffffffffffff168173ffffffffffffffffffffffffffffffffffffffff167f8be0079c531659141344cd1fd0a4f28419497f9722a3daafe3b4186f6b6457e060405160405180910390a35050565b600081600001549050919050565b6000808260000180549050905060008114612456578260000160018261240a9190615043565b8154811061241b5761241a6148d1565b5b9060005260206000200160000160049054906101000a90047bffffffffffffffffffffffffffffffffffffffffffffffffffffffff16612459565b60005b7bffffffffffffffffffffffffffffffffffffffffffffffffffffffff16915050919050565b6001816000016000828254019250508190555050565b600073ffffffffffffffffffffffffffffffffffffffff168273ffffffffffffffffffffffffffffffffffffffff1603612504576040517f08c379a00000000000000000000000000000000000000000000000000000000081526004016124fb90615185565b60405180910390fd5b61250d81611b19565b1561254d576040517f08c379a0000000000000000000000000000000000000000000000000000000008152600401612544906151f1565b60405180910390fd5b61255960008383612b3b565b6001600360008473ffffffffffffffffffffffffffffffffffffffff1673ffffffffffffffffffffffffffffffffffffffff16815260200190815260200160002060008282546125a99190615077565b92505081905550816002600083815260200190815260200160002060006101000a81548173ffffffffffffffffffffffffffffffffffffffff021916908373ffffffffffffffffffffffffffffffffffffffff160217905550808273ffffffffffffffffffffffffffffffffffffffff16600073ffffffffffffffffffffffffffffffffffffffff167fddf252ad1be2c89b69c2b068fc378daa952ba7f163c4a11628f55a4df523b3ef60405160405180910390a461266a60008383612b4b565b5050565b8173ffffffffffffffffffffffffffffffffffffffff168373ffffffffffffffffffffffffffffffffffffffff16036126dc576040517f08c379a00000000000000000000000000000000000000000000000000000000081526004016126d39061525d565b60405180910390fd5b80600560008573ffffffffffffffffffffffffffffffffffffffff1673ffffffffffffffffffffffffffffffffffffffff16815260200190815260200160002060008473ffffffffffffffffffffffffffffffffffffffff1673ffffffffffffffffffffffffffffffffffffffff16815260200190815260200160002060006101000a81548160ff0219169083151502179055508173ffffffffffffffffffffffffffffffffffffffff168373ffffffffffffffffffffffffffffffffffffffff167f17307eab39ab6107e8899845ad3d59bd9653f200f220920489ca2b5937696c31836040516127cd9190613c66565b60405180910390a3505050565b6127e5848484611d24565b6127f184848484612dda565b612830576040517f08c379a0000000000000000000000000000000000000000000000000000000008152600401612827906152ef565b60405180910390fd5b50505050565b6000612849612843611f8a565b83612f61565b9050919050565b600080600061286187878787612f94565b9150915061286e816130a0565b8192505050949350505050565b600080600e60008473ffffffffffffffffffffffffffffffffffffffff1673ffffffffffffffffffffffffffffffffffffffff16815260200190815260200160002090506128c8816123d6565b91506128d38161247f565b50919050565b606060405180608001604052806043815260200161595e60439139905090565b606060008203612940576040518060400160405280600181526020017f30000000000000000000000000000000000000000000000000000000000000008152509050612a54565b600082905060005b6000821461297257808061295b9061530f565b915050600a8261296b919061477c565b9150612948565b60008167ffffffffffffffff81111561298e5761298d6140d1565b5b6040519080825280601f01601f1916602001820160405280156129c05781602001600182028036833780820191505090505b5090505b60008514612a4d576001826129d99190615043565b9150600a856129e89190615357565b60306129f49190615077565b60f81b818381518110612a0a57612a096148d1565b5b60200101907effffffffffffffffffffffffffffffffffffffffffffffffffffffffffffff1916908160001a905350600a85612a46919061477c565b94506129c4565b8093505050505b919050565b60007f80ac58cd000000000000000000000000000000000000000000000000000000007bffffffffffffffffffffffffffffffffffffffffffffffffffffffff1916827bffffffffffffffffffffffffffffffffffffffffffffffffffffffff19161480612b2457507f5b5e139f000000000000000000000000000000000000000000000000000000007bffffffffffffffffffffffffffffffffffffffffffffffffffffffff1916827bffffffffffffffffffffffffffffffffffffffffffffffffffffffff1916145b80612b345750612b338261326c565b5b9050919050565b612b468383836132d6565b505050565b612b568383836133e8565b505050565b60008383834630604051602001612b76959493929190615388565b6040516020818303038152906040528051906020012090509392505050565b60006002828418612ba6919061477c565b828416612bb39190615077565b905092915050565b6000612bc6826110b6565b9050919050565b8173ffffffffffffffffffffffffffffffffffffffff168373ffffffffffffffffffffffffffffffffffffffff1614158015612c095750600081115b15612dd557600073ffffffffffffffffffffffffffffffffffffffff168373ffffffffffffffffffffffffffffffffffffffff1614612cf157600080612c9a61340484600c60008973ffffffffffffffffffffffffffffffffffffffff1673ffffffffffffffffffffffffffffffffffffffff16815260200190815260200160002061341a9092919063ffffffff16565b915091508473ffffffffffffffffffffffffffffffffffffffff167fdec2bacdd2f05b59de34da9b523dff8be42e5e38e818c82fdb0bae774387a7248383604051612ce69291906153db565b60405180910390a250505b600073ffffffffffffffffffffffffffffffffffffffff168273ffffffffffffffffffffffffffffffffffffffff1614612dd457600080612d7d61344884600c60008873ffffffffffffffffffffffffffffffffffffffff1673ffffffffffffffffffffffffffffffffffffffff16815260200190815260200160002061341a9092919063ffffffff16565b915091508373ffffffffffffffffffffffffffffffffffffffff167fdec2bacdd2f05b59de34da9b523dff8be42e5e38e818c82fdb0bae774387a7248383604051612dc99291906153db565b60405180910390a250505b5b505050565b6000612dfb8473ffffffffffffffffffffffffffffffffffffffff1661345e565b15612f54578373ffffffffffffffffffffffffffffffffffffffff1663150b7a02612e24611b85565b8786866040518563ffffffff1660e01b8152600401612e469493929190615459565b6020604051808303816000875af1925050508015612e8257506040513d601f19601f82011682018060405250810190612e7f91906154ba565b60015b612f04573d8060008114612eb2576040519150601f19603f3d011682016040523d82523d6000602084013e612eb7565b606091505b506000815103612efc576040517f08c379a0000000000000000000000000000000000000000000000000000000008152600401612ef3906152ef565b60405180910390fd5b805181602001fd5b63150b7a0260e01b7bffffffffffffffffffffffffffffffffffffffffffffffffffffffff1916817bffffffffffffffffffffffffffffffffffffffffffffffffffffffff191614915050612f59565b600190505b949350505050565b60008282604051602001612f76929190615554565b60405160208183030381529060405280519060200120905092915050565b6000807f7fffffffffffffffffffffffffffffff5d576e7357a4501ddfe92f46681b20a08360001c1115612fcf576000600391509150613097565b601b8560ff1614158015612fe75750601c8560ff1614155b15612ff9576000600491509150613097565b60006001878787876040516000815260200160405260405161301e949392919061559a565b6020604051602081039080840390855afa158015613040573d6000803e3d6000fd5b505050602060405103519050600073ffffffffffffffffffffffffffffffffffffffff168173ffffffffffffffffffffffffffffffffffffffff160361308e57600060019250925050613097565b80600092509250505b94509492505050565b600060048111156130b4576130b36155df565b5b8160048111156130c7576130c66155df565b5b031561326957600160048111156130e1576130e06155df565b5b8160048111156130f4576130f36155df565b5b03613134576040517f08c379a000000000000000000000000000000000000000000000000000000000815260040161312b9061565a565b60405180910390fd5b60026004811115613148576131476155df565b5b81600481111561315b5761315a6155df565b5b0361319b576040517f08c379a0000000000000000000000000000000000000000000000000000000008152600401613192906156c6565b60405180910390fd5b600360048111156131af576131ae6155df565b5b8160048111156131c2576131c16155df565b5b03613202576040517f08c379a00000000000000000000000000000000000000000000000000000000081526004016131f990615758565b60405180910390fd5b600480811115613215576132146155df565b5b816004811115613228576132276155df565b5b03613268576040517f08c379a000000000000000000000000000000000000000000000000000000000815260040161325f906157ea565b60405180910390fd5b5b50565b60007f01ffc9a7000000000000000000000000000000000000000000000000000000007bffffffffffffffffffffffffffffffffffffffffffffffffffffffff1916827bffffffffffffffffffffffffffffffffffffffffffffffffffffffff1916149050919050565b6132e1838383613481565b600073ffffffffffffffffffffffffffffffffffffffff168373ffffffffffffffffffffffffffffffffffffffff16036133235761331e81613486565b613362565b8173ffffffffffffffffffffffffffffffffffffffff168373ffffffffffffffffffffffffffffffffffffffff16146133615761336083826134cf565b5b5b600073ffffffffffffffffffffffffffffffffffffffff168273ffffffffffffffffffffffffffffffffffffffff16036133a45761339f8161363c565b6133e3565b8273ffffffffffffffffffffffffffffffffffffffff168273ffffffffffffffffffffffffffffffffffffffff16146133e2576133e1828261370d565b5b5b505050565b6133f48383600161378c565b6133ff83838361384a565b505050565b600081836134129190615043565b905092915050565b60008061343c8561343761342d886123e4565b868863ffffffff16565b61384f565b91509150935093915050565b600081836134569190615077565b905092915050565b6000808273ffffffffffffffffffffffffffffffffffffffff163b119050919050565b505050565b6008805490506009600083815260200190815260200160002081905550600881908060018154018082558091505060019003906000526020600020016000909190919091505550565b600060016134dc846110b6565b6134e69190615043565b90506000600760008481526020019081526020016000205490508181146135cb576000600660008673ffffffffffffffffffffffffffffffffffffffff1673ffffffffffffffffffffffffffffffffffffffff168152602001908152602001600020600084815260200190815260200160002054905080600660008773ffffffffffffffffffffffffffffffffffffffff1673ffffffffffffffffffffffffffffffffffffffff168152602001908152602001600020600084815260200190815260200160002081905550816007600083815260200190815260200160002081905550505b6007600084815260200190815260200160002060009055600660008573ffffffffffffffffffffffffffffffffffffffff1673ffffffffffffffffffffffffffffffffffffffff16815260200190815260200160002060008381526020019081526020016000206000905550505050565b600060016008805490506136509190615043565b90506000600960008481526020019081526020016000205490506000600883815481106136805761367f6148d1565b5b9060005260206000200154905080600883815481106136a2576136a16148d1565b5b9060005260206000200181905550816009600083815260200190815260200160002081905550600960008581526020019081526020016000206000905560088054806136f1576136f061580a565b5b6001900381819060005260206000200160009055905550505050565b6000613718836110b6565b905081600660008573ffffffffffffffffffffffffffffffffffffffff1673ffffffffffffffffffffffffffffffffffffffff168152602001908152602001600020600083815260200190815260200160002081905550806007600084815260200190815260200160002081905550505050565b600073ffffffffffffffffffffffffffffffffffffffff168373ffffffffffffffffffffffffffffffffffffffff16036137db576137d861344882600d61341a9092919063ffffffff16565b50505b600073ffffffffffffffffffffffffffffffffffffffff168273ffffffffffffffffffffffffffffffffffffffff160361382a5761382761340482600d61341a9092919063ffffffff16565b50505b61384561383684610ec2565b61383f84610ec2565b83612bcd565b505050565b505050565b6000806000846000018054905090506000613869866123e4565b90506000821180156138bf575043866000016001846138889190615043565b81548110613899576138986148d1565b5b9060005260206000200160000160009054906101000a900463ffffffff1663ffffffff16145b1561394f576138cd85613a51565b866000016001846138de9190615043565b815481106138ef576138ee6148d1565b5b9060005260206000200160000160046101000a8154817bffffffffffffffffffffffffffffffffffffffffffffffffffffffff02191690837bffffffffffffffffffffffffffffffffffffffffffffffffffffffff160217905550613a42565b85600001604051806040016040528061396743613abc565b63ffffffff16815260200161397b88613a51565b7bffffffffffffffffffffffffffffffffffffffffffffffffffffffff168152509080600181540180825580915050600190039060005260206000200160009091909190915060008201518160000160006101000a81548163ffffffff021916908363ffffffff16021790555060208201518160000160046101000a8154817bffffffffffffffffffffffffffffffffffffffffffffffffffffffff02191690837bffffffffffffffffffffffffffffffffffffffffffffffffffffffff16021790555050505b80859350935050509250929050565b60007bffffffffffffffffffffffffffffffffffffffffffffffffffffffff8016821115613ab4576040517f08c379a0000000000000000000000000000000000000000000000000000000008152600401613aab906158ab565b60405180910390fd5b819050919050565b600063ffffffff8016821115613b07576040517f08c379a0000000000000000000000000000000000000000000000000000000008152600401613afe9061593d565b60405180910390fd5b819050919050565b828054613b1b9061444b565b90600052602060002090601f016020900481019282613b3d5760008555613b84565b82601f10613b5657803560ff1916838001178555613b84565b82800160010185558215613b84579182015b82811115613b83578235825591602001919060010190613b68565b5b509050613b919190613b95565b5090565b5b80821115613bae576000816000905550600101613b96565b5090565b6000604051905090565b600080fd5b600080fd5b60007fffffffff0000000000000000000000000000000000000000000000000000000082169050919050565b613bfb81613bc6565b8114613c0657600080fd5b50565b600081359050613c1881613bf2565b92915050565b600060208284031215613c3457613c33613bbc565b5b6000613c4284828501613c09565b91505092915050565b60008115159050919050565b613c6081613c4b565b82525050565b6000602082019050613c7b6000830184613c57565b92915050565b600081519050919050565b600082825260208201905092915050565b60005b83811015613cbb578082015181840152602081019050613ca0565b83811115613cca576000848401525b50505050565b6000601f19601f8301169050919050565b6000613cec82613c81565b613cf68185613c8c565b9350613d06818560208601613c9d565b613d0f81613cd0565b840191505092915050565b60006020820190508181036000830152613d348184613ce1565b905092915050565b6000819050919050565b613d4f81613d3c565b8114613d5a57600080fd5b50565b600081359050613d6c81613d46565b92915050565b600060208284031215613d8857613d87613bbc565b5b6000613d9684828501613d5d565b91505092915050565b600073ffffffffffffffffffffffffffffffffffffffff82169050919050565b6000613dca82613d9f565b9050919050565b613dda81613dbf565b82525050565b6000602082019050613df56000830184613dd1565b92915050565b613e0481613dbf565b8114613e0f57600080fd5b50565b600081359050613e2181613dfb565b92915050565b60008060408385031215613e3e57613e3d613bbc565b5b6000613e4c85828601613e12565b9250506020613e5d85828601613d5d565b9150509250929050565b613e7081613d3c565b82525050565b6000602082019050613e8b6000830184613e67565b92915050565b600080600060608486031215613eaa57613ea9613bbc565b5b6000613eb886828701613e12565b9350506020613ec986828701613e12565b9250506040613eda86828701613d5d565b9150509250925092565b60008060408385031215613efb57613efa613bbc565b5b6000613f0985828601613d5d565b9250506020613f1a85828601613d5d565b9150509250929050565b6000604082019050613f396000830185613dd1565b613f466020830184613e67565b9392505050565b6000819050919050565b613f6081613f4d565b82525050565b6000602082019050613f7b6000830184613f57565b92915050565b600060208284031215613f9757613f96613bbc565b5b6000613fa584828501613e12565b91505092915050565b600080fd5b600080fd5b600080fd5b60008083601f840112613fd357613fd2613fae565b5b8235905067ffffffffffffffff811115613ff057613fef613fb3565b5b60208301915083600182028301111561400c5761400b613fb8565b5b9250929050565b6000806020838503121561402a57614029613bbc565b5b600083013567ffffffffffffffff81111561404857614047613bc1565b5b61405485828601613fbd565b92509250509250929050565b61406981613c4b565b811461407457600080fd5b50565b60008135905061408681614060565b92915050565b600080604083850312156140a3576140a2613bbc565b5b60006140b185828601613e12565b92505060206140c285828601614077565b9150509250929050565b600080fd5b7f4e487b7100000000000000000000000000000000000000000000000000000000600052604160045260246000fd5b61410982613cd0565b810181811067ffffffffffffffff82111715614128576141276140d1565b5b80604052505050565b600061413b613bb2565b90506141478282614100565b919050565b600067ffffffffffffffff821115614167576141666140d1565b5b61417082613cd0565b9050602081019050919050565b82818337600083830152505050565b600061419f61419a8461414c565b614131565b9050828152602081018484840111156141bb576141ba6140cc565b5b6141c684828561417d565b509392505050565b600082601f8301126141e3576141e2613fae565b5b81356141f384826020860161418c565b91505092915050565b6000806000806080858703121561421657614215613bbc565b5b600061422487828801613e12565b945050602061423587828801613e12565b935050604061424687828801613d5d565b925050606085013567ffffffffffffffff81111561426757614266613bc1565b5b614273878288016141ce565b91505092959194509250565b600060ff82169050919050565b6142958161427f565b81146142a057600080fd5b50565b6000813590506142b28161428c565b92915050565b6142c181613f4d565b81146142cc57600080fd5b50565b6000813590506142de816142b8565b92915050565b60008060008060008060c0878903121561430157614300613bbc565b5b600061430f89828a01613e12565b965050602061432089828a01613d5d565b955050604061433189828a01613d5d565b945050606061434289828a016142a3565b935050608061435389828a016142cf565b92505060a061436489828a016142cf565b9150509295509295509295565b6000806040838503121561438857614387613bbc565b5b600061439685828601613e12565b92505060206143a785828601613e12565b9150509250929050565b60006143bc82613dbf565b9050919050565b6143cc816143b1565b81146143d757600080fd5b50565b6000813590506143e9816143c3565b92915050565b60006020828403121561440557614404613bbc565b5b6000614413848285016143da565b91505092915050565b7f4e487b7100000000000000000000000000000000000000000000000000000000600052602260045260246000fd5b6000600282049050600182168061446357607f821691505b6020821081036144765761447561441c565b5b50919050565b7f4552433732313a20617070726f76656420717565727920666f72206e6f6e657860008201527f697374656e7420746f6b656e0000000000000000000000000000000000000000602082015250565b60006144d8602c83613c8c565b91506144e38261447c565b604082019050919050565b60006020820190508181036000830152614507816144cb565b9050919050565b7f4552433732313a20617070726f76616c20746f2063757272656e74206f776e6560008201527f7200000000000000000000000000000000000000000000000000000000000000602082015250565b600061456a602183613c8c565b91506145758261450e565b604082019050919050565b600060208201905081810360008301526145998161455d565b9050919050565b7f4552433732313a20617070726f76652063616c6c6572206973206e6f74206f7760008201527f6e6572206e6f7220617070726f76656420666f7220616c6c0000000000000000602082015250565b60006145fc603883613c8c565b9150614607826145a0565b604082019050919050565b6000602082019050818103600083015261462b816145ef565b9050919050565b7f4552433732313a207472616e736665722063616c6c6572206973206e6f74206f60008201527f776e6572206e6f7220617070726f766564000000000000000000000000000000602082015250565b600061468e603183613c8c565b915061469982614632565b604082019050919050565b600060208201905081810360008301526146bd81614681565b9050919050565b7f4e487b7100000000000000000000000000000000000000000000000000000000600052601160045260246000fd5b60006146fe82613d3c565b915061470983613d3c565b9250817fffffffffffffffffffffffffffffffffffffffffffffffffffffffffffffffff0483118215151615614742576147416146c4565b5b828202905092915050565b7f4e487b7100000000000000000000000000000000000000000000000000000000600052601260045260246000fd5b600061478782613d3c565b915061479283613d3c565b9250826147a2576147a161474d565b5b828204905092915050565b7f455243373231456e756d657261626c653a206f776e657220696e646578206f7560008201527f74206f6620626f756e6473000000000000000000000000000000000000000000602082015250565b6000614809602b83613c8c565b9150614814826147ad565b604082019050919050565b60006020820190508181036000830152614838816147fc565b9050919050565b7f455243373231456e756d657261626c653a20676c6f62616c20696e646578206f60008201527f7574206f6620626f756e64730000000000000000000000000000000000000000602082015250565b600061489b602c83613c8c565b91506148a68261483f565b604082019050919050565b600060208201905081810360008301526148ca8161488e565b9050919050565b7f4e487b7100000000000000000000000000000000000000000000000000000000600052603260045260246000fd5b7f4552433732313a206f776e657220717565727920666f72206e6f6e657869737460008201527f656e7420746f6b656e0000000000000000000000000000000000000000000000602082015250565b600061495c602983613c8c565b915061496782614900565b604082019050919050565b6000602082019050818103600083015261498b8161494f565b9050919050565b7f4f776e61626c653a2063616c6c6572206973206e6f7420746865206f776e6572600082015250565b60006149c8602083613c8c565b91506149d382614992565b602082019050919050565b600060208201905081810360008301526149f7816149bb565b9050919050565b7f4552433732313a2062616c616e636520717565727920666f7220746865207a6560008201527f726f206164647265737300000000000000000000000000000000000000000000602082015250565b6000614a5a602a83613c8c565b9150614a65826149fe565b604082019050919050565b60006020820190508181036000830152614a8981614a4d565b9050919050565b7f566f7465733a20626c6f636b206e6f7420796574206d696e6564000000000000600082015250565b6000614ac6601a83613c8c565b9150614ad182614a90565b602082019050919050565b60006020820190508181036000830152614af581614ab9565b9050919050565b7f4d696e742074726565733a2062656c6f77207072696365000000000000000000600082015250565b6000614b32601783613c8c565b9150614b3d82614afc565b602082019050919050565b60006020820190508181036000830152614b6181614b25565b9050919050565b7f566f7465733a207369676e617475726520657870697265640000000000000000600082015250565b6000614b9e601883613c8c565b9150614ba982614b68565b602082019050919050565b60006020820190508181036000830152614bcd81614b91565b9050919050565b6000608082019050614be96000830187613f57565b614bf66020830186613dd1565b614c036040830185613e67565b614c106060830184613e67565b95945050505050565b7f566f7465733a20696e76616c6964206e6f6e6365000000000000000000000000600082015250565b6000614c4f601483613c8c565b9150614c5a82614c19565b602082019050919050565b60006020820190508181036000830152614c7e81614c42565b9050919050565b7f4552433732314d657461646174613a2055524920717565727920666f72206e6f60008201527f6e6578697374656e7420746f6b656e0000000000000000000000000000000000602082015250565b6000614ce1602f83613c8c565b9150614cec82614c85565b604082019050919050565b60006020820190508181036000830152614d1081614cd4565b9050919050565b600081905092915050565b6000614d2d82613c81565b614d378185614d17565b9350614d47818560208601613c9d565b80840191505092915050565b6000614d5f8285614d22565b9150614d6b8284614d22565b91508190509392505050565b7f4f776e61626c653a206e6577206f776e657220697320746865207a65726f206160008201527f6464726573730000000000000000000000000000000000000000000000000000602082015250565b6000614dd3602683613c8c565b9150614dde82614d77565b604082019050919050565b60006020820190508181036000830152614e0281614dc6565b9050919050565b600081519050614e1881613d46565b92915050565b600060208284031215614e3457614e33613bbc565b5b6000614e4284828501614e09565b91505092915050565b600081519050614e5a81614060565b92915050565b600060208284031215614e7657614e75613bbc565b5b6000614e8484828501614e4b565b91505092915050565b7f4552433732313a206f70657261746f7220717565727920666f72206e6f6e657860008201527f697374656e7420746f6b656e0000000000000000000000000000000000000000602082015250565b6000614ee9602c83613c8c565b9150614ef482614e8d565b604082019050919050565b60006020820190508181036000830152614f1881614edc565b9050919050565b7f4552433732313a207472616e736665722066726f6d20696e636f72726563742060008201527f6f776e6572000000000000000000000000000000000000000000000000000000602082015250565b6000614f7b602583613c8c565b9150614f8682614f1f565b604082019050919050565b60006020820190508181036000830152614faa81614f6e565b9050919050565b7f4552433732313a207472616e7366657220746f20746865207a65726f2061646460008201527f7265737300000000000000000000000000000000000000000000000000000000602082015250565b600061500d602483613c8c565b915061501882614fb1565b604082019050919050565b6000602082019050818103600083015261503c81615000565b9050919050565b600061504e82613d3c565b915061505983613d3c565b92508282101561506c5761506b6146c4565b5b828203905092915050565b600061508282613d3c565b915061508d83613d3c565b9250827fffffffffffffffffffffffffffffffffffffffffffffffffffffffffffffffff038211156150c2576150c16146c4565b5b828201905092915050565b7f436865636b706f696e74733a20626c6f636b206e6f7420796574206d696e6564600082015250565b6000615103602083613c8c565b915061510e826150cd565b602082019050919050565b60006020820190508181036000830152615132816150f6565b9050919050565b7f4552433732313a206d696e7420746f20746865207a65726f2061646472657373600082015250565b600061516f602083613c8c565b915061517a82615139565b602082019050919050565b6000602082019050818103600083015261519e81615162565b9050919050565b7f4552433732313a20746f6b656e20616c7265616479206d696e74656400000000600082015250565b60006151db601c83613c8c565b91506151e6826151a5565b602082019050919050565b6000602082019050818103600083015261520a816151ce565b9050919050565b7f4552433732313a20617070726f766520746f2063616c6c657200000000000000600082015250565b6000615247601983613c8c565b915061525282615211565b602082019050919050565b600060208201905081810360008301526152768161523a565b9050919050565b7f4552433732313a207472616e7366657220746f206e6f6e20455243373231526560008201527f63656976657220696d706c656d656e7465720000000000000000000000000000602082015250565b60006152d9603283613c8c565b91506152e48261527d565b604082019050919050565b60006020820190508181036000830152615308816152cc565b9050919050565b600061531a82613d3c565b91507fffffffffffffffffffffffffffffffffffffffffffffffffffffffffffffffff820361534c5761534b6146c4565b5b600182019050919050565b600061536282613d3c565b915061536d83613d3c565b92508261537d5761537c61474d565b5b828206905092915050565b600060a08201905061539d6000830188613f57565b6153aa6020830187613f57565b6153b76040830186613f57565b6153c46060830185613e67565b6153d16080830184613dd1565b9695505050505050565b60006040820190506153f06000830185613e67565b6153fd6020830184613e67565b9392505050565b600081519050919050565b600082825260208201905092915050565b600061542b82615404565b615435818561540f565b9350615445818560208601613c9d565b61544e81613cd0565b840191505092915050565b600060808201905061546e6000830187613dd1565b61547b6020830186613dd1565b6154886040830185613e67565b818103606083015261549a8184615420565b905095945050505050565b6000815190506154b481613bf2565b92915050565b6000602082840312156154d0576154cf613bbc565b5b60006154de848285016154a5565b91505092915050565b7f1901000000000000000000000000000000000000000000000000000000000000600082015250565b600061551d600283614d17565b9150615528826154e7565b600282019050919050565b6000819050919050565b61554e61554982613f4d565b615533565b82525050565b600061555f82615510565b915061556b828561553d565b60208201915061557b828461553d565b6020820191508190509392505050565b6155948161427f565b82525050565b60006080820190506155af6000830187613f57565b6155bc602083018661558b565b6155c96040830185613f57565b6155d66060830184613f57565b95945050505050565b7f4e487b7100000000000000000000000000000000000000000000000000000000600052602160045260246000fd5b7f45434453413a20696e76616c6964207369676e61747572650000000000000000600082015250565b6000615644601883613c8c565b915061564f8261560e565b602082019050919050565b6000602082019050818103600083015261567381615637565b9050919050565b7f45434453413a20696e76616c6964207369676e6174757265206c656e67746800600082015250565b60006156b0601f83613c8c565b91506156bb8261567a565b602082019050919050565b600060208201905081810360008301526156df816156a3565b9050919050565b7f45434453413a20696e76616c6964207369676e6174757265202773272076616c60008201527f7565000000000000000000000000000000000000000000000000000000000000602082015250565b6000615742602283613c8c565b915061574d826156e6565b604082019050919050565b6000602082019050818103600083015261577181615735565b9050919050565b7f45434453413a20696e76616c6964207369676e6174757265202776272076616c60008201527f7565000000000000000000000000000000000000000000000000000000000000602082015250565b60006157d4602283613c8c565b91506157df82615778565b604082019050919050565b60006020820190508181036000830152615803816157c7565b9050919050565b7f4e487b7100000000000000000000000000000000000000000000000000000000600052603160045260246000fd5b7f53616665436173743a2076616c756520646f65736e27742066697420696e203260008201527f3234206269747300000000000000000000000000000000000000000000000000602082015250565b6000615895602783613c8c565b91506158a082615839565b604082019050919050565b600060208201905081810360008301526158c481615888565b9050919050565b7f53616665436173743a2076616c756520646f65736e27742066697420696e203360008201527f3220626974730000000000000000000000000000000000000000000000000000602082015250565b6000615927602683613c8c565b9150615932826158cb565b604082019050919050565b600060208201905081810360008301526159568161591a565b905091905056fe697066733a2f2f6261667962656962756d746b6335646e326775626f6e33717933627932326b68357a73697461336f35787a6777776b3733696d6b733336376376612fa2646970667358221220c442c19067881010258519be72593250c2311fe0f29f0d4dfff7ab26fd87d87a64736f6c634300080e0033",
  "linkReferences": {},
  "deployedLinkReferences": {}
}