{
  "_format": "hh-sol-artifact-1",
  "contractName": "ProjectAToken",
  "sourceName": "contracts/ProjectAToken.sol",
  "abi": [
    {
      "inputs": [
        {
          "internalType": "contract IMintTreeToken",
          "name": "_mintTree",
          "type": "address"
        },
        {
          "internalType": "string",
          "name": "_contractURI",
          "type": "string"
        },
        {
          "internalType": "address",
          "name": "_owner",
          "type": "address"
        }
      ],
      "stateMutability": "nonpayable",
      "type": "constructor"
    },
    {
      "anonymous": false,
      "inputs": [
        {
          "indexed": true,
          "internalType": "address",
          "name": "owner",
          "type": "address"
        },
        {
          "indexed": true,
          "internalType": "address",
          "name": "approved",
          "type": "address"
        },
        {
          "indexed": true,
          "internalType": "uint256",
          "name": "tokenId",
          "type": "uint256"
        }
      ],
      "name": "Approval",
      "type": "event"
    },
    {
      "anonymous": false,
      "inputs": [
        {
          "indexed": true,
          "internalType": "address",
          "name": "owner",
          "type": "address"
        },
        {
          "indexed": true,
          "internalType": "address",
          "name": "operator",
          "type": "address"
        },
        {
          "indexed": false,
          "internalType": "bool",
          "name": "approved",
          "type": "bool"
        }
      ],
      "name": "ApprovalForAll",
      "type": "event"
    },
    {
      "anonymous": false,
      "inputs": [
        {
          "indexed": true,
          "internalType": "address",
          "name": "delegator",
          "type": "address"
        },
        {
          "indexed": true,
          "internalType": "address",
          "name": "fromDelegate",
          "type": "address"
        },
        {
          "indexed": true,
          "internalType": "address",
          "name": "toDelegate",
          "type": "address"
        }
      ],
      "name": "DelegateChanged",
      "type": "event"
    },
    {
      "anonymous": false,
      "inputs": [
        {
          "indexed": true,
          "internalType": "address",
          "name": "delegate",
          "type": "address"
        },
        {
          "indexed": false,
          "internalType": "uint256",
          "name": "previousBalance",
          "type": "uint256"
        },
        {
          "indexed": false,
          "internalType": "uint256",
          "name": "newBalance",
          "type": "uint256"
        }
      ],
      "name": "DelegateVotesChanged",
      "type": "event"
    },
    {
      "anonymous": false,
      "inputs": [
        {
          "indexed": true,
          "internalType": "address",
          "name": "previousOwner",
          "type": "address"
        },
        {
          "indexed": true,
          "internalType": "address",
          "name": "newOwner",
          "type": "address"
        }
      ],
      "name": "OwnershipTransferred",
      "type": "event"
    },
    {
      "anonymous": false,
      "inputs": [
        {
          "indexed": true,
          "internalType": "address",
          "name": "from",
          "type": "address"
        },
        {
          "indexed": true,
          "internalType": "address",
          "name": "to",
          "type": "address"
        },
        {
          "indexed": true,
          "internalType": "uint256",
          "name": "tokenId",
          "type": "uint256"
        }
      ],
      "name": "Transfer",
      "type": "event"
    },
    {
      "inputs": [],
      "name": "DOMAIN_SEPARATOR",
      "outputs": [
        {
          "internalType": "bytes32",
          "name": "",
          "type": "bytes32"
        }
      ],
      "stateMutability": "view",
      "type": "function"
    },
    {
      "inputs": [
        {
          "internalType": "address",
          "name": "to",
          "type": "address"
        },
        {
          "internalType": "uint256",
          "name": "tokenId",
          "type": "uint256"
        }
      ],
      "name": "approve",
      "outputs": [],
      "stateMutability": "nonpayable",
      "type": "function"
    },
    {
      "inputs": [
        {
          "internalType": "address",
          "name": "owner",
          "type": "address"
        }
      ],
      "name": "balanceOf",
      "outputs": [
        {
          "internalType": "uint256",
          "name": "",
          "type": "uint256"
        }
      ],
      "stateMutability": "view",
      "type": "function"
    },
    {
      "inputs": [],
      "name": "contractURI",
      "outputs": [
        {
          "internalType": "string",
          "name": "",
          "type": "string"
        }
      ],
      "stateMutability": "view",
      "type": "function"
    },
    {
      "inputs": [
        {
          "internalType": "address",
          "name": "delegatee",
          "type": "address"
        }
      ],
      "name": "delegate",
      "outputs": [],
      "stateMutability": "nonpayable",
      "type": "function"
    },
    {
      "inputs": [
        {
          "internalType": "address",
          "name": "delegatee",
          "type": "address"
        },
        {
          "internalType": "uint256",
          "name": "nonce",
          "type": "uint256"
        },
        {
          "internalType": "uint256",
          "name": "expiry",
          "type": "uint256"
        },
        {
          "internalType": "uint8",
          "name": "v",
          "type": "uint8"
        },
        {
          "internalType": "bytes32",
          "name": "r",
          "type": "bytes32"
        },
        {
          "internalType": "bytes32",
          "name": "s",
          "type": "bytes32"
        }
      ],
      "name": "delegateBySig",
      "outputs": [],
      "stateMutability": "nonpayable",
      "type": "function"
    },
    {
      "inputs": [
        {
          "internalType": "address",
          "name": "account",
          "type": "address"
        }
      ],
      "name": "delegates",
      "outputs": [
        {
          "internalType": "address",
          "name": "",
          "type": "address"
        }
      ],
      "stateMutability": "view",
      "type": "function"
    },
    {
      "inputs": [
        {
          "internalType": "uint256",
          "name": "tokenId",
          "type": "uint256"
        }
      ],
      "name": "getApproved",
      "outputs": [
        {
          "internalType": "address",
          "name": "",
          "type": "address"
        }
      ],
      "stateMutability": "view",
      "type": "function"
    },
    {
      "inputs": [
        {
          "internalType": "uint256",
          "name": "blockNumber",
          "type": "uint256"
        }
      ],
      "name": "getPastTotalSupply",
      "outputs": [
        {
          "internalType": "uint256",
          "name": "",
          "type": "uint256"
        }
      ],
      "stateMutability": "view",
      "type": "function"
    },
    {
      "inputs": [
        {
          "internalType": "address",
          "name": "account",
          "type": "address"
        },
        {
          "internalType": "uint256",
          "name": "blockNumber",
          "type": "uint256"
        }
      ],
      "name": "getPastVotes",
      "outputs": [
        {
          "internalType": "uint256",
          "name": "",
          "type": "uint256"
        }
      ],
      "stateMutability": "view",
      "type": "function"
    },
    {
      "inputs": [
        {
          "internalType": "address",
          "name": "account",
          "type": "address"
        }
      ],
      "name": "getVotes",
      "outputs": [
        {
          "internalType": "uint256",
          "name": "",
          "type": "uint256"
        }
      ],
      "stateMutability": "view",
      "type": "function"
    },
    {
      "inputs": [
        {
          "internalType": "address",
          "name": "owner",
          "type": "address"
        },
        {
          "internalType": "address",
          "name": "operator",
          "type": "address"
        }
      ],
      "name": "isApprovedForAll",
      "outputs": [
        {
          "internalType": "bool",
          "name": "",
          "type": "bool"
        }
      ],
      "stateMutability": "view",
      "type": "function"
    },
    {
      "inputs": [],
      "name": "mintTree",
      "outputs": [
        {
          "internalType": "contract IMintTreeToken",
          "name": "",
          "type": "address"
        }
      ],
      "stateMutability": "view",
      "type": "function"
    },
    {
      "inputs": [],
      "name": "name",
      "outputs": [
        {
          "internalType": "string",
          "name": "",
          "type": "string"
        }
      ],
      "stateMutability": "view",
      "type": "function"
    },
    {
      "inputs": [
        {
          "internalType": "address",
          "name": "owner",
          "type": "address"
        }
      ],
      "name": "nonces",
      "outputs": [
        {
          "internalType": "uint256",
          "name": "",
          "type": "uint256"
        }
      ],
      "stateMutability": "view",
      "type": "function"
    },
    {
      "inputs": [],
      "name": "owner",
      "outputs": [
        {
          "internalType": "address",
          "name": "",
          "type": "address"
        }
      ],
      "stateMutability": "view",
      "type": "function"
    },
    {
      "inputs": [
        {
          "internalType": "uint256",
          "name": "tokenId",
          "type": "uint256"
        }
      ],
      "name": "ownerOf",
      "outputs": [
        {
          "internalType": "address",
          "name": "",
          "type": "address"
        }
      ],
      "stateMutability": "view",
      "type": "function"
    },
    {
      "inputs": [],
      "name": "renounceOwnership",
      "outputs": [],
      "stateMutability": "nonpayable",
      "type": "function"
    },
    {
      "inputs": [
        {
          "internalType": "uint256",
          "name": "",
          "type": "uint256"
        },
        {
          "internalType": "uint256",
          "name": "amount",
          "type": "uint256"
        }
      ],
      "name": "royaltyInfo",
      "outputs": [
        {
          "internalType": "address",
          "name": "",
          "type": "address"
        },
        {
          "internalType": "uint256",
          "name": "",
          "type": "uint256"
        }
      ],
      "stateMutability": "view",
      "type": "function"
    },
    {
      "inputs": [
        {
          "internalType": "address",
          "name": "from",
          "type": "address"
        },
        {
          "internalType": "address",
          "name": "to",
          "type": "address"
        },
        {
          "internalType": "uint256",
          "name": "tokenId",
          "type": "uint256"
        }
      ],
      "name": "safeTransferFrom",
      "outputs": [],
      "stateMutability": "nonpayable",
      "type": "function"
    },
    {
      "inputs": [
        {
          "internalType": "address",
          "name": "from",
          "type": "address"
        },
        {
          "internalType": "address",
          "name": "to",
          "type": "address"
        },
        {
          "internalType": "uint256",
          "name": "tokenId",
          "type": "uint256"
        },
        {
          "internalType": "bytes",
          "name": "_data",
          "type": "bytes"
        }
      ],
      "name": "safeTransferFrom",
      "outputs": [],
      "stateMutability": "nonpayable",
      "type": "function"
    },
    {
      "inputs": [
        {
          "internalType": "address",
          "name": "operator",
          "type": "address"
        },
        {
          "internalType": "bool",
          "name": "approved",
          "type": "bool"
        }
      ],
      "name": "setApprovalForAll",
      "outputs": [],
      "stateMutability": "nonpayable",
      "type": "function"
    },
    {
      "inputs": [
        {
          "internalType": "bytes4",
          "name": "interfaceId",
          "type": "bytes4"
        }
      ],
      "name": "supportsInterface",
      "outputs": [
        {
          "internalType": "bool",
          "name": "",
          "type": "bool"
        }
      ],
      "stateMutability": "view",
      "type": "function"
    },
    {
      "inputs": [
        {
          "internalType": "uint256",
          "name": "tokenId",
          "type": "uint256"
        }
      ],
      "name": "swap",
      "outputs": [],
      "stateMutability": "nonpayable",
      "type": "function"
    },
    {
      "inputs": [],
      "name": "symbol",
      "outputs": [
        {
          "internalType": "string",
          "name": "",
          "type": "string"
        }
      ],
      "stateMutability": "view",
      "type": "function"
    },
    {
      "inputs": [
        {
          "internalType": "uint256",
          "name": "index",
          "type": "uint256"
        }
      ],
      "name": "tokenByIndex",
      "outputs": [
        {
          "internalType": "uint256",
          "name": "",
          "type": "uint256"
        }
      ],
      "stateMutability": "view",
      "type": "function"
    },
    {
      "inputs": [
        {
          "internalType": "address",
          "name": "owner",
          "type": "address"
        },
        {
          "internalType": "uint256",
          "name": "index",
          "type": "uint256"
        }
      ],
      "name": "tokenOfOwnerByIndex",
      "outputs": [
        {
          "internalType": "uint256",
          "name": "",
          "type": "uint256"
        }
      ],
      "stateMutability": "view",
      "type": "function"
    },
    {
      "inputs": [
        {
          "internalType": "uint256",
          "name": "tokenId",
          "type": "uint256"
        }
      ],
      "name": "tokenURI",
      "outputs": [
        {
          "internalType": "string",
          "name": "",
          "type": "string"
        }
      ],
      "stateMutability": "view",
      "type": "function"
    },
    {
      "inputs": [],
      "name": "totalSupply",
      "outputs": [
        {
          "internalType": "uint256",
          "name": "",
          "type": "uint256"
        }
      ],
      "stateMutability": "view",
      "type": "function"
    },
    {
      "inputs": [
        {
          "internalType": "address",
          "name": "from",
          "type": "address"
        },
        {
          "internalType": "address",
          "name": "to",
          "type": "address"
        },
        {
          "internalType": "uint256",
          "name": "tokenId",
          "type": "uint256"
        }
      ],
      "name": "transferFrom",
      "outputs": [],
      "stateMutability": "nonpayable",
      "type": "function"
    },
    {
      "inputs": [
        {
          "internalType": "address",
          "name": "newOwner",
          "type": "address"
        }
      ],
      "name": "transferOwnership",
      "outputs": [],
      "stateMutability": "nonpayable",
      "type": "function"
    }
  ],
  "bytecode": "0x6101406040523480156200001257600080fd5b506040516200338d3803806200338d833981016040819052620000359162000336565b6040518060400160405280601481526020017f4d696e745472656550726f6a656374546f6b656e000000000000000000000000815250604051806040016040528060018152602001603160f81b8152506040518060400160405280600d81526020016c283937b532b1ba20aa37b5b2b760991b815250604051806040016040528060048152602001634d33543160e01b8152508160009080519060200190620000e09291906200024f565b508051620000f69060019060208401906200024f565b505050620001136200010d620001f960201b60201c565b620001fd565b815160208084019190912082518383012060e08290526101008190524660a0818152604080517f8b73c3c69bb8fe3d512ecc4cf759cc79239f7b179b0ffacaa9a75d522b39400f81880181905281830187905260608201869052608082019490945230818401528151808203909301835260c00190528051940193909320919290916080523060c052610120525050600f80546001600160a01b0319166001600160a01b03871617905550508151620001d49060119060208501906200024f565b506001600160a01b03811615620001f057620001f081620001fd565b50505062000479565b3390565b600a80546001600160a01b038381166001600160a01b0319831681179093556040519116919082907f8be0079c531659141344cd1fd0a4f28419497f9722a3daafe3b4186f6b6457e090600090a35050565b8280546200025d906200043d565b90600052602060002090601f016020900481019282620002815760008555620002cc565b82601f106200029c57805160ff1916838001178555620002cc565b82800160010185558215620002cc579182015b82811115620002cc578251825591602001919060010190620002af565b50620002da929150620002de565b5090565b5b80821115620002da5760008155600101620002df565b6001600160a01b03811681146200030b57600080fd5b50565b634e487b7160e01b600052604160045260246000fd5b80516200033181620002f5565b919050565b6000806000606084860312156200034c57600080fd5b83516200035981620002f5565b602085810151919450906001600160401b03808211156200037957600080fd5b818701915087601f8301126200038e57600080fd5b815181811115620003a357620003a36200030e565b604051601f8201601f19908116603f01168101908382118183101715620003ce57620003ce6200030e565b816040528281528a86848701011115620003e757600080fd5b600093505b828410156200040b5784840186015181850187015292850192620003ec565b828411156200041d5760008684830101525b809750505050505050620004346040850162000324565b90509250925092565b600181811c908216806200045257607f821691505b6020821081036200047357634e487b7160e01b600052602260045260246000fd5b50919050565b60805160a05160c05160e0516101005161012051612ec4620004c960003960006115ca01526000611619015260006115f40152600061154d01526000611577015260006115a10152612ec46000f3fe608060405234801561001057600080fd5b50600436106101e55760003560e01c80636352211e1161010f5780639ab24eb0116100a2578063c87b56dd11610071578063c87b56dd14610430578063e8a3d48514610443578063e985e9c51461044b578063f2fde38b1461048757600080fd5b80639ab24eb0146103e4578063a22cb465146103f7578063b88d4fde1461040a578063c3cda5201461041d57600080fd5b80638da5cb5b116100de5780638da5cb5b146103a55780638e539e8c146103b657806394b918de146103c957806395d89b41146103dc57600080fd5b80636352211e1461036457806370a0823114610377578063715018a61461038a5780637ecebe001461039257600080fd5b80632f745c59116101875780634f6ccce7116101565780634f6ccce7146102ff578063587cde1e146103125780635c19a95c1461033e57806361c05ab61461035157600080fd5b80632f745c59146102be5780633644e515146102d15780633a46b1a8146102d957806342842e0e146102ec57600080fd5b8063095ea7b3116101c3578063095ea7b31461025257806318160ddd1461026757806323b872dd146102795780632a55205a1461028c57600080fd5b806301ffc9a7146101ea57806306fdde0314610212578063081812fc14610227575b600080fd5b6101fd6101f836600461294e565b61049a565b60405190151581526020015b60405180910390f35b61021a6104de565b60405161020991906129c3565b61023a6102353660046129d6565b610570565b6040516001600160a01b039091168152602001610209565b610265610260366004612a04565b61061b565b005b6008545b604051908152602001610209565b610265610287366004612a30565b61074c565b61029f61029a366004612a71565b6107d3565b604080516001600160a01b039093168352602083019190915201610209565b61026b6102cc366004612a04565b61080c565b61026b6108b4565b61026b6102e7366004612a04565b6108c3565b6102656102fa366004612a30565b6108ec565b61026b61030d3660046129d6565b610907565b61023a610320366004612a93565b6001600160a01b039081166000908152600b60205260409020541690565b61026561034c366004612a93565b6109ab565b600f5461023a906001600160a01b031681565b61023a6103723660046129d6565b6109ba565b61026b610385366004612a93565b610a45565b610265610adf565b61026b6103a0366004612a93565b610b45565b600a546001600160a01b031661023a565b61026b6103c43660046129d6565b610b63565b6102656103d73660046129d6565b610bbf565b61021a610d40565b61026b6103f2366004612a93565b610d4f565b610265610405366004612ab0565b610d70565b610265610418366004612b04565b610d7b565b61026561042b366004612be4565b610e09565b61021a61043e3660046129d6565b610f3f565b61021a611027565b6101fd610459366004612c46565b6001600160a01b03918216600090815260056020908152604080832093909416825291909152205460ff1690565b610265610495366004612a93565b6110b5565b60006001600160e01b031982167f2a55205a0000000000000000000000000000000000000000000000000000000014806104d857506104d882611194565b92915050565b6060600080546104ed90612c74565b80601f016020809104026020016040519081016040528092919081815260200182805461051990612c74565b80156105665780601f1061053b57610100808354040283529160200191610566565b820191906000526020600020905b81548152906001019060200180831161054957829003601f168201915b5050505050905090565b6000818152600260205260408120546001600160a01b03166105ff5760405162461bcd60e51b815260206004820152602c60248201527f4552433732313a20617070726f76656420717565727920666f72206e6f6e657860448201527f697374656e7420746f6b656e000000000000000000000000000000000000000060648201526084015b60405180910390fd5b506000908152600460205260409020546001600160a01b031690565b6000610626826109ba565b9050806001600160a01b0316836001600160a01b0316036106af5760405162461bcd60e51b815260206004820152602160248201527f4552433732313a20617070726f76616c20746f2063757272656e74206f776e6560448201527f720000000000000000000000000000000000000000000000000000000000000060648201526084016105f6565b336001600160a01b03821614806106cb57506106cb8133610459565b61073d5760405162461bcd60e51b815260206004820152603860248201527f4552433732313a20617070726f76652063616c6c6572206973206e6f74206f7760448201527f6e6572206e6f7220617070726f76656420666f7220616c6c000000000000000060648201526084016105f6565b61074783836111d2565b505050565b610756338261124d565b6107c85760405162461bcd60e51b815260206004820152603160248201527f4552433732313a207472616e736665722063616c6c6572206973206e6f74206f60448201527f776e6572206e6f7220617070726f76656400000000000000000000000000000060648201526084016105f6565b610747838383611355565b6000806107e8600a546001600160a01b031690565b6127106107f7856101f4612cbe565b6108019190612cf3565b915091509250929050565b600061081783610a45565b821061088b5760405162461bcd60e51b815260206004820152602b60248201527f455243373231456e756d657261626c653a206f776e657220696e646578206f7560448201527f74206f6620626f756e647300000000000000000000000000000000000000000060648201526084016105f6565b506001600160a01b03919091166000908152600660209081526040808320938352929052205490565b60006108be611540565b905090565b6001600160a01b0382166000908152600c602052604081206108e59083611667565b9392505050565b61074783838360405180602001604052806000815250610d7b565b600061091260085490565b82106109865760405162461bcd60e51b815260206004820152602c60248201527f455243373231456e756d657261626c653a20676c6f62616c20696e646578206f60448201527f7574206f6620626f756e6473000000000000000000000000000000000000000060648201526084016105f6565b6008828154811061099957610999612d07565b90600052602060002001549050919050565b336109b68183611776565b5050565b6000818152600260205260408120546001600160a01b0316806104d85760405162461bcd60e51b815260206004820152602960248201527f4552433732313a206f776e657220717565727920666f72206e6f6e657869737460448201527f656e7420746f6b656e000000000000000000000000000000000000000000000060648201526084016105f6565b60006001600160a01b038216610ac35760405162461bcd60e51b815260206004820152602a60248201527f4552433732313a2062616c616e636520717565727920666f7220746865207a6560448201527f726f20616464726573730000000000000000000000000000000000000000000060648201526084016105f6565b506001600160a01b031660009081526003602052604090205490565b600a546001600160a01b03163314610b395760405162461bcd60e51b815260206004820181905260248201527f4f776e61626c653a2063616c6c6572206973206e6f7420746865206f776e657260448201526064016105f6565b610b4360006117f5565b565b6001600160a01b0381166000908152600e60205260408120546104d8565b6000438210610bb45760405162461bcd60e51b815260206004820152601a60248201527f566f7465733a20626c6f636b206e6f7420796574206d696e656400000000000060448201526064016105f6565b6104d8600d83611667565b600f546040517f6352211e0000000000000000000000000000000000000000000000000000000081526004810183905233916001600160a01b031690636352211e90602401602060405180830381865afa158015610c21573d6000803e3d6000fd5b505050506040513d601f19601f82011682018060405250810190610c459190612d1d565b6001600160a01b031614610c9b5760405162461bcd60e51b815260206004820152601460248201527f6e6f74206f776e6572206f6620746f6b656e496400000000000000000000000060448201526064016105f6565b600f546040517f23b872dd000000000000000000000000000000000000000000000000000000008152336004820152306024820152604481018390526001600160a01b03909116906323b872dd90606401600060405180830381600087803b158015610d0657600080fd5b505af1158015610d1a573d6000803e3d6000fd5b505060108054610d3d9350339250906000610d3483612d3a565b91905055611854565b50565b6060600180546104ed90612c74565b6001600160a01b0381166000908152600c602052604081206104d8906119b7565b6109b6338383611a13565b610d85338361124d565b610df75760405162461bcd60e51b815260206004820152603160248201527f4552433732313a207472616e736665722063616c6c6572206973206e6f74206f60448201527f776e6572206e6f7220617070726f76656400000000000000000000000000000060648201526084016105f6565b610e0384848484611aff565b50505050565b83421115610e595760405162461bcd60e51b815260206004820152601860248201527f566f7465733a207369676e61747572652065787069726564000000000000000060448201526064016105f6565b604080517fe48329057bfd03d55e49b547132e39cffd9c1820ad7b9d4c5307691425d15adf60208201526001600160a01b038816918101919091526060810186905260808101859052600090610ed390610ecb9060a00160405160208183030381529060405280519060200120611b88565b858585611bf1565b9050610ede81611c19565b8614610f2c5760405162461bcd60e51b815260206004820152601460248201527f566f7465733a20696e76616c6964206e6f6e636500000000000000000000000060448201526064016105f6565b610f368188611776565b50505050505050565b6000818152600260205260409020546060906001600160a01b0316610fcc5760405162461bcd60e51b815260206004820152602f60248201527f4552433732314d657461646174613a2055524920717565727920666f72206e6f60448201527f6e6578697374656e7420746f6b656e000000000000000000000000000000000060648201526084016105f6565b6000610fd6611c41565b90506000815111610ff657604051806020016040528060008152506108e5565b8061100084611c61565b604051602001611011929190612d54565b6040516020818303038152906040529392505050565b6011805461103490612c74565b80601f016020809104026020016040519081016040528092919081815260200182805461106090612c74565b80156110ad5780601f10611082576101008083540402835291602001916110ad565b820191906000526020600020905b81548152906001019060200180831161109057829003601f168201915b505050505081565b600a546001600160a01b0316331461110f5760405162461bcd60e51b815260206004820181905260248201527f4f776e61626c653a2063616c6c6572206973206e6f7420746865206f776e657260448201526064016105f6565b6001600160a01b03811661118b5760405162461bcd60e51b815260206004820152602660248201527f4f776e61626c653a206e6577206f776e657220697320746865207a65726f206160448201527f646472657373000000000000000000000000000000000000000000000000000060648201526084016105f6565b610d3d816117f5565b60006001600160e01b031982167f780e9d630000000000000000000000000000000000000000000000000000000014806104d857506104d882611d96565b6000818152600460205260409020805473ffffffffffffffffffffffffffffffffffffffff19166001600160a01b0384169081179091558190611214826109ba565b6001600160a01b03167f8c5be1e5ebec7d5bd14f71427d1e84f3dd0314c0f7b2291e5b200ac8c7c3b92560405160405180910390a45050565b6000818152600260205260408120546001600160a01b03166112d75760405162461bcd60e51b815260206004820152602c60248201527f4552433732313a206f70657261746f7220717565727920666f72206e6f6e657860448201527f697374656e7420746f6b656e000000000000000000000000000000000000000060648201526084016105f6565b60006112e2836109ba565b9050806001600160a01b0316846001600160a01b0316148061132957506001600160a01b0380821660009081526005602090815260408083209388168352929052205460ff165b8061134d5750836001600160a01b031661134284610570565b6001600160a01b0316145b949350505050565b826001600160a01b0316611368826109ba565b6001600160a01b0316146113e45760405162461bcd60e51b815260206004820152602560248201527f4552433732313a207472616e736665722066726f6d20696e636f72726563742060448201527f6f776e657200000000000000000000000000000000000000000000000000000060648201526084016105f6565b6001600160a01b03821661145f5760405162461bcd60e51b8152602060048201526024808201527f4552433732313a207472616e7366657220746f20746865207a65726f2061646460448201527f726573730000000000000000000000000000000000000000000000000000000060648201526084016105f6565b61146a838383611e31565b6114756000826111d2565b6001600160a01b038316600090815260036020526040812080546001929061149e908490612d83565b90915550506001600160a01b03821660009081526003602052604081208054600192906114cc908490612d9a565b9091555050600081815260026020526040808220805473ffffffffffffffffffffffffffffffffffffffff19166001600160a01b0386811691821790925591518493918716917fddf252ad1be2c89b69c2b068fc378daa952ba7f163c4a11628f55a4df523b3ef91a4610747838383611e3c565b6000306001600160a01b037f00000000000000000000000000000000000000000000000000000000000000001614801561159957507f000000000000000000000000000000000000000000000000000000000000000046145b156115c357507f000000000000000000000000000000000000000000000000000000000000000090565b50604080517f00000000000000000000000000000000000000000000000000000000000000006020808301919091527f0000000000000000000000000000000000000000000000000000000000000000828401527f000000000000000000000000000000000000000000000000000000000000000060608301524660808301523060a0808401919091528351808403909101815260c0909201909252805191012090565b60004382106116b85760405162461bcd60e51b815260206004820181905260248201527f436865636b706f696e74733a20626c6f636b206e6f7420796574206d696e656460448201526064016105f6565b825460005b8181101561171d5760006116d18284611e47565b9050848660000182815481106116e9576116e9612d07565b60009182526020909120015463ffffffff16111561170957809250611717565b611714816001612d9a565b91505b506116bd565b8115611761578461172f600184612d83565b8154811061173f5761173f612d07565b60009182526020909120015464010000000090046001600160e01b0316611764565b60005b6001600160e01b031695945050505050565b6001600160a01b038281166000818152600b6020526040808220805486861673ffffffffffffffffffffffffffffffffffffffff19821681179092559151919094169392849290917f3134e8a2e6d97e929a7e54011ea5485d7d196dd5f0ba4d4ef95803e8e3fc257f9190a461074781836117f086611e62565b611e6d565b600a80546001600160a01b0383811673ffffffffffffffffffffffffffffffffffffffff19831681179093556040519116919082907f8be0079c531659141344cd1fd0a4f28419497f9722a3daafe3b4186f6b6457e090600090a35050565b6001600160a01b0382166118aa5760405162461bcd60e51b815260206004820181905260248201527f4552433732313a206d696e7420746f20746865207a65726f206164647265737360448201526064016105f6565b6000818152600260205260409020546001600160a01b03161561190f5760405162461bcd60e51b815260206004820152601c60248201527f4552433732313a20746f6b656e20616c7265616479206d696e7465640000000060448201526064016105f6565b61191b60008383611e31565b6001600160a01b0382166000908152600360205260408120805460019290611944908490612d9a565b9091555050600081815260026020526040808220805473ffffffffffffffffffffffffffffffffffffffff19166001600160a01b03861690811790915590518392907fddf252ad1be2c89b69c2b068fc378daa952ba7f163c4a11628f55a4df523b3ef908290a46109b660008383611e3c565b80546000908015611a0057826119ce600183612d83565b815481106119de576119de612d07565b60009182526020909120015464010000000090046001600160e01b0316611a03565b60005b6001600160e01b03169392505050565b816001600160a01b0316836001600160a01b031603611a745760405162461bcd60e51b815260206004820152601960248201527f4552433732313a20617070726f766520746f2063616c6c65720000000000000060448201526064016105f6565b6001600160a01b0383811660008181526005602090815260408083209487168084529482529182902080547fffffffffffffffffffffffffffffffffffffffffffffffffffffffffffffff001686151590811790915591519182527f17307eab39ab6107e8899845ad3d59bd9653f200f220920489ca2b5937696c31910160405180910390a3505050565b611b0a848484611355565b611b1684848484611faa565b610e035760405162461bcd60e51b815260206004820152603260248201527f4552433732313a207472616e7366657220746f206e6f6e20455243373231526560448201527f63656976657220696d706c656d656e746572000000000000000000000000000060648201526084016105f6565b60006104d8611b95611540565b836040517f19010000000000000000000000000000000000000000000000000000000000006020820152602281018390526042810182905260009060620160405160208183030381529060405280519060200120905092915050565b6000806000611c0287878787612130565b91509150611c0f8161221d565b5095945050505050565b6001600160a01b0381166000908152600e602052604090208054600181018255905b50919050565b6060604051806080016040528060438152602001612e4c60439139905090565b606081600003611ca457505060408051808201909152600181527f3000000000000000000000000000000000000000000000000000000000000000602082015290565b8160005b8115611cce5780611cb881612d3a565b9150611cc79050600a83612cf3565b9150611ca8565b60008167ffffffffffffffff811115611ce957611ce9612aee565b6040519080825280601f01601f191660200182016040528015611d13576020820181803683370190505b5090505b841561134d57611d28600183612d83565b9150611d35600a86612db2565b611d40906030612d9a565b60f81b818381518110611d5557611d55612d07565b60200101907effffffffffffffffffffffffffffffffffffffffffffffffffffffffffffff1916908160001a905350611d8f600a86612cf3565b9450611d17565b60006001600160e01b031982167f80ac58cd000000000000000000000000000000000000000000000000000000001480611df957506001600160e01b031982167f5b5e139f00000000000000000000000000000000000000000000000000000000145b806104d857507f01ffc9a7000000000000000000000000000000000000000000000000000000006001600160e01b03198316146104d8565b610747838383612409565b6107478383836124c1565b6000611e566002848418612cf3565b6108e590848416612d9a565b60006104d882610a45565b816001600160a01b0316836001600160a01b031614158015611e8f5750600081115b15610747576001600160a01b03831615611f1d576001600160a01b0383166000908152600c602052604081208190611eca906124cd856124d9565b91509150846001600160a01b03167fdec2bacdd2f05b59de34da9b523dff8be42e5e38e818c82fdb0bae774387a7248383604051611f12929190918252602082015260400190565b60405180910390a250505b6001600160a01b03821615610747576001600160a01b0382166000908152600c602052604081208190611f5390612507856124d9565b91509150836001600160a01b03167fdec2bacdd2f05b59de34da9b523dff8be42e5e38e818c82fdb0bae774387a7248383604051611f9b929190918252602082015260400190565b60405180910390a25050505050565b60006001600160a01b0384163b15612128576040517f150b7a020000000000000000000000000000000000000000000000000000000081526001600160a01b0385169063150b7a0290612007903390899088908890600401612dc6565b6020604051808303816000875af1925050508015612042575060408051601f3d908101601f1916820190925261203f91810190612e02565b60015b6120f5573d808015612070576040519150601f19603f3d011682016040523d82523d6000602084013e612075565b606091505b5080516000036120ed5760405162461bcd60e51b815260206004820152603260248201527f4552433732313a207472616e7366657220746f206e6f6e20455243373231526560448201527f63656976657220696d706c656d656e746572000000000000000000000000000060648201526084016105f6565b805181602001fd5b6001600160e01b0319167f150b7a020000000000000000000000000000000000000000000000000000000014905061134d565b50600161134d565b6000807f7fffffffffffffffffffffffffffffff5d576e7357a4501ddfe92f46681b20a08311156121675750600090506003612214565b8460ff16601b1415801561217f57508460ff16601c14155b156121905750600090506004612214565b6040805160008082526020820180845289905260ff881692820192909252606081018690526080810185905260019060a0016020604051602081039080840390855afa1580156121e4573d6000803e3d6000fd5b5050604051601f1901519150506001600160a01b03811661220d57600060019250925050612214565b9150600090505b94509492505050565b600081600481111561223157612231612e1f565b036122395750565b600181600481111561224d5761224d612e1f565b0361229a5760405162461bcd60e51b815260206004820152601860248201527f45434453413a20696e76616c6964207369676e6174757265000000000000000060448201526064016105f6565b60028160048111156122ae576122ae612e1f565b036122fb5760405162461bcd60e51b815260206004820152601f60248201527f45434453413a20696e76616c6964207369676e6174757265206c656e6774680060448201526064016105f6565b600381600481111561230f5761230f612e1f565b036123825760405162461bcd60e51b815260206004820152602260248201527f45434453413a20696e76616c6964207369676e6174757265202773272076616c60448201527f756500000000000000000000000000000000000000000000000000000000000060648201526084016105f6565b600481600481111561239657612396612e1f565b03610d3d5760405162461bcd60e51b815260206004820152602260248201527f45434453413a20696e76616c6964207369676e6174757265202776272076616c60448201527f756500000000000000000000000000000000000000000000000000000000000060648201526084016105f6565b6001600160a01b0383166124645761245f81600880546000838152600960205260408120829055600182018355919091527ff3f7a9fe364faab93b216da50a3214154f22a0a2b415b23a84c8169e8b636ee30155565b612487565b816001600160a01b0316836001600160a01b031614612487576124878382612513565b6001600160a01b03821661249e57610747816125b0565b826001600160a01b0316826001600160a01b03161461074757610747828261265f565b610747838360016126a3565b60006108e58284612d83565b6000806124fb856124f66124ec886119b7565b868863ffffffff16565b612713565b91509150935093915050565b60006108e58284612d9a565b6000600161252084610a45565b61252a9190612d83565b60008381526007602052604090205490915080821461257d576001600160a01b03841660009081526006602090815260408083208584528252808320548484528184208190558352600790915290208190555b5060009182526007602090815260408084208490556001600160a01b039094168352600681528383209183525290812055565b6008546000906125c290600190612d83565b600083815260096020526040812054600880549394509092849081106125ea576125ea612d07565b90600052602060002001549050806008838154811061260b5761260b612d07565b600091825260208083209091019290925582815260099091526040808220849055858252812055600880548061264357612643612e35565b6001900381819060005260206000200160009055905550505050565b600061266a83610a45565b6001600160a01b039093166000908152600660209081526040808320868452825280832085905593825260079052919091209190915550565b6001600160a01b0383166126c2576126bf600d612507836124d9565b50505b6001600160a01b0382166126e1576126de600d6124cd836124d9565b50505b6001600160a01b038381166000908152600b602052604080822054858416835291205461074792918216911683611e6d565b8154600090819081612724866119b7565b90506000821180156127625750438661273e600185612d83565b8154811061274e5761274e612d07565b60009182526020909120015463ffffffff16145b156127c25761277085612839565b8661277c600185612d83565b8154811061278c5761278c612d07565b9060005260206000200160000160046101000a8154816001600160e01b0302191690836001600160e01b03160217905550612830565b8560000160405180604001604052806127da436128bc565b63ffffffff1681526020016127ee88612839565b6001600160e01b0390811690915282546001810184556000938452602093849020835194909301519091166401000000000263ffffffff909316929092179101555b95939450505050565b60006001600160e01b038211156128b85760405162461bcd60e51b815260206004820152602760248201527f53616665436173743a2076616c756520646f65736e27742066697420696e203260448201527f323420626974730000000000000000000000000000000000000000000000000060648201526084016105f6565b5090565b600063ffffffff8211156128b85760405162461bcd60e51b815260206004820152602660248201527f53616665436173743a2076616c756520646f65736e27742066697420696e203360448201527f322062697473000000000000000000000000000000000000000000000000000060648201526084016105f6565b6001600160e01b031981168114610d3d57600080fd5b60006020828403121561296057600080fd5b81356108e581612938565b60005b8381101561298657818101518382015260200161296e565b83811115610e035750506000910152565b600081518084526129af81602086016020860161296b565b601f01601f19169290920160200192915050565b6020815260006108e56020830184612997565b6000602082840312156129e857600080fd5b5035919050565b6001600160a01b0381168114610d3d57600080fd5b60008060408385031215612a1757600080fd5b8235612a22816129ef565b946020939093013593505050565b600080600060608486031215612a4557600080fd5b8335612a50816129ef565b92506020840135612a60816129ef565b929592945050506040919091013590565b60008060408385031215612a8457600080fd5b50508035926020909101359150565b600060208284031215612aa557600080fd5b81356108e5816129ef565b60008060408385031215612ac357600080fd5b8235612ace816129ef565b915060208301358015158114612ae357600080fd5b809150509250929050565b634e487b7160e01b600052604160045260246000fd5b60008060008060808587031215612b1a57600080fd5b8435612b25816129ef565b93506020850135612b35816129ef565b925060408501359150606085013567ffffffffffffffff80821115612b5957600080fd5b818701915087601f830112612b6d57600080fd5b813581811115612b7f57612b7f612aee565b604051601f8201601f19908116603f01168101908382118183101715612ba757612ba7612aee565b816040528281528a6020848701011115612bc057600080fd5b82602086016020830137600060208483010152809550505050505092959194509250565b60008060008060008060c08789031215612bfd57600080fd5b8635612c08816129ef565b95506020870135945060408701359350606087013560ff81168114612c2c57600080fd5b9598949750929560808101359460a0909101359350915050565b60008060408385031215612c5957600080fd5b8235612c64816129ef565b91506020830135612ae3816129ef565b600181811c90821680612c8857607f821691505b602082108103611c3b57634e487b7160e01b600052602260045260246000fd5b634e487b7160e01b600052601160045260246000fd5b6000816000190483118215151615612cd857612cd8612ca8565b500290565b634e487b7160e01b600052601260045260246000fd5b600082612d0257612d02612cdd565b500490565b634e487b7160e01b600052603260045260246000fd5b600060208284031215612d2f57600080fd5b81516108e5816129ef565b60006000198203612d4d57612d4d612ca8565b5060010190565b60008351612d6681846020880161296b565b835190830190612d7a81836020880161296b565b01949350505050565b600082821015612d9557612d95612ca8565b500390565b60008219821115612dad57612dad612ca8565b500190565b600082612dc157612dc1612cdd565b500690565b60006001600160a01b03808716835280861660208401525083604083015260806060830152612df86080830184612997565b9695505050505050565b600060208284031215612e1457600080fd5b81516108e581612938565b634e487b7160e01b600052602160045260246000fd5b634e487b7160e01b600052603160045260246000fdfe697066733a2f2f6261667962656962756d746b6335646e326775626f6e33717933627932326b68357a73697461336f35787a6777776b3733696d6b733336376376612fa26469706673582212206c290e416b4ab2964fc1a910f09584d71e3b0265c20c11106068e990a46d866264736f6c634300080e0033",
  "linkReferences": {},
  "deployedLinkReferences": {}
}