{
  "_format": "hh-sol-artifact-1",
  "contractName": "ProjectAToken",
  "sourceName": "contracts/ProjectAToken.sol",
  "abi": [
    {
      "inputs": [
        {
          "internalType": "contract IMintTreeToken",
          "name": "_mintTree",
          "type": "address"
        },
        {
          "internalType": "string",
          "name": "_contractURI",
          "type": "string"
        },
        {
          "internalType": "address",
          "name": "_owner",
          "type": "address"
        }
      ],
      "stateMutability": "nonpayable",
      "type": "constructor"
    },
    {
      "anonymous": false,
      "inputs": [
        {
          "indexed": true,
          "internalType": "address",
          "name": "owner",
          "type": "address"
        },
        {
          "indexed": true,
          "internalType": "address",
          "name": "approved",
          "type": "address"
        },
        {
          "indexed": true,
          "internalType": "uint256",
          "name": "tokenId",
          "type": "uint256"
        }
      ],
      "name": "Approval",
      "type": "event"
    },
    {
      "anonymous": false,
      "inputs": [
        {
          "indexed": true,
          "internalType": "address",
          "name": "owner",
          "type": "address"
        },
        {
          "indexed": true,
          "internalType": "address",
          "name": "operator",
          "type": "address"
        },
        {
          "indexed": false,
          "internalType": "bool",
          "name": "approved",
          "type": "bool"
        }
      ],
      "name": "ApprovalForAll",
      "type": "event"
    },
    {
      "anonymous": false,
      "inputs": [
        {
          "indexed": true,
          "internalType": "address",
          "name": "delegator",
          "type": "address"
        },
        {
          "indexed": true,
          "internalType": "address",
          "name": "fromDelegate",
          "type": "address"
        },
        {
          "indexed": true,
          "internalType": "address",
          "name": "toDelegate",
          "type": "address"
        }
      ],
      "name": "DelegateChanged",
      "type": "event"
    },
    {
      "anonymous": false,
      "inputs": [
        {
          "indexed": true,
          "internalType": "address",
          "name": "delegate",
          "type": "address"
        },
        {
          "indexed": false,
          "internalType": "uint256",
          "name": "previousBalance",
          "type": "uint256"
        },
        {
          "indexed": false,
          "internalType": "uint256",
          "name": "newBalance",
          "type": "uint256"
        }
      ],
      "name": "DelegateVotesChanged",
      "type": "event"
    },
    {
      "anonymous": false,
      "inputs": [
        {
          "indexed": true,
          "internalType": "address",
          "name": "previousOwner",
          "type": "address"
        },
        {
          "indexed": true,
          "internalType": "address",
          "name": "newOwner",
          "type": "address"
        }
      ],
      "name": "OwnershipTransferred",
      "type": "event"
    },
    {
      "anonymous": false,
      "inputs": [
        {
          "indexed": true,
          "internalType": "address",
          "name": "from",
          "type": "address"
        },
        {
          "indexed": true,
          "internalType": "address",
          "name": "to",
          "type": "address"
        },
        {
          "indexed": true,
          "internalType": "uint256",
          "name": "tokenId",
          "type": "uint256"
        }
      ],
      "name": "Transfer",
      "type": "event"
    },
    {
      "inputs": [],
      "name": "DOMAIN_SEPARATOR",
      "outputs": [
        {
          "internalType": "bytes32",
          "name": "",
          "type": "bytes32"
        }
      ],
      "stateMutability": "view",
      "type": "function"
    },
    {
      "inputs": [
        {
          "internalType": "address",
          "name": "to",
          "type": "address"
        },
        {
          "internalType": "uint256",
          "name": "tokenId",
          "type": "uint256"
        }
      ],
      "name": "approve",
      "outputs": [],
      "stateMutability": "nonpayable",
      "type": "function"
    },
    {
      "inputs": [
        {
          "internalType": "address",
          "name": "owner",
          "type": "address"
        }
      ],
      "name": "balanceOf",
      "outputs": [
        {
          "internalType": "uint256",
          "name": "",
          "type": "uint256"
        }
      ],
      "stateMutability": "view",
      "type": "function"
    },
    {
      "inputs": [],
      "name": "contractURI",
      "outputs": [
        {
          "internalType": "string",
          "name": "",
          "type": "string"
        }
      ],
      "stateMutability": "view",
      "type": "function"
    },
    {
      "inputs": [
        {
          "internalType": "address",
          "name": "delegatee",
          "type": "address"
        }
      ],
      "name": "delegate",
      "outputs": [],
      "stateMutability": "nonpayable",
      "type": "function"
    },
    {
      "inputs": [
        {
          "internalType": "address",
          "name": "delegatee",
          "type": "address"
        },
        {
          "internalType": "uint256",
          "name": "nonce",
          "type": "uint256"
        },
        {
          "internalType": "uint256",
          "name": "expiry",
          "type": "uint256"
        },
        {
          "internalType": "uint8",
          "name": "v",
          "type": "uint8"
        },
        {
          "internalType": "bytes32",
          "name": "r",
          "type": "bytes32"
        },
        {
          "internalType": "bytes32",
          "name": "s",
          "type": "bytes32"
        }
      ],
      "name": "delegateBySig",
      "outputs": [],
      "stateMutability": "nonpayable",
      "type": "function"
    },
    {
      "inputs": [
        {
          "internalType": "address",
          "name": "account",
          "type": "address"
        }
      ],
      "name": "delegates",
      "outputs": [
        {
          "internalType": "address",
          "name": "",
          "type": "address"
        }
      ],
      "stateMutability": "view",
      "type": "function"
    },
    {
      "inputs": [
        {
          "internalType": "uint256",
          "name": "tokenId",
          "type": "uint256"
        }
      ],
      "name": "getApproved",
      "outputs": [
        {
          "internalType": "address",
          "name": "",
          "type": "address"
        }
      ],
      "stateMutability": "view",
      "type": "function"
    },
    {
      "inputs": [
        {
          "internalType": "uint256",
          "name": "blockNumber",
          "type": "uint256"
        }
      ],
      "name": "getPastTotalSupply",
      "outputs": [
        {
          "internalType": "uint256",
          "name": "",
          "type": "uint256"
        }
      ],
      "stateMutability": "view",
      "type": "function"
    },
    {
      "inputs": [
        {
          "internalType": "address",
          "name": "account",
          "type": "address"
        },
        {
          "internalType": "uint256",
          "name": "blockNumber",
          "type": "uint256"
        }
      ],
      "name": "getPastVotes",
      "outputs": [
        {
          "internalType": "uint256",
          "name": "",
          "type": "uint256"
        }
      ],
      "stateMutability": "view",
      "type": "function"
    },
    {
      "inputs": [
        {
          "internalType": "address",
          "name": "account",
          "type": "address"
        }
      ],
      "name": "getVotes",
      "outputs": [
        {
          "internalType": "uint256",
          "name": "",
          "type": "uint256"
        }
      ],
      "stateMutability": "view",
      "type": "function"
    },
    {
      "inputs": [
        {
          "internalType": "address",
          "name": "owner",
          "type": "address"
        },
        {
          "internalType": "address",
          "name": "operator",
          "type": "address"
        }
      ],
      "name": "isApprovedForAll",
      "outputs": [
        {
          "internalType": "bool",
          "name": "",
          "type": "bool"
        }
      ],
      "stateMutability": "view",
      "type": "function"
    },
    {
      "inputs": [],
      "name": "mintTree",
      "outputs": [
        {
          "internalType": "contract IMintTreeToken",
          "name": "",
          "type": "address"
        }
      ],
      "stateMutability": "view",
      "type": "function"
    },
    {
      "inputs": [],
      "name": "name",
      "outputs": [
        {
          "internalType": "string",
          "name": "",
          "type": "string"
        }
      ],
      "stateMutability": "view",
      "type": "function"
    },
    {
      "inputs": [
        {
          "internalType": "address",
          "name": "owner",
          "type": "address"
        }
      ],
      "name": "nonces",
      "outputs": [
        {
          "internalType": "uint256",
          "name": "",
          "type": "uint256"
        }
      ],
      "stateMutability": "view",
      "type": "function"
    },
    {
      "inputs": [],
      "name": "owner",
      "outputs": [
        {
          "internalType": "address",
          "name": "",
          "type": "address"
        }
      ],
      "stateMutability": "view",
      "type": "function"
    },
    {
      "inputs": [
        {
          "internalType": "uint256",
          "name": "tokenId",
          "type": "uint256"
        }
      ],
      "name": "ownerOf",
      "outputs": [
        {
          "internalType": "address",
          "name": "",
          "type": "address"
        }
      ],
      "stateMutability": "view",
      "type": "function"
    },
    {
      "inputs": [],
      "name": "renounceOwnership",
      "outputs": [],
      "stateMutability": "nonpayable",
      "type": "function"
    },
    {
      "inputs": [
        {
          "internalType": "uint256",
          "name": "",
          "type": "uint256"
        },
        {
          "internalType": "uint256",
          "name": "amount",
          "type": "uint256"
        }
      ],
      "name": "royaltyInfo",
      "outputs": [
        {
          "internalType": "address",
          "name": "",
          "type": "address"
        },
        {
          "internalType": "uint256",
          "name": "",
          "type": "uint256"
        }
      ],
      "stateMutability": "view",
      "type": "function"
    },
    {
      "inputs": [
        {
          "internalType": "address",
          "name": "from",
          "type": "address"
        },
        {
          "internalType": "address",
          "name": "to",
          "type": "address"
        },
        {
          "internalType": "uint256",
          "name": "tokenId",
          "type": "uint256"
        }
      ],
      "name": "safeTransferFrom",
      "outputs": [],
      "stateMutability": "nonpayable",
      "type": "function"
    },
    {
      "inputs": [
        {
          "internalType": "address",
          "name": "from",
          "type": "address"
        },
        {
          "internalType": "address",
          "name": "to",
          "type": "address"
        },
        {
          "internalType": "uint256",
          "name": "tokenId",
          "type": "uint256"
        },
        {
          "internalType": "bytes",
          "name": "_data",
          "type": "bytes"
        }
      ],
      "name": "safeTransferFrom",
      "outputs": [],
      "stateMutability": "nonpayable",
      "type": "function"
    },
    {
      "inputs": [
        {
          "internalType": "address",
          "name": "operator",
          "type": "address"
        },
        {
          "internalType": "bool",
          "name": "approved",
          "type": "bool"
        }
      ],
      "name": "setApprovalForAll",
      "outputs": [],
      "stateMutability": "nonpayable",
      "type": "function"
    },
    {
      "inputs": [
        {
          "internalType": "bytes4",
          "name": "interfaceId",
          "type": "bytes4"
        }
      ],
      "name": "supportsInterface",
      "outputs": [
        {
          "internalType": "bool",
          "name": "",
          "type": "bool"
        }
      ],
      "stateMutability": "view",
      "type": "function"
    },
    {
      "inputs": [
        {
          "internalType": "uint256",
          "name": "tokenId",
          "type": "uint256"
        }
      ],
      "name": "swap",
      "outputs": [],
      "stateMutability": "nonpayable",
      "type": "function"
    },
    {
      "inputs": [],
      "name": "symbol",
      "outputs": [
        {
          "internalType": "string",
          "name": "",
          "type": "string"
        }
      ],
      "stateMutability": "view",
      "type": "function"
    },
    {
      "inputs": [
        {
          "internalType": "uint256",
          "name": "index",
          "type": "uint256"
        }
      ],
      "name": "tokenByIndex",
      "outputs": [
        {
          "internalType": "uint256",
          "name": "",
          "type": "uint256"
        }
      ],
      "stateMutability": "view",
      "type": "function"
    },
    {
      "inputs": [
        {
          "internalType": "address",
          "name": "owner",
          "type": "address"
        },
        {
          "internalType": "uint256",
          "name": "index",
          "type": "uint256"
        }
      ],
      "name": "tokenOfOwnerByIndex",
      "outputs": [
        {
          "internalType": "uint256",
          "name": "",
          "type": "uint256"
        }
      ],
      "stateMutability": "view",
      "type": "function"
    },
    {
      "inputs": [
        {
          "internalType": "uint256",
          "name": "tokenId",
          "type": "uint256"
        }
      ],
      "name": "tokenURI",
      "outputs": [
        {
          "internalType": "string",
          "name": "",
          "type": "string"
        }
      ],
      "stateMutability": "view",
      "type": "function"
    },
    {
      "inputs": [],
      "name": "totalSupply",
      "outputs": [
        {
          "internalType": "uint256",
          "name": "",
          "type": "uint256"
        }
      ],
      "stateMutability": "view",
      "type": "function"
    },
    {
      "inputs": [
        {
          "internalType": "address",
          "name": "from",
          "type": "address"
        },
        {
          "internalType": "address",
          "name": "to",
          "type": "address"
        },
        {
          "internalType": "uint256",
          "name": "tokenId",
          "type": "uint256"
        }
      ],
      "name": "transferFrom",
      "outputs": [],
      "stateMutability": "nonpayable",
      "type": "function"
    },
    {
      "inputs": [
        {
          "internalType": "address",
          "name": "newOwner",
          "type": "address"
        }
      ],
      "name": "transferOwnership",
      "outputs": [],
      "stateMutability": "nonpayable",
      "type": "function"
    }
  ],
  "bytecode": "0x6101406040523480156200001257600080fd5b5060405162005bb038038062005bb08339818101604052810190620000389190620006c1565b6040518060400160405280601481526020017f4d696e745472656550726f6a656374546f6b656e0000000000000000000000008152506040518060400160405280600181526020017f31000000000000000000000000000000000000000000000000000000000000008152506040518060400160405280600d81526020017f50726f6a65637441546f6b656e000000000000000000000000000000000000008152506040518060400160405280600481526020017f4d33543100000000000000000000000000000000000000000000000000000000815250816000908051906020019062000128929190620003ca565b50806001908051906020019062000141929190620003ca565b5050506200016462000158620002c060201b60201c565b620002c860201b60201c565b60008280519060200120905060008280519060200120905060007f8b73c3c69bb8fe3d512ecc4cf759cc79239f7b179b0ffacaa9a75d522b39400f90508260e081815250508161010081815250504660a08181525050620001cd8184846200038e60201b60201c565b608081815250503073ffffffffffffffffffffffffffffffffffffffff1660c08173ffffffffffffffffffffffffffffffffffffffff1681525050806101208181525050505050505082600f60006101000a81548173ffffffffffffffffffffffffffffffffffffffff021916908373ffffffffffffffffffffffffffffffffffffffff16021790555081601190805190602001906200026f929190620003ca565b50600073ffffffffffffffffffffffffffffffffffffffff168173ffffffffffffffffffffffffffffffffffffffff1614620002b757620002b681620002c860201b60201c565b5b50505062000844565b600033905090565b6000600a60009054906101000a900473ffffffffffffffffffffffffffffffffffffffff16905081600a60006101000a81548173ffffffffffffffffffffffffffffffffffffffff021916908373ffffffffffffffffffffffffffffffffffffffff1602179055508173ffffffffffffffffffffffffffffffffffffffff168173ffffffffffffffffffffffffffffffffffffffff167f8be0079c531659141344cd1fd0a4f28419497f9722a3daafe3b4186f6b6457e060405160405180910390a35050565b60008383834630604051602001620003ab95949392919062000783565b6040516020818303038152906040528051906020012090509392505050565b828054620003d8906200080f565b90600052602060002090601f016020900481019282620003fc576000855562000448565b82601f106200041757805160ff191683800117855562000448565b8280016001018555821562000448579182015b82811115620004475782518255916020019190600101906200042a565b5b5090506200045791906200045b565b5090565b5b80821115620004765760008160009055506001016200045c565b5090565b6000604051905090565b600080fd5b600080fd5b600073ffffffffffffffffffffffffffffffffffffffff82169050919050565b6000620004bb826200048e565b9050919050565b6000620004cf82620004ae565b9050919050565b620004e181620004c2565b8114620004ed57600080fd5b50565b6000815190506200050181620004d6565b92915050565b600080fd5b600080fd5b6000601f19601f8301169050919050565b7f4e487b7100000000000000000000000000000000000000000000000000000000600052604160045260246000fd5b6200055c8262000511565b810181811067ffffffffffffffff821117156200057e576200057d62000522565b5b80604052505050565b6000620005936200047a565b9050620005a1828262000551565b919050565b600067ffffffffffffffff821115620005c457620005c362000522565b5b620005cf8262000511565b9050602081019050919050565b60005b83811015620005fc578082015181840152602081019050620005df565b838111156200060c576000848401525b50505050565b6000620006296200062384620005a6565b62000587565b9050828152602081018484840111156200064857620006476200050c565b5b62000655848285620005dc565b509392505050565b600082601f83011262000675576200067462000507565b5b81516200068784826020860162000612565b91505092915050565b6200069b81620004ae565b8114620006a757600080fd5b50565b600081519050620006bb8162000690565b92915050565b600080600060608486031215620006dd57620006dc62000484565b5b6000620006ed86828701620004f0565b935050602084015167ffffffffffffffff81111562000711576200071062000489565b5b6200071f868287016200065d565b92505060406200073286828701620006aa565b9150509250925092565b6000819050919050565b62000751816200073c565b82525050565b6000819050919050565b6200076c8162000757565b82525050565b6200077d81620004ae565b82525050565b600060a0820190506200079a600083018862000746565b620007a9602083018762000746565b620007b8604083018662000746565b620007c7606083018562000761565b620007d6608083018462000772565b9695505050505050565b7f4e487b7100000000000000000000000000000000000000000000000000000000600052602260045260246000fd5b600060028204905060018216806200082857607f821691505b6020821081036200083e576200083d620007e0565b5b50919050565b60805160a05160c05160e051610100516101205161531c620008946000396000611b1601526000611b5801526000611b3701526000611a6c01526000611ac201526000611aeb015261531c6000f3fe608060405234801561001057600080fd5b50600436106101e55760003560e01c80636352211e1161010f5780639ab24eb0116100a2578063c87b56dd11610071578063c87b56dd146105c9578063e8a3d485146105f9578063e985e9c514610617578063f2fde38b14610647576101e5565b80639ab24eb014610545578063a22cb46514610575578063b88d4fde14610591578063c3cda520146105ad576101e5565b80638da5cb5b116100de5780638da5cb5b146104bd5780638e539e8c146104db57806394b918de1461050b57806395d89b4114610527576101e5565b80636352211e1461042357806370a0823114610453578063715018a6146104835780637ecebe001461048d576101e5565b80632f745c59116101875780634f6ccce7116101565780634f6ccce714610389578063587cde1e146103b95780635c19a95c146103e957806361c05ab614610405576101e5565b80632f745c59146102ef5780633644e5151461031f5780633a46b1a81461033d57806342842e0e1461036d576101e5565b8063095ea7b3116101c3578063095ea7b31461026857806318160ddd1461028457806323b872dd146102a25780632a55205a146102be576101e5565b806301ffc9a7146101ea57806306fdde031461021a578063081812fc14610238575b600080fd5b61020460048036038101906101ff9190613650565b610663565b6040516102119190613698565b60405180910390f35b6102226106c4565b60405161022f919061374c565b60405180910390f35b610252600480360381019061024d91906137a4565b610756565b60405161025f9190613812565b60405180910390f35b610282600480360381019061027d9190613859565b6107db565b005b61028c6108f2565b60405161029991906138a8565b60405180910390f35b6102bc60048036038101906102b791906138c3565b6108ff565b005b6102d860048036038101906102d39190613916565b61095f565b6040516102e6929190613956565b60405180910390f35b61030960048036038101906103049190613859565b610990565b60405161031691906138a8565b60405180910390f35b610327610a35565b6040516103349190613998565b60405180910390f35b61035760048036038101906103529190613859565b610a44565b60405161036491906138a8565b60405180910390f35b610387600480360381019061038291906138c3565b610a9f565b005b6103a3600480360381019061039e91906137a4565b610abf565b6040516103b091906138a8565b60405180910390f35b6103d360048036038101906103ce91906139b3565b610b30565b6040516103e09190613812565b60405180910390f35b61040360048036038101906103fe91906139b3565b610b99565b005b61040d610bb3565b60405161041a9190613a3f565b60405180910390f35b61043d600480360381019061043891906137a4565b610bd9565b60405161044a9190613812565b60405180910390f35b61046d600480360381019061046891906139b3565b610c8a565b60405161047a91906138a8565b60405180910390f35b61048b610d41565b005b6104a760048036038101906104a291906139b3565b610dc9565b6040516104b491906138a8565b60405180910390f35b6104c5610e19565b6040516104d29190613812565b60405180910390f35b6104f560048036038101906104f091906137a4565b610e43565b60405161050291906138a8565b60405180910390f35b610525600480360381019061052091906137a4565b610ea2565b005b61052f61105f565b60405161053c919061374c565b60405180910390f35b61055f600480360381019061055a91906139b3565b6110f1565b60405161056c91906138a8565b60405180910390f35b61058f600480360381019061058a9190613a86565b611141565b005b6105ab60048036038101906105a69190613bfb565b611157565b005b6105c760048036038101906105c29190613ce3565b6111b9565b005b6105e360048036038101906105de91906137a4565b6112bd565b6040516105f0919061374c565b60405180910390f35b610601611364565b60405161060e919061374c565b60405180910390f35b610631600480360381019061062c9190613d70565b6113f2565b60405161063e9190613698565b60405180910390f35b610661600480360381019061065c91906139b3565b611486565b005b6000632a55205a60e01b7bffffffffffffffffffffffffffffffffffffffffffffffffffffffff1916827bffffffffffffffffffffffffffffffffffffffffffffffffffffffff191614806106bd57506106bc8261157d565b5b9050919050565b6060600080546106d390613ddf565b80601f01602080910402602001604051908101604052809291908181526020018280546106ff90613ddf565b801561074c5780601f106107215761010080835404028352916020019161074c565b820191906000526020600020905b81548152906001019060200180831161072f57829003601f168201915b5050505050905090565b6000610761826115f7565b6107a0576040517f08c379a000000000000000000000000000000000000000000000000000000000815260040161079790613e82565b60405180910390fd5b6004600083815260200190815260200160002060009054906101000a900473ffffffffffffffffffffffffffffffffffffffff169050919050565b60006107e682610bd9565b90508073ffffffffffffffffffffffffffffffffffffffff168373ffffffffffffffffffffffffffffffffffffffff1603610856576040517f08c379a000000000000000000000000000000000000000000000000000000000815260040161084d90613f14565b60405180910390fd5b8073ffffffffffffffffffffffffffffffffffffffff16610875611663565b73ffffffffffffffffffffffffffffffffffffffff1614806108a457506108a38161089e611663565b6113f2565b5b6108e3576040517f08c379a00000000000000000000000000000000000000000000000000000000081526004016108da90613fa6565b60405180910390fd5b6108ed838361166b565b505050565b6000600880549050905090565b61091061090a611663565b82611724565b61094f576040517f08c379a000000000000000000000000000000000000000000000000000000000815260040161094690614038565b60405180910390fd5b61095a838383611802565b505050565b60008061096a610e19565b6127106101f48561097b9190614087565b6109859190614110565b915091509250929050565b600061099b83610c8a565b82106109dc576040517f08c379a00000000000000000000000000000000000000000000000000000000081526004016109d3906141b3565b60405180910390fd5b600660008473ffffffffffffffffffffffffffffffffffffffff1673ffffffffffffffffffffffffffffffffffffffff168152602001908152602001600020600083815260200190815260200160002054905092915050565b6000610a3f611a68565b905090565b6000610a9782600c60008673ffffffffffffffffffffffffffffffffffffffff1673ffffffffffffffffffffffffffffffffffffffff168152602001908152602001600020611b8290919063ffffffff16565b905092915050565b610aba83838360405180602001604052806000815250611157565b505050565b6000610ac96108f2565b8210610b0a576040517f08c379a0000000000000000000000000000000000000000000000000000000008152600401610b0190614245565b60405180910390fd5b60088281548110610b1e57610b1d614265565b5b90600052602060002001549050919050565b6000600b60008373ffffffffffffffffffffffffffffffffffffffff1673ffffffffffffffffffffffffffffffffffffffff16815260200190815260200160002060009054906101000a900473ffffffffffffffffffffffffffffffffffffffff169050919050565b6000610ba3611663565b9050610baf8183611cda565b5050565b600f60009054906101000a900473ffffffffffffffffffffffffffffffffffffffff1681565b6000806002600084815260200190815260200160002060009054906101000a900473ffffffffffffffffffffffffffffffffffffffff169050600073ffffffffffffffffffffffffffffffffffffffff168173ffffffffffffffffffffffffffffffffffffffff1603610c81576040517f08c379a0000000000000000000000000000000000000000000000000000000008152600401610c7890614306565b60405180910390fd5b80915050919050565b60008073ffffffffffffffffffffffffffffffffffffffff168273ffffffffffffffffffffffffffffffffffffffff1603610cfa576040517f08c379a0000000000000000000000000000000000000000000000000000000008152600401610cf190614398565b60405180910390fd5b600360008373ffffffffffffffffffffffffffffffffffffffff1673ffffffffffffffffffffffffffffffffffffffff168152602001908152602001600020549050919050565b610d49611663565b73ffffffffffffffffffffffffffffffffffffffff16610d67610e19565b73ffffffffffffffffffffffffffffffffffffffff1614610dbd576040517f08c379a0000000000000000000000000000000000000000000000000000000008152600401610db490614404565b60405180910390fd5b610dc76000611dee565b565b6000610e12600e60008473ffffffffffffffffffffffffffffffffffffffff1673ffffffffffffffffffffffffffffffffffffffff168152602001908152602001600020611eb4565b9050919050565b6000600a60009054906101000a900473ffffffffffffffffffffffffffffffffffffffff16905090565b6000438210610e87576040517f08c379a0000000000000000000000000000000000000000000000000000000008152600401610e7e90614470565b60405180910390fd5b610e9b82600d611b8290919063ffffffff16565b9050919050565b3373ffffffffffffffffffffffffffffffffffffffff16600f60009054906101000a900473ffffffffffffffffffffffffffffffffffffffff1673ffffffffffffffffffffffffffffffffffffffff16636352211e836040518263ffffffff1660e01b8152600401610f1491906138a8565b602060405180830381865afa158015610f31573d6000803e3d6000fd5b505050506040513d601f19601f82011682018060405250810190610f5591906144a5565b73ffffffffffffffffffffffffffffffffffffffff1614610fab576040517f08c379a0000000000000000000000000000000000000000000000000000000008152600401610fa29061451e565b60405180910390fd5b600f60009054906101000a900473ffffffffffffffffffffffffffffffffffffffff1673ffffffffffffffffffffffffffffffffffffffff166323b872dd3330846040518463ffffffff1660e01b815260040161100a9392919061453e565b600060405180830381600087803b15801561102457600080fd5b505af1158015611038573d6000803e3d6000fd5b5050505061105c336010600081548092919061105390614575565b91905055611ec2565b50565b60606001805461106e90613ddf565b80601f016020809104026020016040519081016040528092919081815260200182805461109a90613ddf565b80156110e75780601f106110bc576101008083540402835291602001916110e7565b820191906000526020600020905b8154815290600101906020018083116110ca57829003601f168201915b5050505050905090565b600061113a600c60008473ffffffffffffffffffffffffffffffffffffffff1673ffffffffffffffffffffffffffffffffffffffff16815260200190815260200160002061209b565b9050919050565b61115361114c611663565b8383612136565b5050565b611168611162611663565b83611724565b6111a7576040517f08c379a000000000000000000000000000000000000000000000000000000000815260040161119e90614038565b60405180910390fd5b6111b3848484846122a2565b50505050565b834211156111fc576040517f08c379a00000000000000000000000000000000000000000000000000000000081526004016111f390614609565b60405180910390fd5b600061125e6112567fe48329057bfd03d55e49b547132e39cffd9c1820ad7b9d4c5307691425d15adf89898960405160200161123b9493929190614629565b604051602081830303815290604052805190602001206122fe565b858585612318565b905061126981612343565b86146112aa576040517f08c379a00000000000000000000000000000000000000000000000000000000081526004016112a1906146ba565b60405180910390fd5b6112b48188611cda565b50505050505050565b60606112c8826115f7565b611307576040517f08c379a00000000000000000000000000000000000000000000000000000000081526004016112fe9061474c565b60405180910390fd5b60006113116123a1565b90506000815111611331576040518060200160405280600081525061135c565b8061133b846123b8565b60405160200161134c9291906147a8565b6040516020818303038152906040525b915050919050565b6011805461137190613ddf565b80601f016020809104026020016040519081016040528092919081815260200182805461139d90613ddf565b80156113ea5780601f106113bf576101008083540402835291602001916113ea565b820191906000526020600020905b8154815290600101906020018083116113cd57829003601f168201915b505050505081565b6000600560008473ffffffffffffffffffffffffffffffffffffffff1673ffffffffffffffffffffffffffffffffffffffff16815260200190815260200160002060008373ffffffffffffffffffffffffffffffffffffffff1673ffffffffffffffffffffffffffffffffffffffff16815260200190815260200160002060009054906101000a900460ff16905092915050565b61148e611663565b73ffffffffffffffffffffffffffffffffffffffff166114ac610e19565b73ffffffffffffffffffffffffffffffffffffffff1614611502576040517f08c379a00000000000000000000000000000000000000000000000000000000081526004016114f990614404565b60405180910390fd5b600073ffffffffffffffffffffffffffffffffffffffff168173ffffffffffffffffffffffffffffffffffffffff1603611571576040517f08c379a00000000000000000000000000000000000000000000000000000000081526004016115689061483e565b60405180910390fd5b61157a81611dee565b50565b60007f780e9d63000000000000000000000000000000000000000000000000000000007bffffffffffffffffffffffffffffffffffffffffffffffffffffffff1916827bffffffffffffffffffffffffffffffffffffffffffffffffffffffff191614806115f057506115ef82612518565b5b9050919050565b60008073ffffffffffffffffffffffffffffffffffffffff166002600084815260200190815260200160002060009054906101000a900473ffffffffffffffffffffffffffffffffffffffff1673ffffffffffffffffffffffffffffffffffffffff1614159050919050565b600033905090565b816004600083815260200190815260200160002060006101000a81548173ffffffffffffffffffffffffffffffffffffffff021916908373ffffffffffffffffffffffffffffffffffffffff160217905550808273ffffffffffffffffffffffffffffffffffffffff166116de83610bd9565b73ffffffffffffffffffffffffffffffffffffffff167f8c5be1e5ebec7d5bd14f71427d1e84f3dd0314c0f7b2291e5b200ac8c7c3b92560405160405180910390a45050565b600061172f826115f7565b61176e576040517f08c379a0000000000000000000000000000000000000000000000000000000008152600401611765906148d0565b60405180910390fd5b600061177983610bd9565b90508073ffffffffffffffffffffffffffffffffffffffff168473ffffffffffffffffffffffffffffffffffffffff1614806117bb57506117ba81856113f2565b5b806117f957508373ffffffffffffffffffffffffffffffffffffffff166117e184610756565b73ffffffffffffffffffffffffffffffffffffffff16145b91505092915050565b8273ffffffffffffffffffffffffffffffffffffffff1661182282610bd9565b73ffffffffffffffffffffffffffffffffffffffff1614611878576040517f08c379a000000000000000000000000000000000000000000000000000000000815260040161186f90614962565b60405180910390fd5b600073ffffffffffffffffffffffffffffffffffffffff168273ffffffffffffffffffffffffffffffffffffffff16036118e7576040517f08c379a00000000000000000000000000000000000000000000000000000000081526004016118de906149f4565b60405180910390fd5b6118f28383836125fa565b6118fd60008261166b565b6001600360008573ffffffffffffffffffffffffffffffffffffffff1673ffffffffffffffffffffffffffffffffffffffff168152602001908152602001600020600082825461194d9190614a14565b925050819055506001600360008473ffffffffffffffffffffffffffffffffffffffff1673ffffffffffffffffffffffffffffffffffffffff16815260200190815260200160002060008282546119a49190614a48565b92505081905550816002600083815260200190815260200160002060006101000a81548173ffffffffffffffffffffffffffffffffffffffff021916908373ffffffffffffffffffffffffffffffffffffffff160217905550808273ffffffffffffffffffffffffffffffffffffffff168473ffffffffffffffffffffffffffffffffffffffff167fddf252ad1be2c89b69c2b068fc378daa952ba7f163c4a11628f55a4df523b3ef60405160405180910390a4611a6383838361260a565b505050565b60007f000000000000000000000000000000000000000000000000000000000000000073ffffffffffffffffffffffffffffffffffffffff163073ffffffffffffffffffffffffffffffffffffffff16148015611ae457507f000000000000000000000000000000000000000000000000000000000000000046145b15611b11577f00000000000000000000000000000000000000000000000000000000000000009050611b7f565b611b7c7f00000000000000000000000000000000000000000000000000000000000000007f00000000000000000000000000000000000000000000000000000000000000007f000000000000000000000000000000000000000000000000000000000000000061261a565b90505b90565b6000438210611bc6576040517f08c379a0000000000000000000000000000000000000000000000000000000008152600401611bbd90614aea565b60405180910390fd5b60008360000180549050905060005b81811015611c4a576000611be98284612654565b905084866000018281548110611c0257611c01614265565b5b9060005260206000200160000160009054906101000a900463ffffffff1663ffffffff161115611c3457809250611c44565b600181611c419190614a48565b91505b50611bd5565b60008214611caf5784600001600183611c639190614a14565b81548110611c7457611c73614265565b5b9060005260206000200160000160049054906101000a90047bffffffffffffffffffffffffffffffffffffffffffffffffffffffff16611cb2565b60005b7bffffffffffffffffffffffffffffffffffffffffffffffffffffffff169250505092915050565b6000611ce583610b30565b905081600b60008573ffffffffffffffffffffffffffffffffffffffff1673ffffffffffffffffffffffffffffffffffffffff16815260200190815260200160002060006101000a81548173ffffffffffffffffffffffffffffffffffffffff021916908373ffffffffffffffffffffffffffffffffffffffff1602179055508173ffffffffffffffffffffffffffffffffffffffff168173ffffffffffffffffffffffffffffffffffffffff168473ffffffffffffffffffffffffffffffffffffffff167f3134e8a2e6d97e929a7e54011ea5485d7d196dd5f0ba4d4ef95803e8e3fc257f60405160405180910390a4611de98183611de48661267a565b61268c565b505050565b6000600a60009054906101000a900473ffffffffffffffffffffffffffffffffffffffff16905081600a60006101000a81548173ffffffffffffffffffffffffffffffffffffffff021916908373ffffffffffffffffffffffffffffffffffffffff1602179055508173ffffffffffffffffffffffffffffffffffffffff168173ffffffffffffffffffffffffffffffffffffffff167f8be0079c531659141344cd1fd0a4f28419497f9722a3daafe3b4186f6b6457e060405160405180910390a35050565b600081600001549050919050565b600073ffffffffffffffffffffffffffffffffffffffff168273ffffffffffffffffffffffffffffffffffffffff1603611f31576040517f08c379a0000000000000000000000000000000000000000000000000000000008152600401611f2890614b56565b60405180910390fd5b611f3a816115f7565b15611f7a576040517f08c379a0000000000000000000000000000000000000000000000000000000008152600401611f7190614bc2565b60405180910390fd5b611f86600083836125fa565b6001600360008473ffffffffffffffffffffffffffffffffffffffff1673ffffffffffffffffffffffffffffffffffffffff1681526020019081526020016000206000828254611fd69190614a48565b92505081905550816002600083815260200190815260200160002060006101000a81548173ffffffffffffffffffffffffffffffffffffffff021916908373ffffffffffffffffffffffffffffffffffffffff160217905550808273ffffffffffffffffffffffffffffffffffffffff16600073ffffffffffffffffffffffffffffffffffffffff167fddf252ad1be2c89b69c2b068fc378daa952ba7f163c4a11628f55a4df523b3ef60405160405180910390a46120976000838361260a565b5050565b600080826000018054905090506000811461210d57826000016001826120c19190614a14565b815481106120d2576120d1614265565b5b9060005260206000200160000160049054906101000a90047bffffffffffffffffffffffffffffffffffffffffffffffffffffffff16612110565b60005b7bffffffffffffffffffffffffffffffffffffffffffffffffffffffff16915050919050565b8173ffffffffffffffffffffffffffffffffffffffff168373ffffffffffffffffffffffffffffffffffffffff16036121a4576040517f08c379a000000000000000000000000000000000000000000000000000000000815260040161219b90614c2e565b60405180910390fd5b80600560008573ffffffffffffffffffffffffffffffffffffffff1673ffffffffffffffffffffffffffffffffffffffff16815260200190815260200160002060008473ffffffffffffffffffffffffffffffffffffffff1673ffffffffffffffffffffffffffffffffffffffff16815260200190815260200160002060006101000a81548160ff0219169083151502179055508173ffffffffffffffffffffffffffffffffffffffff168373ffffffffffffffffffffffffffffffffffffffff167f17307eab39ab6107e8899845ad3d59bd9653f200f220920489ca2b5937696c31836040516122959190613698565b60405180910390a3505050565b6122ad848484611802565b6122b984848484612899565b6122f8576040517f08c379a00000000000000000000000000000000000000000000000000000000081526004016122ef90614cc0565b60405180910390fd5b50505050565b600061231161230b611a68565b83612a20565b9050919050565b600080600061232987878787612a53565b9150915061233681612b5f565b8192505050949350505050565b600080600e60008473ffffffffffffffffffffffffffffffffffffffff1673ffffffffffffffffffffffffffffffffffffffff168152602001908152602001600020905061239081611eb4565b915061239b81612d2b565b50919050565b606060405180602001604052806000815250905090565b6060600082036123ff576040518060400160405280600181526020017f30000000000000000000000000000000000000000000000000000000000000008152509050612513565b600082905060005b6000821461243157808061241a90614575565b915050600a8261242a9190614110565b9150612407565b60008167ffffffffffffffff81111561244d5761244c613ad0565b5b6040519080825280601f01601f19166020018201604052801561247f5781602001600182028036833780820191505090505b5090505b6000851461250c576001826124989190614a14565b9150600a856124a79190614ce0565b60306124b39190614a48565b60f81b8183815181106124c9576124c8614265565b5b60200101907effffffffffffffffffffffffffffffffffffffffffffffffffffffffffffff1916908160001a905350600a856125059190614110565b9450612483565b8093505050505b919050565b60007f80ac58cd000000000000000000000000000000000000000000000000000000007bffffffffffffffffffffffffffffffffffffffffffffffffffffffff1916827bffffffffffffffffffffffffffffffffffffffffffffffffffffffff191614806125e357507f5b5e139f000000000000000000000000000000000000000000000000000000007bffffffffffffffffffffffffffffffffffffffffffffffffffffffff1916827bffffffffffffffffffffffffffffffffffffffffffffffffffffffff1916145b806125f357506125f282612d41565b5b9050919050565b612605838383612dab565b505050565b612615838383612ebd565b505050565b60008383834630604051602001612635959493929190614d11565b6040516020818303038152906040528051906020012090509392505050565b600060028284186126659190614110565b8284166126729190614a48565b905092915050565b600061268582610c8a565b9050919050565b8173ffffffffffffffffffffffffffffffffffffffff168373ffffffffffffffffffffffffffffffffffffffff16141580156126c85750600081115b1561289457600073ffffffffffffffffffffffffffffffffffffffff168373ffffffffffffffffffffffffffffffffffffffff16146127b057600080612759612ed984600c60008973ffffffffffffffffffffffffffffffffffffffff1673ffffffffffffffffffffffffffffffffffffffff168152602001908152602001600020612eef9092919063ffffffff16565b915091508473ffffffffffffffffffffffffffffffffffffffff167fdec2bacdd2f05b59de34da9b523dff8be42e5e38e818c82fdb0bae774387a72483836040516127a5929190614d64565b60405180910390a250505b600073ffffffffffffffffffffffffffffffffffffffff168273ffffffffffffffffffffffffffffffffffffffff16146128935760008061283c612f1d84600c60008873ffffffffffffffffffffffffffffffffffffffff1673ffffffffffffffffffffffffffffffffffffffff168152602001908152602001600020612eef9092919063ffffffff16565b915091508373ffffffffffffffffffffffffffffffffffffffff167fdec2bacdd2f05b59de34da9b523dff8be42e5e38e818c82fdb0bae774387a7248383604051612888929190614d64565b60405180910390a250505b5b505050565b60006128ba8473ffffffffffffffffffffffffffffffffffffffff16612f33565b15612a13578373ffffffffffffffffffffffffffffffffffffffff1663150b7a026128e3611663565b8786866040518563ffffffff1660e01b81526004016129059493929190614de2565b6020604051808303816000875af192505050801561294157506040513d601f19601f8201168201806040525081019061293e9190614e43565b60015b6129c3573d8060008114612971576040519150601f19603f3d011682016040523d82523d6000602084013e612976565b606091505b5060008151036129bb576040517f08c379a00000000000000000000000000000000000000000000000000000000081526004016129b290614cc0565b60405180910390fd5b805181602001fd5b63150b7a0260e01b7bffffffffffffffffffffffffffffffffffffffffffffffffffffffff1916817bffffffffffffffffffffffffffffffffffffffffffffffffffffffff191614915050612a18565b600190505b949350505050565b60008282604051602001612a35929190614edd565b60405160208183030381529060405280519060200120905092915050565b6000807f7fffffffffffffffffffffffffffffff5d576e7357a4501ddfe92f46681b20a08360001c1115612a8e576000600391509150612b56565b601b8560ff1614158015612aa65750601c8560ff1614155b15612ab8576000600491509150612b56565b600060018787878760405160008152602001604052604051612add9493929190614f23565b6020604051602081039080840390855afa158015612aff573d6000803e3d6000fd5b505050602060405103519050600073ffffffffffffffffffffffffffffffffffffffff168173ffffffffffffffffffffffffffffffffffffffff1603612b4d57600060019250925050612b56565b80600092509250505b94509492505050565b60006004811115612b7357612b72614f68565b5b816004811115612b8657612b85614f68565b5b0315612d285760016004811115612ba057612b9f614f68565b5b816004811115612bb357612bb2614f68565b5b03612bf3576040517f08c379a0000000000000000000000000000000000000000000000000000000008152600401612bea90614fe3565b60405180910390fd5b60026004811115612c0757612c06614f68565b5b816004811115612c1a57612c19614f68565b5b03612c5a576040517f08c379a0000000000000000000000000000000000000000000000000000000008152600401612c519061504f565b60405180910390fd5b60036004811115612c6e57612c6d614f68565b5b816004811115612c8157612c80614f68565b5b03612cc1576040517f08c379a0000000000000000000000000000000000000000000000000000000008152600401612cb8906150e1565b60405180910390fd5b600480811115612cd457612cd3614f68565b5b816004811115612ce757612ce6614f68565b5b03612d27576040517f08c379a0000000000000000000000000000000000000000000000000000000008152600401612d1e90615173565b60405180910390fd5b5b50565b6001816000016000828254019250508190555050565b60007f01ffc9a7000000000000000000000000000000000000000000000000000000007bffffffffffffffffffffffffffffffffffffffffffffffffffffffff1916827bffffffffffffffffffffffffffffffffffffffffffffffffffffffff1916149050919050565b612db6838383612f56565b600073ffffffffffffffffffffffffffffffffffffffff168373ffffffffffffffffffffffffffffffffffffffff1603612df857612df381612f5b565b612e37565b8173ffffffffffffffffffffffffffffffffffffffff168373ffffffffffffffffffffffffffffffffffffffff1614612e3657612e358382612fa4565b5b5b600073ffffffffffffffffffffffffffffffffffffffff168273ffffffffffffffffffffffffffffffffffffffff1603612e7957612e7481613111565b612eb8565b8273ffffffffffffffffffffffffffffffffffffffff168273ffffffffffffffffffffffffffffffffffffffff1614612eb757612eb682826131e2565b5b5b505050565b612ec983836001613261565b612ed483838361331f565b505050565b60008183612ee79190614a14565b905092915050565b600080612f1185612f0c612f028861209b565b868863ffffffff16565b613324565b91509150935093915050565b60008183612f2b9190614a48565b905092915050565b6000808273ffffffffffffffffffffffffffffffffffffffff163b119050919050565b505050565b6008805490506009600083815260200190815260200160002081905550600881908060018154018082558091505060019003906000526020600020016000909190919091505550565b60006001612fb184610c8a565b612fbb9190614a14565b90506000600760008481526020019081526020016000205490508181146130a0576000600660008673ffffffffffffffffffffffffffffffffffffffff1673ffffffffffffffffffffffffffffffffffffffff168152602001908152602001600020600084815260200190815260200160002054905080600660008773ffffffffffffffffffffffffffffffffffffffff1673ffffffffffffffffffffffffffffffffffffffff168152602001908152602001600020600084815260200190815260200160002081905550816007600083815260200190815260200160002081905550505b6007600084815260200190815260200160002060009055600660008573ffffffffffffffffffffffffffffffffffffffff1673ffffffffffffffffffffffffffffffffffffffff16815260200190815260200160002060008381526020019081526020016000206000905550505050565b600060016008805490506131259190614a14565b905060006009600084815260200190815260200160002054905060006008838154811061315557613154614265565b5b90600052602060002001549050806008838154811061317757613176614265565b5b9060005260206000200181905550816009600083815260200190815260200160002081905550600960008581526020019081526020016000206000905560088054806131c6576131c5615193565b5b6001900381819060005260206000200160009055905550505050565b60006131ed83610c8a565b905081600660008573ffffffffffffffffffffffffffffffffffffffff1673ffffffffffffffffffffffffffffffffffffffff168152602001908152602001600020600083815260200190815260200160002081905550806007600084815260200190815260200160002081905550505050565b600073ffffffffffffffffffffffffffffffffffffffff168373ffffffffffffffffffffffffffffffffffffffff16036132b0576132ad612f1d82600d612eef9092919063ffffffff16565b50505b600073ffffffffffffffffffffffffffffffffffffffff168273ffffffffffffffffffffffffffffffffffffffff16036132ff576132fc612ed982600d612eef9092919063ffffffff16565b50505b61331a61330b84610b30565b61331484610b30565b8361268c565b505050565b505050565b600080600084600001805490509050600061333e8661209b565b90506000821180156133945750438660000160018461335d9190614a14565b8154811061336e5761336d614265565b5b9060005260206000200160000160009054906101000a900463ffffffff1663ffffffff16145b15613424576133a285613526565b866000016001846133b39190614a14565b815481106133c4576133c3614265565b5b9060005260206000200160000160046101000a8154817bffffffffffffffffffffffffffffffffffffffffffffffffffffffff02191690837bffffffffffffffffffffffffffffffffffffffffffffffffffffffff160217905550613517565b85600001604051806040016040528061343c43613591565b63ffffffff16815260200161345088613526565b7bffffffffffffffffffffffffffffffffffffffffffffffffffffffff168152509080600181540180825580915050600190039060005260206000200160009091909190915060008201518160000160006101000a81548163ffffffff021916908363ffffffff16021790555060208201518160000160046101000a8154817bffffffffffffffffffffffffffffffffffffffffffffffffffffffff02191690837bffffffffffffffffffffffffffffffffffffffffffffffffffffffff16021790555050505b80859350935050509250929050565b60007bffffffffffffffffffffffffffffffffffffffffffffffffffffffff8016821115613589576040517f08c379a000000000000000000000000000000000000000000000000000000000815260040161358090615234565b60405180910390fd5b819050919050565b600063ffffffff80168211156135dc576040517f08c379a00000000000000000000000000000000000000000000000000000000081526004016135d3906152c6565b60405180910390fd5b819050919050565b6000604051905090565b600080fd5b600080fd5b60007fffffffff0000000000000000000000000000000000000000000000000000000082169050919050565b61362d816135f8565b811461363857600080fd5b50565b60008135905061364a81613624565b92915050565b600060208284031215613666576136656135ee565b5b60006136748482850161363b565b91505092915050565b60008115159050919050565b6136928161367d565b82525050565b60006020820190506136ad6000830184613689565b92915050565b600081519050919050565b600082825260208201905092915050565b60005b838110156136ed5780820151818401526020810190506136d2565b838111156136fc576000848401525b50505050565b6000601f19601f8301169050919050565b600061371e826136b3565b61372881856136be565b93506137388185602086016136cf565b61374181613702565b840191505092915050565b600060208201905081810360008301526137668184613713565b905092915050565b6000819050919050565b6137818161376e565b811461378c57600080fd5b50565b60008135905061379e81613778565b92915050565b6000602082840312156137ba576137b96135ee565b5b60006137c88482850161378f565b91505092915050565b600073ffffffffffffffffffffffffffffffffffffffff82169050919050565b60006137fc826137d1565b9050919050565b61380c816137f1565b82525050565b60006020820190506138276000830184613803565b92915050565b613836816137f1565b811461384157600080fd5b50565b6000813590506138538161382d565b92915050565b600080604083850312156138705761386f6135ee565b5b600061387e85828601613844565b925050602061388f8582860161378f565b9150509250929050565b6138a28161376e565b82525050565b60006020820190506138bd6000830184613899565b92915050565b6000806000606084860312156138dc576138db6135ee565b5b60006138ea86828701613844565b93505060206138fb86828701613844565b925050604061390c8682870161378f565b9150509250925092565b6000806040838503121561392d5761392c6135ee565b5b600061393b8582860161378f565b925050602061394c8582860161378f565b9150509250929050565b600060408201905061396b6000830185613803565b6139786020830184613899565b9392505050565b6000819050919050565b6139928161397f565b82525050565b60006020820190506139ad6000830184613989565b92915050565b6000602082840312156139c9576139c86135ee565b5b60006139d784828501613844565b91505092915050565b6000819050919050565b6000613a05613a006139fb846137d1565b6139e0565b6137d1565b9050919050565b6000613a17826139ea565b9050919050565b6000613a2982613a0c565b9050919050565b613a3981613a1e565b82525050565b6000602082019050613a546000830184613a30565b92915050565b613a638161367d565b8114613a6e57600080fd5b50565b600081359050613a8081613a5a565b92915050565b60008060408385031215613a9d57613a9c6135ee565b5b6000613aab85828601613844565b9250506020613abc85828601613a71565b9150509250929050565b600080fd5b600080fd5b7f4e487b7100000000000000000000000000000000000000000000000000000000600052604160045260246000fd5b613b0882613702565b810181811067ffffffffffffffff82111715613b2757613b26613ad0565b5b80604052505050565b6000613b3a6135e4565b9050613b468282613aff565b919050565b600067ffffffffffffffff821115613b6657613b65613ad0565b5b613b6f82613702565b9050602081019050919050565b82818337600083830152505050565b6000613b9e613b9984613b4b565b613b30565b905082815260208101848484011115613bba57613bb9613acb565b5b613bc5848285613b7c565b509392505050565b600082601f830112613be257613be1613ac6565b5b8135613bf2848260208601613b8b565b91505092915050565b60008060008060808587031215613c1557613c146135ee565b5b6000613c2387828801613844565b9450506020613c3487828801613844565b9350506040613c458782880161378f565b925050606085013567ffffffffffffffff811115613c6657613c656135f3565b5b613c7287828801613bcd565b91505092959194509250565b600060ff82169050919050565b613c9481613c7e565b8114613c9f57600080fd5b50565b600081359050613cb181613c8b565b92915050565b613cc08161397f565b8114613ccb57600080fd5b50565b600081359050613cdd81613cb7565b92915050565b60008060008060008060c08789031215613d0057613cff6135ee565b5b6000613d0e89828a01613844565b9650506020613d1f89828a0161378f565b9550506040613d3089828a0161378f565b9450506060613d4189828a01613ca2565b9350506080613d5289828a01613cce565b92505060a0613d6389828a01613cce565b9150509295509295509295565b60008060408385031215613d8757613d866135ee565b5b6000613d9585828601613844565b9250506020613da685828601613844565b9150509250929050565b7f4e487b7100000000000000000000000000000000000000000000000000000000600052602260045260246000fd5b60006002820490506001821680613df757607f821691505b602082108103613e0a57613e09613db0565b5b50919050565b7f4552433732313a20617070726f76656420717565727920666f72206e6f6e657860008201527f697374656e7420746f6b656e0000000000000000000000000000000000000000602082015250565b6000613e6c602c836136be565b9150613e7782613e10565b604082019050919050565b60006020820190508181036000830152613e9b81613e5f565b9050919050565b7f4552433732313a20617070726f76616c20746f2063757272656e74206f776e6560008201527f7200000000000000000000000000000000000000000000000000000000000000602082015250565b6000613efe6021836136be565b9150613f0982613ea2565b604082019050919050565b60006020820190508181036000830152613f2d81613ef1565b9050919050565b7f4552433732313a20617070726f76652063616c6c6572206973206e6f74206f7760008201527f6e6572206e6f7220617070726f76656420666f7220616c6c0000000000000000602082015250565b6000613f906038836136be565b9150613f9b82613f34565b604082019050919050565b60006020820190508181036000830152613fbf81613f83565b9050919050565b7f4552433732313a207472616e736665722063616c6c6572206973206e6f74206f60008201527f776e6572206e6f7220617070726f766564000000000000000000000000000000602082015250565b60006140226031836136be565b915061402d82613fc6565b604082019050919050565b6000602082019050818103600083015261405181614015565b9050919050565b7f4e487b7100000000000000000000000000000000000000000000000000000000600052601160045260246000fd5b60006140928261376e565b915061409d8361376e565b9250817fffffffffffffffffffffffffffffffffffffffffffffffffffffffffffffffff04831182151516156140d6576140d5614058565b5b828202905092915050565b7f4e487b7100000000000000000000000000000000000000000000000000000000600052601260045260246000fd5b600061411b8261376e565b91506141268361376e565b925082614136576141356140e1565b5b828204905092915050565b7f455243373231456e756d657261626c653a206f776e657220696e646578206f7560008201527f74206f6620626f756e6473000000000000000000000000000000000000000000602082015250565b600061419d602b836136be565b91506141a882614141565b604082019050919050565b600060208201905081810360008301526141cc81614190565b9050919050565b7f455243373231456e756d657261626c653a20676c6f62616c20696e646578206f60008201527f7574206f6620626f756e64730000000000000000000000000000000000000000602082015250565b600061422f602c836136be565b915061423a826141d3565b604082019050919050565b6000602082019050818103600083015261425e81614222565b9050919050565b7f4e487b7100000000000000000000000000000000000000000000000000000000600052603260045260246000fd5b7f4552433732313a206f776e657220717565727920666f72206e6f6e657869737460008201527f656e7420746f6b656e0000000000000000000000000000000000000000000000602082015250565b60006142f06029836136be565b91506142fb82614294565b604082019050919050565b6000602082019050818103600083015261431f816142e3565b9050919050565b7f4552433732313a2062616c616e636520717565727920666f7220746865207a6560008201527f726f206164647265737300000000000000000000000000000000000000000000602082015250565b6000614382602a836136be565b915061438d82614326565b604082019050919050565b600060208201905081810360008301526143b181614375565b9050919050565b7f4f776e61626c653a2063616c6c6572206973206e6f7420746865206f776e6572600082015250565b60006143ee6020836136be565b91506143f9826143b8565b602082019050919050565b6000602082019050818103600083015261441d816143e1565b9050919050565b7f566f7465733a20626c6f636b206e6f7420796574206d696e6564000000000000600082015250565b600061445a601a836136be565b915061446582614424565b602082019050919050565b600060208201905081810360008301526144898161444d565b9050919050565b60008151905061449f8161382d565b92915050565b6000602082840312156144bb576144ba6135ee565b5b60006144c984828501614490565b91505092915050565b7f6e6f74206f776e6572206f6620746f6b656e4964000000000000000000000000600082015250565b60006145086014836136be565b9150614513826144d2565b602082019050919050565b60006020820190508181036000830152614537816144fb565b9050919050565b60006060820190506145536000830186613803565b6145606020830185613803565b61456d6040830184613899565b949350505050565b60006145808261376e565b91507fffffffffffffffffffffffffffffffffffffffffffffffffffffffffffffffff82036145b2576145b1614058565b5b600182019050919050565b7f566f7465733a207369676e617475726520657870697265640000000000000000600082015250565b60006145f36018836136be565b91506145fe826145bd565b602082019050919050565b60006020820190508181036000830152614622816145e6565b9050919050565b600060808201905061463e6000830187613989565b61464b6020830186613803565b6146586040830185613899565b6146656060830184613899565b95945050505050565b7f566f7465733a20696e76616c6964206e6f6e6365000000000000000000000000600082015250565b60006146a46014836136be565b91506146af8261466e565b602082019050919050565b600060208201905081810360008301526146d381614697565b9050919050565b7f4552433732314d657461646174613a2055524920717565727920666f72206e6f60008201527f6e6578697374656e7420746f6b656e0000000000000000000000000000000000602082015250565b6000614736602f836136be565b9150614741826146da565b604082019050919050565b6000602082019050818103600083015261476581614729565b9050919050565b600081905092915050565b6000614782826136b3565b61478c818561476c565b935061479c8185602086016136cf565b80840191505092915050565b60006147b48285614777565b91506147c08284614777565b91508190509392505050565b7f4f776e61626c653a206e6577206f776e657220697320746865207a65726f206160008201527f6464726573730000000000000000000000000000000000000000000000000000602082015250565b60006148286026836136be565b9150614833826147cc565b604082019050919050565b600060208201905081810360008301526148578161481b565b9050919050565b7f4552433732313a206f70657261746f7220717565727920666f72206e6f6e657860008201527f697374656e7420746f6b656e0000000000000000000000000000000000000000602082015250565b60006148ba602c836136be565b91506148c58261485e565b604082019050919050565b600060208201905081810360008301526148e9816148ad565b9050919050565b7f4552433732313a207472616e736665722066726f6d20696e636f72726563742060008201527f6f776e6572000000000000000000000000000000000000000000000000000000602082015250565b600061494c6025836136be565b9150614957826148f0565b604082019050919050565b6000602082019050818103600083015261497b8161493f565b9050919050565b7f4552433732313a207472616e7366657220746f20746865207a65726f2061646460008201527f7265737300000000000000000000000000000000000000000000000000000000602082015250565b60006149de6024836136be565b91506149e982614982565b604082019050919050565b60006020820190508181036000830152614a0d816149d1565b9050919050565b6000614a1f8261376e565b9150614a2a8361376e565b925082821015614a3d57614a3c614058565b5b828203905092915050565b6000614a538261376e565b9150614a5e8361376e565b9250827fffffffffffffffffffffffffffffffffffffffffffffffffffffffffffffffff03821115614a9357614a92614058565b5b828201905092915050565b7f436865636b706f696e74733a20626c6f636b206e6f7420796574206d696e6564600082015250565b6000614ad46020836136be565b9150614adf82614a9e565b602082019050919050565b60006020820190508181036000830152614b0381614ac7565b9050919050565b7f4552433732313a206d696e7420746f20746865207a65726f2061646472657373600082015250565b6000614b406020836136be565b9150614b4b82614b0a565b602082019050919050565b60006020820190508181036000830152614b6f81614b33565b9050919050565b7f4552433732313a20746f6b656e20616c7265616479206d696e74656400000000600082015250565b6000614bac601c836136be565b9150614bb782614b76565b602082019050919050565b60006020820190508181036000830152614bdb81614b9f565b9050919050565b7f4552433732313a20617070726f766520746f2063616c6c657200000000000000600082015250565b6000614c186019836136be565b9150614c2382614be2565b602082019050919050565b60006020820190508181036000830152614c4781614c0b565b9050919050565b7f4552433732313a207472616e7366657220746f206e6f6e20455243373231526560008201527f63656976657220696d706c656d656e7465720000000000000000000000000000602082015250565b6000614caa6032836136be565b9150614cb582614c4e565b604082019050919050565b60006020820190508181036000830152614cd981614c9d565b9050919050565b6000614ceb8261376e565b9150614cf68361376e565b925082614d0657614d056140e1565b5b828206905092915050565b600060a082019050614d266000830188613989565b614d336020830187613989565b614d406040830186613989565b614d4d6060830185613899565b614d5a6080830184613803565b9695505050505050565b6000604082019050614d796000830185613899565b614d866020830184613899565b9392505050565b600081519050919050565b600082825260208201905092915050565b6000614db482614d8d565b614dbe8185614d98565b9350614dce8185602086016136cf565b614dd781613702565b840191505092915050565b6000608082019050614df76000830187613803565b614e046020830186613803565b614e116040830185613899565b8181036060830152614e238184614da9565b905095945050505050565b600081519050614e3d81613624565b92915050565b600060208284031215614e5957614e586135ee565b5b6000614e6784828501614e2e565b91505092915050565b7f1901000000000000000000000000000000000000000000000000000000000000600082015250565b6000614ea660028361476c565b9150614eb182614e70565b600282019050919050565b6000819050919050565b614ed7614ed28261397f565b614ebc565b82525050565b6000614ee882614e99565b9150614ef48285614ec6565b602082019150614f048284614ec6565b6020820191508190509392505050565b614f1d81613c7e565b82525050565b6000608082019050614f386000830187613989565b614f456020830186614f14565b614f526040830185613989565b614f5f6060830184613989565b95945050505050565b7f4e487b7100000000000000000000000000000000000000000000000000000000600052602160045260246000fd5b7f45434453413a20696e76616c6964207369676e61747572650000000000000000600082015250565b6000614fcd6018836136be565b9150614fd882614f97565b602082019050919050565b60006020820190508181036000830152614ffc81614fc0565b9050919050565b7f45434453413a20696e76616c6964207369676e6174757265206c656e67746800600082015250565b6000615039601f836136be565b915061504482615003565b602082019050919050565b600060208201905081810360008301526150688161502c565b9050919050565b7f45434453413a20696e76616c6964207369676e6174757265202773272076616c60008201527f7565000000000000000000000000000000000000000000000000000000000000602082015250565b60006150cb6022836136be565b91506150d68261506f565b604082019050919050565b600060208201905081810360008301526150fa816150be565b9050919050565b7f45434453413a20696e76616c6964207369676e6174757265202776272076616c60008201527f7565000000000000000000000000000000000000000000000000000000000000602082015250565b600061515d6022836136be565b915061516882615101565b604082019050919050565b6000602082019050818103600083015261518c81615150565b9050919050565b7f4e487b7100000000000000000000000000000000000000000000000000000000600052603160045260246000fd5b7f53616665436173743a2076616c756520646f65736e27742066697420696e203260008201527f3234206269747300000000000000000000000000000000000000000000000000602082015250565b600061521e6027836136be565b9150615229826151c2565b604082019050919050565b6000602082019050818103600083015261524d81615211565b9050919050565b7f53616665436173743a2076616c756520646f65736e27742066697420696e203360008201527f3220626974730000000000000000000000000000000000000000000000000000602082015250565b60006152b06026836136be565b91506152bb82615254565b604082019050919050565b600060208201905081810360008301526152df816152a3565b905091905056fea26469706673582212202219b039d8320149e47d5c891f162de84408871e6e1c8cdc82fc7f5dd9cd91b464736f6c634300080e0033",
  "linkReferences": {},
  "deployedLinkReferences": {}
}